0200120002001390215014000000155BEL PAESE                                0000000006000000100P000000A
0200130002001290215015000000155CERTOSA                                  0000000006000000100P000000A
0200160002001390218686000000155PROSCIUTTO COTTO PRIMIA                  0000000006000000100P000000A
0200190002003090218991000000155PROSCIUTTO COTTO GRANBISCOTTO            0000000006000000100P000000A
0200250002001990215021000000155PARMIGIANO REGGIANO DOP                  0000000006000000100P000000A
0200260002001790215022000000155GRANA PADANO DOP                         0000000006000000100P000000A
0200270002000079210366900000155FILONCINO OLIVE                          0000000012000000100M000000A
0200280002000089210367100000155BARRETTA AI CEREALI                      0000000012000000100M000000A
0200290002000069210367200000155QUADROTTA CIOCCOLATO                     0000000012000000100M000000A
0200300002000089210367300000155QUADROTTA NOCI                           0000000012000000100M000000A
0200310002000069210367400000155QUADROTTA UVETTA                         0000000012000000100M000000A
0200320002001790210369700000155ERBAZZONE                                0002000012000000100P000000A
0200340002000059210375700000155FILONCINO INTEGRALE G.115                0000000012000000100M000000A
0200350002000069210375800000155FILONCINO SEMOLA DI GRANO DURO G.145     0000000012000000100M000000A
0200360002000039210384100000155BOCCONCINO SEMOLA GRANO DURO G.60        0000000012000000100M000000A
0200390002001349210029500000155PIZZA AL TONNO E CIPOLLE                 0000000010000000100P000000A
0200400002001349214134000000155PIZZA  CON PROSC. COTTO                  0000000010000000100P000000A
0200410002001349214136000000155PIZZA CON GORGONZOLA                     0000000010000000100P000000A
0200420002001349214137000000155PIZZA CON SPECK E BRIE                   0000000010000000100P000000A
0200660002001890214328000000155MORTADELLA FAVOLA T.A. TRANCIO           0010000006000000100P000000A
0200670002001890215665000000155MORTADELLA FAVOLA                        0000000006000000100P000000A
0200700002002190210320400000155TIRAMISU'AL PISTACCHIO                   0010000006000000100P000000A
0200860002002190210320600000155PESCHE                                   0030000006000000100P000000A
0200870002002190210320500000155ZUPPA INGLESE                            0010000006000000100P000000A
0200910002001399210101200000155FOCACCIA ALLE OLIVE                      0000000008000000100P000000A
0200920002001249210101300000155FOCACCIA DOLCE                           0000000010000000100P000000A
0200930002002390211694000000155PROSCIUTTO COTTO STELLA NEGRONI          0000000006000000100P000000A
0200970002003590215020000000155PROSCIUTTO CRUDO SAN DANIELE DOP         0000000006000000100P000000A
0201000002001290216187000000155OLIVE VERDI PICC. SCHIACCIATE            0000000006000000100P000000A
0201100002001450213909000000155SEIRASS SACCHETTO                        0000000006000000100P000000A
0201110002001890215786000000155PROSCIUTTO CRUDO                         0000000006000000100P000000A
0201190002002540215605000000155SPECK ALTO ADIGE IGP                     0000000006000000100P000000A
0201200002002090215064000000155GRANA PADANO DOP 20 MESI                 0000000006000000100P000000A
0201220002002190218683000000155PANCETTA COPPATA STAGIONATA              0000000006000000100P000000A
0201350002003590210334300000155PROSC.CR.S.DANIELE ADD.KG.8 CA KING      0000000006000000100P000000A
0201400002003590210368500000155PROSC.CR.S.DANIELE C/O KG.11 CA KING     0000000006000000100P000000A
0201440002001950210576500000155ROLLINO CAPRA CAPRI'X7 G.560 MAURI FORMA 0000000006000000100P000000A
0201450002000499210359200000155CAMEMBERT CAPRA G.250 CAROZZI            0000000006000000100M000000A
0201480002002390215764000000155LINGUA BOVINO  COTTA                     0000000006000000100P000000A
0201490002002090210075600000155GRAN FESA TACCHINO ARROSTO               0000000006000000100P000000A
0201500002001990214340000000155TOMA AL PEPERONCINO T.A.                 0005000006000000100P000000A
0201510002001990210316900000155TACCHINO FARCITO ZENO                    0000000006000000100P000000A
0201590002001690210368600000155PROSC.CRUDO C/O KING FONDINO             0010000006000000100P000000A
0201630002002540210083500000155SPECK ALTO ADIGE IGP TRANCIO SENFTER     0010000006000000100P000000A
0201640002001890219288000000155CACIOCAVALLO                             0000000006000000100P000000A
0201650002000499210339200000155CAMEMBERT BUFALA G.250 PONTE REALE       0000000006000000100M000000A
0201660002001350216087000000155FORM PRIMO SALE                          0000000006000000100P000000A
0201700002000990210359300000155FONDINO TACCHINO RIPIENO ZENO KOMETA     0010000006000000100P000000A
0201740002001890214309000000155CACIOCIOCAVALLO T.A.                     0005000006000000100P000000A
0201750002001690210369600000155PROSC.CRUDO ADD.KING FONDINO             0010000006000000100P000000A
0201760002002090210370400000155FORM. CAPRA G.250 CA 100% LATTE PIEMONTE 0000000006000000100P000000A
0201960002005990215034000000155SALMONE AFFUMICATO                       0000000006000000100P000000A
0202010002002990215358000000155FILETTI DI ALICI NAZIONALI               0000000006000000100P000000A
0202020002001290215036000000155OLIVE SARACENE DENOCCIOLATE              0000000006000000100P000000A
0202030002000990218690000000155OLIVE RIVIERA                            0000000006000000100P000000A
0202040002001290216188000000155OLIVE NERE MAMMOUTH                      0000000006000000100P000000A
0202050002002490215181000000155SALAME P.S.FELINO IGP.KG.1 CA BOSCHI     0000000006000000100P000000A
0202060002002490210346900000155SALAME FELINO IGP BOSCHI TA              0010000006000000100P000000A
0202070002004990215343000000155PINOLI                                   0020000006000000100P000000A
0202080002002980214552000000155ACCIUGHE SALATE 5 KG 4L                  0000000006000000100P000000A
0202110002000499210483300000155ESPLOSIONE DI LATTE G.400 CIUFFO SAPOROS 0000000006000000100M000000A
0202120002001690213906000000155PRIMOSALE SICILIANO                      0000000006000000100P000000A
0202130002001690213885000000155PRIMOSALE SICILIANO T.A.                 0010000006000000100P000000A
0202140002001690213907000000155PRIMOSALE SICILIANO-PEPE                 0000000006000000100P000000A
0202150002001690213886000000155PRIMOSALE SICILIANO PEPE T.A.            0010000006000000100P000000A
0202160002001690213908000000155PRIMOSALE PEPERONCINO                    0000000006000000100P000000A
0202170002001690213887000000155PRIMOSALE SICILIANO PEPERONCINO T.A.     0010000006000000100P000000A
0202200002003990210374900000155CULATTA INT.SV KG.5 CA CAPANNA           0000000006000000100P000000A
0202210002001490210375100000155CULATTA CAPANNA FONDINO                  0010000006000000100P000000A
0202300002001790210333500000155PETTO POLLO FORNO KG.3 CA ITAL.VIANI     0000000006000000100P000000A
0202310002000790210333600000155FONDINO PETTO POLLO FORNO VIANI          0010000006000000100P000000A
0202320002001890210333900000155PETTO TACCHINO FORNO KG.3,8 CA VIANI     0000000006000000100P000000A
0202330002000790210334100000155FONDINO PETTO TACCHINO FORNO VIANI       0010000006000000100P000000A
0202430002001490219113000000155SCIMUDIN                                 0000000006000000100P000000A
0202450002001240218692000000155FORM.PIATTONE D.O.P.TAKE AWAY            0005000006000000100P000000A
0202510002002190219545000000155SPIANATA PICCANTE                        0000000006000000100P000000A
0202600002001490215612000000155GORGONZOLA DOP IGOR                      0000000006000000100P000000A
0202620002001490213780000000155GORGONZOLA IGORCREME T.A.                0005000006000000100P000000A
0202640002001490215126000000155BRIE PRESIDENT                           0000000006000000100P000000A
0202720002002590215218000000155PROSCIUTTO COTTO CUORE D'ORO             0000000006000000100P000000A
0202780002001990216092000000155TOMA ALTA LANGA                          0000000006000000100P000000A
0202800002002090216094000000155ROBIOLA BOSINA                           0000000006000000100P000000A
0202810002001990216095000000155ROCCHETTA ALTA LANGA                     0000000006000000100P000000A
0203050002001490215645000000155SEIRASS                                  0000000006000000100P000000A
0203060002002190213782000000155IL CACIO NERO DI PIENZA T.A.             0010000006000000100P000000A
0203080002001990210349200000155GORG.DOP DOLCE KG.5 CA S/CROSTA ARRIGONI 0000000006000000100P000000A
0203100002001690215073000000155RACLETTE                                 0000000006000000100P000000A
0203110002001690213788000000155TOMA DI LANZO T.A.                       0005000006000000100P000000A
0203190002001390215643000000155RICOTTA AL FORNO LIMONE                  0000000006000000100P000000A
0203220002001090216114000000155RICOTTA SARDA                            0000000006000000100P000000A
0203310002001990216296000000155LARDO DI ARNAD DOP                       0000000006000000100P000000A
0203330002001690213962000000155RICOTTA SALATA TESTA MORO                0010000006000000100P000000A
0203400002001690210000400000155SARDO FRESCO                             0000000006000000100P000000A
0203420002000399210026600000155TOMINO FRESCO G.340 CONRADO              0000000006000000100M000000A
0203450002001890210323800000155BRA DURO DOP KG.7 CA                     0000000006000000100P000000A
0203520002001890210323900000155BRA DURO DOP T.A.                        0005000006000000100P000000A
0203550002001990215108000000155FONTINA AOSTA DOP                        0000000006000000100P000000A
0203570002001390215143000000155ASIAGO DOP                               0000000006000000100P000000A
0203610002001590219964000000155FIOR DI GORG.DOP QUATTROROSE TAKE AWAY   0005000006000000100P000000A
0203690002001890215603000000155FETA GRECA                               0000000006000000100P000000A
0203700002001890212054000000155EMMENTALER SVIZZERO DOP                  0000000006000000100P000000A
0203710002001490215151000000155LEERDAMMER                               0000000006000000100P000000A
0203740002001490213790000000155LEERDAMMER T.A.                          0005000006000000100P000000A
0203780002000690210337200000155GUANCIALE NAZIONALE FONDINO COATI        0010000006000000100P000000A
0203790002001790215855000000155RASCHERA LATTE CRUDO DOP                 0000000006000000100P000000A
0203880002001490210156600000155PROVOLA BIANCA                           0000000006000000100P000000A
0203890002001490210156200000155PROVOLA BIANCA T.A.                      0005000006000000100P000000A
0204100002001670215833000000155TOMA PIEMONTE DOP                        0000000006000000100P000000A
0204200002002490214602000000155FORMAGGIO DI CAPRA AMALATTEA             0000000006000000100P000000A
0204210002002490213785000000155FORMAGGIO DI CAPRA AMALATTEA T.A.        0005000006000000100P000000A
0204310002001690210329200000155FOCACCIA AL FORMAGGIO                    0000000006000000100P000000A
0204320002001490214600000000155RICOTTA CAPRA                            0000000006000000100P000000A
0204370002002090215138000000155PROV.SPICCHIO CLAS.AUR.5 KG              0000000006000000100P000000A
0204380002002090214848000000155PROVOLONE PICCANTE AURICCHIO T.A.        0010000006000000100P000000A
0204410002002590210301700000155PANC.COTTA GIOVANNA KG.4,5 CA ARR.TA CAP 0000000006000000100P000000A
0204420002000399210355500000155CAMEMBERT G.250 3B LATTE                 0000000006000000100M000000A
0204430002002990210026200000155ROAST BEEF ALL'INGLESE                   0000000006000000100P000000A
0204440002002290215384000000155FIORETTO SARDO                           0000000006000000100P000000A
0204450002002590219647000000155PEC.FIORE SARDO DOP T.A.                 0010000006000000100P000000A
0204470002001990210355600000155PRIMOSALE CAPRA G.200 CA 3B LATTE        0000000006000000100P000000A
0204530002000339210115700000155PANE FRESCO COMUNE 00 - CARNERINI        0000000012000000100P000000A
0204630002001990210373700000155SALATINI ASSORTITI KG.4 BONCHEF          0001000006000000100P000000A
0204860002002390215132000000155PECORINO ROMANO                          0000000006000000100P000000A
0204960002001390210140100000155PANETTONE GENOV.BASSO C/GOCCE CIOCC      0030000006000000100P000000A
0204970002001390210141100000155PANETTONE GENOV.BASSO C/FRUTTA SECC      0030000006000000100P000000A
0205020002002790210340100000155CARPACCIO BRES.PA 1/2 SV KG.2,5 CA RIGAM 0000000006000000100P000000A
0205030002001490210339800000155FONDINO CARPACCIO BRESAOLA RIGAMON       0010000006000000100P000000A
0205050002001490215378000000155TZATZIKI                                 0000000006000000100P000000A
0205080002003190210373200000155CARNE SALADA 1/2 SV KG.2,5 CA SOSIO      0000000006000000100P000000A
0205090002002590215382000000155PECORINO FIORE SARDO DOP                 0000000006000000100P000000A
0205110002001290210373300000155CARNE SALADA SOSIO FONDINO               0010000006000000100P000000A
0205580002002190214444000000155TOMA MONTE CORNA KG.3,5 CA               0000000006000000100P000000A
0205590002002190214470000000155FORM.MONTE CORNA TAKE AWAY               0005000006000000100P000000A
0206020002001990218701000000155SPIANATA PICCANTE TAKE AWAY              0010000006000000100P000000A
0206050002001790215856000000155RASCHERA DOP T.A.                        0005000006000000100P000000A
0206080002000490218757000000155CROSTE DI FORMAGGIO                      0015000006000000100P000000A
0206090002001490219597000000155MORTADELLA GRANROSA                      0000000006000000100P000000A
0206110002001490210332900000155MORT.GRAN ROSA C/PIST.TRANCIO T.AWAY     0010000006000000100P000000A
0206130002000790210333100000155FONDINO MORT.GRAN ROSA C/PIST.           0010000006000000100P000000A
0206330002001690210373400000155SALAME COTTO ½ SV KG.1,8 CA BRIZIO       0000000006000000100P000000A
0206340002000845210373500000155SALAME COTTO BRIZIO FONDINO              0010000006000000100P000000A
0206350002002290210383400000155PORCHETTA DI ARICCIA IGP                 0005000006000000100P000000A
0206360002000990210383500000155PORCHETTA FONDINO                        0010000006000000100P000000A
0206390002001490214310000000155CACIOTTA BRUGNATO T.A.                   0005000006000000100P000000A
0206400002001990210384800000155FORM.CAPRA BAITA BOTALLA TA              0005000006000000100P000000A
0206410002001990210384700000155FORM.CAPRA BAITA KG.2 CA BOTALLA         0000000006000000100P000000A
0206660002001199210373900000155FOCACCIA LIGURE BASKO                    0000000010000000100P000000A
0206670002001299210388500000155FOCACCIA LIGURE C/CIPOLLA BASKO          0000000010000000100P000000A
0207010002003490210074400000155PROSCIUTTO CRUDO PARMA 15-16 MESI        0000000006000000100P000000A
0207230002001390218334000000155FARINATA                                 0000000010000000100P000000A
0207250002001790210352500000155PANCETTA BACON 1/2 KG.1,5 CA GASSER      0000000006000000100P000000A
0207260002001750210352600000155PANCETTA BACON GASSER TRANCIO            0010000006000000100P000000A
0207270002000890210352700000155PANCETTA BACON GASSER FONDINO            0010000006000000100P000000A
0207320002001590210131300000155CRUDO FONDINO DEVODIER S/O T.A.          0010000006000000100P000000A
0207330002001590210131400000155CRUDO FONDINO CAPANNA C/O                0010000006000000100P000000A
0207340002001590210131600000155CRUDO FONDINO CAPANNA                    0010000006000000100P000000A
0207350002001690210131700000155CRUDO FONDINO S.DANIELE C/O              0010000006000000100P000000A
0207370002000995210241200000155FONDINO FIOCCO VALTELL.PEDRANZINI        0010000006000000100P000000A
0208020002000690218340000000155CROSTATA ALLA CONFETT.DI FRUT.BOSCO      0035000006000000100P000000A
0208050002000690217937000000155CROSTATA DI CONFETTURA DI ALBICOC.       0035000006000000100P000000A
0208180002002390213784000000155MORO DI SARDEGNA T.A.                    0010000006000000100P000000A
0208190002000990213777000000155CACIOTTA BOSCO GEROLO T.A.               0005000006000000100P000000A
0208280002001499214680000000155PIZZA MARGHERITA CON OLIVE               0000000010000000100P000000A
0208290002001690216127000000155SARDO FRESCO                             0000000006000000100P000000A
0208300002001690214919000000155SARDO FRESCO T.A.                        0005000006000000100P000000A
0208320002002590214828000000155SALAME GOLFETTA                          0000000006000000100P000000A
0208510002002990210269700000155PROSC.SERRANO S/O KG.5 CA ET.ORO 12M     0000000006000000100P000000A
0208540002001090210199300000155FONDINO CIMA GENOVESE CIMMA ZENEISE      0010000006000000100P000000A
0208670002002190217810000000155CIMA GENOVA CIMMA ZENEISE T.A.           0010000006000000100P000000A
0208720002001790217733000000155GRANA PADANO DOP T.A.                    0015000002000000100P000000A
0208730002001990217732000000155PARMIGIANO  REGGIANO DOP T.A.            0015000002000000100P000000A
0208750002002490210107300000155PARMIGIANO REGGIANO DOP 30 MESI T.A.     0015000002000000100P000000A
0208770002000990217746000000155FONTAL TAKE AWAY                         0005000006000000100P000000A
0208790002002090210107200000155GRANA PADANO DOP 20 MESI T.A.            0015000002000000100P000000A
0208940002002290219223000000155FIORETTO SARDO T.A.                      0010000006000000100P000000A
0208950002002390217742000000155PECORINO ROMANO DOP T.A.                 0010000006000000100P000000A
0208970002001890217740000000155EMMENTALER SVIZZERO DOP                  0005000006000000100P000000A
0208980002001990217738000000155FONTINA AOSTA DOP T.A.                   0005000006000000100P000000A
0208990002001390217745000000155ASIAGO DOP T.A.                          0005000006000000100P000000A
0209010002001990217809000000155ROCCHETTA T.A.                           0000000006000000100P000000A
0209020002001990217806000000155TOMA ALTA LANGA T.A.                     0000000006000000100P000000A
0209030002002090217808000000155ROBIOLA BOSINA T.A.                      0000000006000000100P000000A
0209060002002990210372700000155PR.COTTO AQ DELIZIA KG.10,5 CA RIGAMONTI 0000000006000000100P000000A
0209080002001090210372800000155PR.COTTO AQ DELIZIA RIGAMONTI FONDINO    0010000006000000100P000000A
0209120002000890217791000000155CRUDO FONDINO                            0010000006000000100P000000A
0209150002002090217728000000155BRESAOLA FONDINO RIGAMONTI ORO           0010000006000000100P000000A
0209170002000750217821000000155FONDINO PANCETTA PIACENTINA DOP          0010000006000000100P000000A
0209180002001090217815000000155FONDINO GRAN FESA TACCHINO NAZIONALE     0010000006000000100P000000A
0209200002001190217831000000155SPECK FONDINO                            0010000006000000100P000000A
0209210002001290217787000000155LINGUA FONDINO TAKE AWAY                 0010000006000000100P000000A
0209220002002490212272000000155PARMIGIANO  REGGIANO DOP 30 MESI         0000000006000000100P000000A
0209250002003490213205000000155BOCCONCINI POLIPO                        0000000006000000100P000000A
0209290002001490210265400000155LARDO NAZIONALE                          0000000006000000100P000000A
0209380002000790210328600000155FONDINO LARDO NAZION.PERNIGOTTI          0010000006000000100P000000A
0209400002000790210392200000155RICOTTA KG.1,5 CA F.LLI CAVANNA          0000000006000000100P000000A
0209410002002490210391700000155CAPRELLA G.240 CA F.LLI CAVANNA          0000000006000000100P000000A
0209420002001590210391800000155STAFFORELLA G.550 CA F.LLI CAVANNA       0000000006000000100P000000A
0209430002001590210391900000155STAFFORELLA F.LLI CAVANNA T.A.           0005000006000000100P000000A
0209520002001290218713000000155FONDINO COTTO CUORE D'ORO                0010000006000000100P000000A
0209530002001590214314000000155CRUDO FONDINO DEVODIER  T.A.             0010000006000000100P000000A
0209670002000099210180200000155CORNETTO ARTIG.VUOTO  MAESTRO            0000000006000000100M000000A
0209680002000099210180300000155CORNETTO ARTIG.ALBIC.MAESTRO             0000000006000000100M000000A
0210000002001199210392100000155CROSTINO FOCACCIA LIGURE                 0015000010000000100P000000A
0210120002001290210346100000155COTECHINO CON LENTICCHIE                 0003000020000000100P000000A
0210450002001690219783000000155TALEGGIO CADEMARTORI DOP................ 0000000006000000100P000000A
0210460002001690212720000000155TALEGGIO  CADEMARTORI  T.A.              0005000006000000100P000000A
0210470002001990218934000000155TORTA DI ANANAS                          0012000006000000100P000000A
0210520002000339218299000000155PANE FRERSCO TIPO 00 - PUGLIESE          0000000012000000100P000000A
0210530002000399218300000000155PANE FRESCO TIPO INTEGRALE - INTEGRALE   0000000012000000100P000000A
0210540002000429218301000000155PANE FRESCO TIPO 0 - PANE MULTICEREALI   0000000012000000100P000000A
0210550002000359218302000000155PANE FRESCO DI SEMOLA                    0000000012000000100P000000A
0210570002000359218304000000155PANE FRESCO DI SEMOLA - MAFALDE          0000000012000000100P000000A
0210590002000339218306000000155PANE FRESCO TIPO 00 - PAPERE             0000000012000000100P000000A
0210600002000399211716000000155PANE FRESCO TIPO 00 CON STRUT.-PAN.OLIO  0000000012000000100P000000A
0210620002000459218309000000155PANE FRESCO TIPO 0 CON STRUTTO-MARINARE  0000000012000000100P000000A
0210640002000339218311000000155PANE FRESCO TIPO 00 - BAGUETTE           0000000012000000100P000000A
0210650002000319218312000000155PANE FRESCO TIPO 00 - CIABATTE           0000000012000000100P000000A
0210690002000399218316000000155PANE FRESCO TIPO 00 - PANE ARABO         0000000012000000100P000000A
0210740002000320218321000000155PANE FRESCO TIPO 00 - CASERECCIO         0000000012000000100P000000A
0210750002000319218322000000155PANE FRESCO TIPO 00 - SFILATINI          0000000012000000100P000000A
0210780002000339218325000000155PANE FRESCO TIPO 00 CON STRUTTO - TRECCE 0000000012000000100P000000A
0210790002000399218326000000155PANE FRESCO TIPO 00 - TARTARUGA          0000000012000000100P000000A
0210830002001349219626000000155PIZZETTE                                 0000000010000000100P000000A
0210860002000399219825000000155PASTA PER PIZZA                          0000000006000000100P000000A
0210930002001499218341000000155PIZZA                                    0000000010000000100P000000A
0210950002001199218331000000155FOCACCIA ALL'OLIO                        0000000010000000100P000000A
0210960002001299218332000000155FOCACCIA CON CIPOLLA                     0000000010000000100P000000A
0210970002001399218343000000155FOCACCIA VERDURE                         0000000010000000100P000000A
0210980002001499218333000000155FOCACCIA CON FORMAGGIO.                  0000000010000000100P000000A
0210990002001490218344000000155FOCACCIA SPEC.AI CICCIOLI                0000000006000000100P000000A
0211180002001990217393000000155TORTA DI MELE                            0012000006000000100P000000A
0211210002000990217396000000155PANDOLCE GENOVESE BASSO                  0030000006000000100P000000A
0211230002001990217398000000155PLUM CAKE                                0020000006000000100P000000A
0211250002002190217400000000155VENTAGLI                                 0012000006000000100P000000A
0211260002002190217401000000155STRUDEL                                  0012000006000000100P000000A
0211280002001690217403000000155CANESTRELLI                              0030000006000000100P000000A
0211310002002190217406000000155DIPLOMATICHE                             0006000006000000100P000000A
0211360002002190217418000000155CROSTATA FRUTTA FRESCA                   0003000006000000100P000000A
0211410002002190217414000000155TORTA SACHER                             0015000006000000100P000000A
0211430002002190217385000000155TORTE FRUTTA FRESCA                      0003000006000000100P000000A
0211500002001499210029400000155PIZZA AL TONNO                           0000000010000000100P000000A
0211520002001499210029600000155PIZZA POMODORO E OLIVE NERE              0000000010000000100P000000A
0211950002002190210321800000155SFOGLIATELLE AL LIMONE                   0030000006000000100P000000A
0212170002002190210321900000155SFOGLIATELLE ALLA GIANDUJA               0030000006000000100P000000A
0212270002002190210322200000155SFOGLIATELLE ALLO ZABAIONE               0030000006000000100P000000A
0212330002002190210322500000155CONO SFOGLIA ALLA PANNA                  0003000006000000100P000000A
0212420002001650210265600000155GUANCIALE NAZIONALE KG.1 CA SV COATI     0000000006000000100P000000A
0212430002001490219073000000155SCIMUDIN T.A.                            0005000006000000100P000000A
0212690002002190210322600000155CONO SFOGLIA PANNA/PISTACCHIO            0003000006000000100P000000A
0212740002000380210199200000155PATATE MC CAIN                           0000000006000000100P000000A
0212820002001780219306000000155CASTAGNACCIO                      .      0000000006000000100P000000A
0213110002003690215428000000155BRESAOLA IGP RIGAMONTI                   0000000006000000100P000000A
0213410002001590210265700000155GUANCIALE NAZIONALE TRANCIO COATI        0010000006000000100P000000A
0213480002001190210183900000155CACIOTTA 100% VACCA BRUNA                0000000006000000100P000000A
0213490002001190210184900000155CACIOTTA 100% VACCA BRUNA T.A.           0005000006000000100P000000A
0213620002002190210181200000155PASTICCERIA MISTA                        0000000006000000100P000000A
0213660002002590210183400000155FIOCCO DI NEVE                           0000000006000000100P000000A
0213670002002590210180800000155FIOCCO DI NEVE T.A.                      0000000006000000100P000000A
0213800002002690210258300000155COPPA PARMA IGP                          0000000006000000100P000000A
0213890002001490210167900000155PRIMO SALE PIST.VACCA BRUNA              0000000006000000100P000000A
0213900002001290210349500000155COPPA FONDINO BOSCHI                     0010000006000000100P000000A
0214090002002290210310500000155SALAME MILANO LENTA STAGIONATURA         0000000006000000100P000000A
0214100002000895210312800000155FOND.PR.COTTO SC.PRAGA REGALE SENFTER    0010000006000000100P000000A
0214110002001990210312900000155TRANCIO PR.COTTO SC.PRAGA REGALE SENFTER 0010000006000000100P000000A
0214120002001045210313800000155SALAME MILANO LENTA STAGIONATURA         0010000006000000100P000000A
0214160002002090218700000000155PANCETTA PIACENTINA TRANCIO DOP 1/2 S.V. 0010000006000000100P000000A
0214310002001290210291300000155PECORINO MOLITERNO KG.5,5 CA CENTRAL     0005000006000000100P000000A
0214500002000990215158000000155FORM FONTAL FORMA              (099      0000000006000000100P000000A
0214530002001690210024700000155SCAMORZA AFFUMICATA T.A.                 0005000006000000100P000000A
0214560002001690210024800000155SCAMORZA BIANCA T.A.                     0005000006000000100P000000A
0214700002001690210190700000155MORBIDO BAITA                            0000000006000000100P000000A
0214710002001690210190900000155MORBIDO BAITA T.A.                       0005000006000000100P000000A
0214730002000459210177200000155PANE FRESCO tipo '00' BOCC. MORB. LATTE  0000000012000000100P000000A
0214800002001090219047000000155CACIOTTA FIORITA                         0000000006000000100P000000A
0215180002001390210222500000155TRANCIO PROSCIUTTO COTTO PRIMIA          0010000006000000100P000000A
0215210002002590214319000000155FORM.CAPRITILLA T.A.                     0005000006000000100P000000A
0215320002001990210239700000155FIOCCO DELLA VALTELLINA                  0000000006000000100P000000A
0215430002002990210242700000155GIRELLO BOVINO KG.2,5 CA BRIZIO          0000000006000000100P000000A
0215440002001390210242800000155FONDINO GIRELLO RUTUNDA COTTO BRIZIO     0010000006000000100P000000A
0215640002001090219082000000155CACIOTTA FIORITA T.A.                    0005000006000000100P000000A
0215660002001390219809000000155BEL PAESE TAKE AWAY.                     0005000006000000100P000000A
0215750002001399218822000000155FOCACCIA AL POMODORO                     0000000010000000100P000000A
0216430002001190210195500000155PATATE AL FORNO                          0000000006000000100P000000A
0216610002001490218736000000155FORM.PUZZONE T.A.                        0005000006000000100P000000A
0217210002001490213778000000155QUARTIROLO  DOP T.A.                     0005000006000000100P000000A
0217430002001670218755000000155TOMA PIEMONTESE DOP T.A.                 0005000006000000100P000000A
0218080002001490213291000000155FOCACCIA FORMAGGIO DOPPIO STRATO.        0000000010000000100P000000A
0218120002001690210015800000155SCAMORZA BIANCA                          0005000006000000100P000000A
0218130002001690210018700000155SCAMORZA AFFUMICATA                      0000000006000000100P000000A
0218230002001490219807000000155QUARTIROLO LOMBARDO DOP                  0000000006000000100P000000A
0218670002002290213878000000155CIMA ALLA GENOVESE                       0000000006000000100P000000A
0218740002001290210214400000155BACIO DI BRUNA                           0000000006000000100P000000A
0218830002001890210180400000155PROSCIUTTO COTTO LENTA COTTURA COATI.    0000000006000000100P000000A
0218840002000895216664000000155FONDINO PR.COTTO A.Q.LENTA COTTURA COATI 0010000006000000100P000000A
0218850002001790210354700000155STRACCIATELLA DELIZIOSA                  0000000006000000100P000000A
0218860002000299211141800000155BURRATINA AFFUMICATA G.125 DELIZIOSA     0000000006000000100M000000A
0218870002000399210692700000155BURRATA  G.250 DELIZIOSA                 0000000006000000100M000000A
0219060002003790210082900000155PROSC.CR.S.DANIELE DOP RUSTICO KG.7,5 CA 0000000006000000100P000000A
0219080002003990210217200000155BRESAOLA PUNTA D'ANCA                    0000000006000000100P000000A
0219090002001990210218400000155FONDINO BRESAOLA STOR.P.ANCA BORDONI     0010000006000000100P000000A
0219170002001690219813000000155FORM.RACLETTE TAKE AWAY                  0005000006000000100P000000A
0219210002002580210292400000155BRESAOLA P.A.ANGUS 1/2 KG.1,8 CA SV RIGA 0000000006000000100P000000A
0219630002002190219830000000155SALAME DOLCE ALBICOCCA                   0012000006000000100P000000A
0219640002002190219831000000155BIGNE MISTI                              0003000006000000100P000000A
0219650002002190219832000000155ZEPPOLE.                                 0003000006000000100P000000A
0219660002001990210733400000155PECORINO BRIGANTE KG.1,5 CA PINNA        0000000006000000100P000000A
0219670002001990210268500000155PECORINO BRIGANTE T.AWAY PINNA           0010000006000000100P000000A
0219710002000690217779000000155FONDINO COTTO PRIMIA                     0010000006000000100P000000A
0219790002001090219867000000155RICOTTA MAREMMA KG.1,5                   0000000006000000100P000000A
0219890002000439210196600000155FILONE LIEV.NAT.G.500 CA GRANFORNO       0001000014000000100P000000A
0219900002000439210196700000155CIAMBELLA LIEV.NAT.G.500 CA GRANFORNO    0001000014000000100P000000A
0219910002000599210351700000155PANE DA TAGLIO CLASSICO KG.2 CA          0001000000000000100P000000A
0219920002000599210351800000155PANE DA TAGLIO INTEGRALE KG.2 CA         0001000000000000100P000000A
0219930002000649210351900000155PANE DA TAGLIO SEMOLA INTEGRALE KG.2 CA  0001000000000000100P000000A
0219940002000649210352100000155PANE DA TAGLIO FARINA MAC.PIETRA KG.2 CA 0001000000000000100P000000A
0219990002000649210352200000155PANE DA TAGLIO CEREALI KG.2 CA           0001000000000000100P000000A
0220200002001149214281000000155FOCACCIA CON OLIVE 40X30 (SG)            0000000010000000100P000000A
0220300002001490218707000000155BRIE PRESIDENT  T.A.                     0005000006000000100P000000A
0220310002001890219955000000155MOSTARDA DI VOGHERA KG.5,6 ASS.TA.       0000000006000000100P000000A
0220320002001690218429000000155GORGONZOLA C/ MASCARPONE                 0000000006000000100P000000A
0220380002001690214316000000155GORGONZOLA C/ MASCARPONE.T.A.            0005000006000000100P000000A
0220840002001590210107500000155IL TOMINO 100% LATTE LIGURE/PIEMONT T.A. 0005000006000000100P000000A
0220950002001245210320200000155PROSC.COTTO GRAN TENERONE FONDINO        0010000006000000100P000000A
0221040002001990214322000000155FORMAGGIO SAN STE' T.A.                  0005000006000000100P000000A
0221250002003490211202000000155PROSCIUTTO CRUDO PARMA 15-16 MESI        0000000006000000100P000000A
0221500002001990210162500000155TOMA AL PEPERONCINO  BOTALLA             0000000006000000100P000000A
0221650002000995210133700000155FONDINO PANCETTA COPPATA                 0010000006000000100P000000A
0221840002001990210312200000155PROSCIUTTO COTTO PRAGA REALE             0000000006000000100P000000A
0221960002001490210302500000155NOSTRANO DI BRUNA                        0000000006000000100P000000A
0221970002001490210304500000155NOSTRANO DI BRUNA T.AWAY MADONNA NEVE    0005000006000000100P000000A
0222010002001295210132500000155FONDINO ROAST BEEF                       0010000006000000100P000000A
0222030002000820210132700000155FONDINO SPIANATA PICCANTE                0010000006000000100P000000A
0222040002001290210132800000155FONDINO SALAME GOLFETTA                  0010000006000000100P000000A
0222050002000890210132900000155FONDINO SALAME S.OLCESE                  0010000006000000100P000000A
0222060002000845210133200000155FONDINO SALAME COTTO BRIZIO              0010000006000000100P000000A
0222070002001490210133300000155FONDINO COTTO GRAN BISCOTTO              0010000006000000100P000000A
0222080002001190210133400000155FONDINO COTTO STELLA NEGRONI             0010000006000000100P000000A
0222120002000890210134700000155FONDINO MORTADELLA FAVOLA                0010000006000000100P000000A
0222130002000790210134400000155FONDINO LARDO                            0010000006000000100P000000A
0222250002001690211762000000155SAL.T.CONTAD. G.400 C.A.S.V.PRIMIA       0000000006000000100P000000A
0222260002002390211763000000155SALAME MINI JOLLY PRIMIA                 0000000006000000100P000000A
0222270002001690210115800000155SAL.PIC-NIC G.250 C.A.S.V. PRIMIA        0000000006000000100P000000A
0222310002000699211316900000155MOZZ.BUFALA ARTIGIANALE DOP G.500        0000000006000000100M000000A
0222320002001490210308200000155IL FORM.CONTAD.KG.2 CA 100% LATTE PIEMON 0000000006000000100P000000A
0222330002001490210302900000155IL FORM.CONTAD.TAWAY 100% LATTE PIEMON   0005000006000000100P000000A
0222340002002390210086900000155SALAME MINI JOLLY T.A.                   0000000006000000100P000000A
0222520002001690211861000000155TOMA DI LANZO                            0000000006000000100P000000A
0223020002001149213418000000155FOCACCIA C/POMODORINI 40X30 (SG.)        0000000010000000100P000000A
0223050002001099210058900000155FOCACCIA ORIGINALE(40X30) CT KG2,5       0000000010000000100P000000A
0223060002001149213458000000155FOCACCIA C/CIPOLLA 40X30 (SG.)           0000000010000000100P000000A
0223350002000900210275600000155CACIOTTA NATURALE G.350 CA LATT.PIEVETTA 0005000006000000100P000000A
0223360002000900210275800000155CACIOTTA ROSMAR.G.350 CA LATT.PIEVETTA   0005000006000000100P000000A
0223370002000900210275700000155CACIOTTA PEPERONC.G.350 CA PIEVETTA      0005000006000000100P000000A
0223750002002390215975000000155MORO DI SARDEGNA                         0000000006000000100P000000A
0224120002000099210121800000155DONUTS MIX FARCITI                       0001000006000000100M000000A
0224230002000099212366000000155TRIFOGLIO G.90                           0000000006000000100M000000A
0224240002000099212367000000155CORNETTO ELITE NOCC/CACAO GR.85          0000000006000000100M000000A
0224690002002190212487000000155PECORINO CACIO NERO DI PIENZA            0000000006000000100P000000A
0224840002002090214933000000155PANCETTA PIACENTINA DOP                  0000000006000000100P000000A
0224850002001398215494000000155PROSC.COTTO CA' VERDE                    0008000006000000100P000000A
0225020002000990212553000000155CACIOTTA BOSCO GEROLO                    0000000006000000100P000000A
0225180002001950216260000000155SALAME S.OLCESE                          0025000006000000100P000000A
0225190002001390212484000000155TESTA IN CASSETTA S.OLCESE               0000000006000000100P000000A
0225210002002590212594000000155CAPRITILLA                               0000000006000000100P000000A
0225470002001790214534000000155SPECK LAURIN                             0000000006000000100P000000A
0225610002000600210199400000155FONDINO TESTA IN CASSETTA GIG.           0010000006000000100P000000A
0225620002002290210170900000155SALAME CONTADINO                         0000000006000000100P000000A
0225630002000995210207200000155FONDINO SALAME CONTADINO CAV.            0010000006000000100P000000A
0225880002002590212884000000155PROSC.TOSC.DOP DIS.ADD.KG.8 C.A.         0000000006000000100P000000A
0226180002002190213626000000155BABA'                                    0003000006000000100P000000A
0226480002003190212464000000155COTTO SAN GIOVANNI                       0000000006000000100P000000A
0226710002000198210117300000155CROISSANT ALBIC.C/ZUCC.2+1               0000000006000000100M000000A
0226730002000198210117800000155CROISSANT BURRO 2+1                      0000000006000000100M000000A
0226740002000198210118200000155FAGOTTINO CIOCCOLATO 2+1                 0000000006000000100M000000A
0226840002002190213227000000155CANNOLI CON CREMA VANIGLIA               0005000006000000100P000000A
0226850002002190213228000000155CANNOLI CON CREMA AL CIOCCOLATO          0010000006000000100P000000A
0226860002002190213229000000155CANNOLI CON CREMA DI ZABAIONE            0005000006000000100P000000A
0226990002001499213251000000155PIZZA FARCITA CON WURSTEL                0000000010000000100P000000A
0227000002001499213252000000155PIZZA FARCITA CON FUNGHI                 0000000010000000100P000000A
0227010002001499213253000000155PIZZA FARCITA CON VERDURE                0000000006000000100P000000A
0227020002001499213254000000155PIZZA FARCITA CON CARCIOFINI             0000000010000000100P000000A
0227070002001990213263000000155FAGOTTINO ANANAS                         0010000006000000100P000000A
0227080002001990213264000000155FAGOTTINO MELE                           0010000006000000100P000000A
0227140002003690213234000000155PROSCIUTTO CRUDO PARMA 20 MESI DEVODIER  0000000006000000100P000000A
0227190002003690213996000000155PROSCIUTTO CRUDO PARMA 20 MESI DEVODIER  0000000006000000100P000000A
0228780002000099210030300000155CROISSANT VUOTO                          0000000006000000100M000000A
0228790002000099210030400000155CROISSANT ALBICOCCA                      0000000006000000100M000000A
0228800002000099210030500000155CROISSANT NOCCIOLA/CACAO                 0000000006000000100M000000A
0228810002000099210030600000155CROISSANT CREMA PASTICCERA               0000000006000000100M000000A
0228820002000099210030700000155CROISSANT MIELE/5 CEREALI                0000000006000000100M000000A
0228830002000099210030800000155PAIN AU CHOCOLAT                         0000000006000000100M000000A
0228840002000099210030900000155GIOSTRINA CREMA-UVETTA                   0000000006000000100M000000A
0228850002000099210031200000155CIAMBELLA                                0000000006000000100M000000A
0228860002000099210031300000155KRAPFEN CREMA                            0002000006000000100M000000A
0228870002000099210385300000155MUFFIN CACAO                             0002000006000000100M000000A
0228880002000099210385400000155MUFFIN ALBICOCCA                         0002000006000000100M000000A
0228890002000099210031500000155DONUTS MIX SEMPLICI                      0000000006000000100M000000A
0228900002001499210046400000155PIZZA AL PESTO                           0000000010000000100P000000A
0228910002002190210046500000155NOCCIOLOTTI                              0020000006000000100P000000A
0229000002000099210362500000155MELANIA CREMA/MELA TRE MARIE             0002000006000000100M000000A
0229010002000099210362600000155DOLCEVITA CREMA TRE MARIE                0002000006000000100M000000A
0229240002000090210053400000155CROISSANT BURRO G.60 BRIDOR              0000000006000000100M000000A
0229250002000090210056500000155FAGOTTINO CIOCCOLATO G.80 BRIDOR         0000000006000000100M000000A
0229270002000099210052700000155CROISSANT ALBIC.C/ZUCC.G.90 BRIDOR       0000000006000000100M000000A
0229370002001690210077600000155GORGONZOLA L'ANGELO DOLCE DOP            0000000006000000100P000000A
0229380002001690210075900000155GORGONZOLA L'ANGELO DOLCE DOP T.A.       0005000006000000100P000000A
0229390002003690210077400000155PROSCIUTTO CRUDO PARMA 20 MESI DEVODIER  0000000006000000100P000000A
0229510002001490210049300000155INSALATA RUSSA                           0000000006000000100P000000A
0229520002001490210081600000155INSALATA RUSSA TONNO                     0000000006000000100P000000A
0229640002001690210241100000155FONTAL FONTEGIDIA                        0000000006000000100P000000A
0229650002001690210083700000155FONTAL FONTEGIDIA T.A.                   0005000006000000100P000000A
0229740002001990210098200000155TOMA GROTTA INVECCHIATA                  0000000006000000100P000000A
0229750002001990210098300000155TOMA GROTTA INVECCHIATA T.A.             0005000006000000100P000000A
0229780002002390210086500000155CAPRINO STAGIONATO CUOR DI CAPRA         0000000006000000100P000000A
0229790002002390210098600000155CAPRINO CUOR CAPRA T.A.                  0010000006000000100P000000A
0229960002000990210101900000155CRESCENZA IRENE                          0000000006000000100P000000A
0229980002001590210061800000155IL TOMINO 100% LATTE LIGURE/PIEMONTESE   0000000006000000100P000000A
0229990002000990210061300000155RICOTTA 100% LATTE LIGURE-PIEMONTESE     0000000006000000100P000000A
0230660002001490210213500000155PINSA BUFALA POMODORINI                  0000000010000000100P000000A
0230670002001490210213600000155PINSA GENOVA PESTO STRACCH. PATATE       0000000010000000100P000000A
0230680002002090210213700000155PINSA BRESAOLA RUCOLA GRANA              0000000010000000100P000000A
0230690002001490210213800000155PINSA COTTO STRACCHINO                   0000000010000000100P000000A
0230700002001690210213900000155PINSA CRUDO STRACCHINO                   0000000010000000100P000000A
0230760002002190210215200000155CAVOLINI ALLA PANNA                      0003000006000000100P000000A
0230770002001490210217600000155PINSA TONNO E CIPOLLE                    0000000010000000100P000000A
0230780002001590210217700000155PINSA GORGONZOLA E NOCI                  0000000010000000100P000000A
0230790002001199210218700000155CROSTINI OLIO                            0007000010000000100P000000A
0230860002001790210343100000155BUGIE RIP.NOCCIOLA KG.2 GRANFORNO        0030000010000000100P000000A
0230870002001690210680700000155BUGIE AL FORNO KG.2 GRANFORNO            0030000010000000100P000000A
0230880002001690210680800000155BUGIE RIP.FR.BOSCO KG.2 GRANFORNO        0030000010000000100P000000A
0230890002001690210680900000155BUGIE RIP.ALBICOCCA KG.2 GRANFORNO       0030000010000000100P000000A
0230930002001490210220200000155LASAGNE GIALLE AL FORNO T.AWAY           0003000020000000100P000000A
0230940002001690210220300000155MELANZANE ALLA PARMIGIANA T.AWAY         0003000020000000100P000000A
0231350002001300214998000000155PANSOTI AL SUGO DI NOCI                  0002000026000000100P000000A
0231360002001300214999000000155TROFIE AL PESTO                          0002000026000000100P000000A
0231710002002290210221800000155COTOLETTA DI POLLO T.AWAY                0003000036000000100P000000A
0232650002001690210234600000155TORTA PASQUALINA                         0000000006000000100P000000A
0232660002001690210235200000155TORTA PASQUALINA T.AWAY                  0003000006000000100P000000A
0232670002001249210233400000155FOCACCINA                                0000000010000000100P000000A
0232700002001490210918500000155INSALATA di NERVETTI                     0000000006000000100P000000A
0232730002002990210918600000155FILETTI di ACCIUGHE AL VERDE             0000000006000000100P000000A
0232740002003090210234900000155INSALATA DI MARE                         0000000006000000100P000000A
0232750002001490210918700000155SEMOLINO FRITTO                          0000000006000000100P000000A
0232760002002090210237700000155PATATE CHIPS                             0000000006000000100P000000A
0232770002002090210237800000155PATATE CHIPS T.AWAY                      0000000008000000100P000000A
0232810002001490210238600000155FRITTATE ERBETTE                         0006000006000000100P000000A
0232820002001590210239200000155POLPETTONE ALLA LIGURE                   0006000006000000100P000000A
0232850002001490210238700000155FRITTATE ERBETTE T.AWAY                  0003000006000000100P000000A
0232860002001590210239300000155POLPETTONE alla LIGURE T.AWAY            0003000006000000100P000000A
0232870002000299212267600000155INVOLTINO PROSC.COTTO/RUSSA              0000000006000000100M000000A
0233180002002190210249200000155TIRAMISU'                                0010000006000000100P000000A
0233190002002190210249300000155BIGNE'CREMA CHANTILLY                    0003000006000000100P000000A
0233200002001490210601800000155POMODORI SECCHI CONDITI                  0000000006000000100P000000A
0233350002000469210253800000155PANE SEGALE LIEVITO NATURALE             0001000014000000100P000000A
0233360002000469210254200000155PANE SEMOLA INT.LIEV.NAT                 0001000014000000100P000000A
0233390002001790210255300000155CONTORNI MISTI GRATINATI                 0000000006000000100P000000A
0233400002001790210255400000155CONTORNI MISTI GRATINATI TA              0003000020000000100P000000A
0233480002000559210226600000155FILONE FARINA '2' G.350 CA BASKO         0001000014000000100P000000A
0233510002000829210227300000155PANE FICHI/NOCI G.350 CA BASKO           0001000014000000100P000000A
0233570002000659210226700000155FILONE ANTIQUA G.350 CA BASKO            0001000014000000100P000000A
0233580002000659210226800000155FIL.ANTIQUA INT.G.350 CA BASKO           0001000014000000100P000000A
0233590002000490210226900000155PAGNOTTA F.MAIS G.350 CA BASKO           0001000014000000100P000000A
0233600002000659210227200000155FILONE F.SEGALE G.350 CA BASKO           0001000014000000100P000000A
0233850002005990210258500000155SALMONE SCOZIA T.AWAY                    0002000006000000100P000000A
0233870002000199210266500000155SCHIACCIATA ROMANA CLASSICA g.220        0000000006000000100M000000A
0233900002000119210267400000155CIABATTA RUSTICA g.250                   0000000012000000100M000000A
0233920002000105210730200000155BAGUETTE CEREALI                         0000000012000000100M000000A
0234260002002190210269900000155CANNOLINI SICILIANI                      0003000006000000100P000000A
0234270002002190210270300000155CANNOLINI SICILIANI C/GOCCE CIOCCOLATO   0003000006000000100P000000A
0234280002002190210270400000155CANNOLINI SICILIANI C/FRUTTA CANDITA     0003000006000000100P000000A
0234290002002190210271600000155SALAME DOLCE CIOCCOLATO                  0007000006000000100P000000A
0234300002002190210271900000155CANNOLINI SICILIANI MISTI                0003000006000000100P000000A
0234310002002190210272200000155TAZZINE AL CIOCCOLATO TIRAMISU'          0010000006000000100P000000A
0234350002002190210272600000155TAZZINE AL CIOCCOLATO                    0003000006000000100P000000A
0234380002002290210277200000155PANNA COTTA                              0010000006000000100P000000A
0234390002002290210277300000155PANNA COTTA FRUTTI DI BOSCO              0010000006000000100P000000A
0234400002002290210277400000155MOUSSE AL CIOCCOLATO                     0010000006000000100P000000A
0234410002000299210280400000155PASTE MELIGA G.300 QUALITA' BASKO        0015000012000000100M000000A
0234420002000319210280500000155BACI DAMA CACAO G.180 BURRO QUALITA' BAS 0015000012000000100M000000A
0234430002000379210280700000155BRUTTI E BUONI G.160 QUALITA'BASKO       0015000012000000100M000000A
0234440002000319210280800000155TORCETTI G.250 NO PALMA QUALITA' BASKO   0015000012000000100M000000A
0234450002000324210280600000155BACI DAMA G.180 QUALITA' BASKO           0015000012000000100M000000A
0234940002000129210267300000155FOCACCINA ALLE PATATE                    0000000012000000100M000000A
0235150002000399210291600000155IMPASTO PANE DI TIPO  INTEGRALE          0000000006000000100P000000A
0235190002002190210295300000155MERINGATA PANNA E FR.DI BOSCO            0003000006000000100P000000A
0235490002000319210303200000155PANE FRESCO tipo 00-CIABATTINA           0000000012000000100P000000A
0235580002000099211223100000155CROISSANT VEGANO VUOTO TRE MARIE         0000000006000000100M000000A
0235590002000099211223200000155CROISSANT VEGANO ALBIC.TRE MARIE         0000000006000000100M000000A
0235600002000099211223300000155CROISSANT VEGANO RIB/MEL TRE MARIE       0000000006000000100M000000A
0235810002001290210330100000155PINSA MARGHERITA                         0000000010000000100P000000A
0235820002001490210330200000155PINSA CON FUNGHI                         0000000010000000100P000000A
0235830002001490210330300000155PINSA CON CARCIOFI                       0000000010000000100P000000A
0235840002001490210330400000155PINSA CON VERDURE                        0000000010000000100P000000A
0235850002001490210330500000155PINSA CON WURSTEL                        0000000010000000100P000000A
0238030002001990210352800000155CROSTATA ALBICOCCA KG.1 CA BASKO         0010000006000000100P000000A
0238040002001990210352900000155CROSTATA FRUTTI BOSCO KG.1 CA BASKO      0010000006000000100P000000A
0238050002001990210353100000155CROSTATA CIOCCOLATO KG.1 CA BASKO        0010000006000000100P000000A
0238980002001990210345800000155GIRASOLI INTRECCIATI KG.2                0030000014000000100P000000A
0238990002001990210345900000155TRECCINE PIZZAIOLE KG.4                  0030000014000000100P000000A
0239000002000065210325700000155CROISSANT MIDI NOCC./CACAO TRE MARIE     0000000006000000100M000000A
0239010002000065210325800000155CROISSANT MIDI VUOTO TRE MARIE           0000000006000000100M000000A
0239020002001690210347600000155BUGIE RICCIOLINE KG.2                    0030000014000000100P000000A
0239030002000099210340300000155BAGUETTE                                 0000000006000000100M000000A
0239040002001690210347700000155BUGIE RIP.ALBICOCCA KG.2                 0030000014000000100P000000A
0239050002001690210347800000155BUGIE RIP.FRUTTI BOSCO KG.2              0030000014000000100P000000A
0239060002001690210347900000155BUGIE RIP.CREMA NOCCIOLA KG.2            0030000014000000100P000000A
0239070002001199214831000000155FOCACCIA INTEGRALE                       0000000010000000100P000000A
0239080002001199214832000000155FOCACCIA SEMOLA                          0000000010000000100P000000A
0239880002001990210617800000155MINI PIZZETTE KG.4 BONCHEF               0001000006000000100P000000A
0239890002000100210339900000155CROISSANT PISTACCHIO RODRIGO TRE MARIE   0000000006000000100M000000A
0239900002002290210332200000155TORTA CREMA E PANNA                      0003000006000000100P000000A
0239910002002290210332300000155TORTA CREMA CIOCCOLATO                   0003000006000000100P000000A
0239920002002290210332400000155TORTA CHANTILLY                          0003000006000000100P000000A
0239930002002290210332500000155MILLESFOGLIE CREMA                       0003000006000000100P000000A
0239940002002290210332600000155MILLESFOGLIE CHANTILLY                   0003000006000000100P000000A
0239950002002290210332700000155TORTA PAN DI SPAGNA FRUTTA               0003000006000000100P000000A
0239990002002290210331800000155PANNA COTTA CIOCCOLATO                   0010000006000000100P000000A
0240000002000100210330700000155CROISSANT CREMA PISTACCHIO TRE MARIE     0000000006000000100M000000A
0400110004000300212296000000155OFFERTA HAMBURGER                        0000000008000000100M000000A
0400330004000300212299000000155OFFERTA HAMBURGER GRANGUSTO P.I.         0000000008000100100M000000A
0400910004002490210336500000155LOMBATA C/O SCOTTONA SLAVA IN GARZA.     0000000008000000100P000000A
0400970004000399210493300000155HAMBURGER DI CHIANINA G.150              0000000008000000100M000000A
0400980004000350210493400000155HAMBURGER DI FASSONE PIEMONTESE G.150    0000000008000000100M000000A
0400990004000350210493500000155HAMBURGER DI ANGUS G.150                 0000000008000000100M000000A
0401000004009900210257100000155ASTA DELLA CARNE                         0000000008000000100P000000A
0401030004001940210296800000155ROASTBEEF 5 C C/O C/COPERTINA BA POLONIA 0000000008000000100P000000A
0401100004001420210299900000155ROTOLO POLLO                             0000000008000000100P000000A
0401120004000000000000000000055                                         0000000000000000100P000000D
0401150004000890210331900000155TRIPPA INTERA                            0000000008000000100P000000A
0401160004000850210300500000155CHICCHE DI SALSICCIA.                    0000000008000000100P000000A
0401180004000949210021400000155PASTA  DI SALSICCIA                      0000000008000000100P000000A
0401190004000890210332100000155TRIPPA TAGLIATA                          0000000008000000100P000000A
0401200004000940210014700000155SALAMELLA SUINO                          0000000008000000100P000000A
0401240004001890217085000000155FEGATO VITELLO                           0000000008000000100P000000A
0401250004003790210292300000155TRONCHETTO 5C S/C SCOTTONA POLONIA UNIKA 0000000008000000100P000000A
0401260004002090210310900000155CHUCK ROLL BOVINO ADULTO IRLANDA         0000000008000000100P000000A
0401270004001450210075700000155CADEA B.A.                               0000000008000000100P000000A
0401420004001450216788000000155LINGUE VITELLO.                          0000000008000000100P000000A
0401500004001990210007100000155COPERTINA DI SPALLA                      0000000008000000100P000000A
0401600004001990210369200000155COPERTINA DI SPALLA BA ANGUS IRLANDA     0000000008000000100P000000A
0401620004003390210075200000155FRENCH RACK S/F VITELLO.                 0000000008000000100P000000A
0401640004002490210378200000155COWBOY STK 6 COSTE VINAS                 0000000008000000100P000000A
0401660004003590210074700000155FIORENTINA DI CHIANINA.                  0002000008000000100P000000A
0402020004001490217039000000155SPALLA VITELLONE S/O                     0000000008000000100P000000A
0402030004001190217258000000155NOCETTA BOVINO ADULTO.                   0000000008000000100P000000A
0402040004001350217155000000155GIRELLO SPALLA BOV                       0000000008000000100P000000A
0402050004001450217256000000155GALLINETTA BOVINO ADULTO.                0000000008000000100P000000A
0402070004001390217044000000155MUSCOLI VITELLONE S/O                    0000000008000000100P000000A
0402090004001690217252000000155SOTTOPALETTA BOVINO ADULTO.              0000000008000000100P000000A
0402100004001979217033000000155LACERTO VITELLONE FRESCO.                0000000008000000100P000000A
0402110004001990217027000000155FESA VITELLONE FRESCA                    0000000008000000100P000000A
0402120004000790217035000000155PANCIA VITELLONE S/O                     0000000008000000100P000000A
0402130004000890217034000000155PANCIA VITELLONE C/O.                    0000000008000000100P000000A
0402140004000825217038000000155PETTO VITELLONE S/O FRESCO               0000000008000000100P000000A
0402160004001450217156000000155SABRINA                                  0000000008000000100P000000A
0402180004001990217029000000155NOCE BOVINO ADULTO.                (168  0000000008000000100P000000A
0402200004001690217259000000155UCCELLETTO BOVINO ADULTO                 0000000008000000100P000000A
0402210004001690217253000000155SOTTOPESCE BOVINO ADULTO.                0000000008000000100P000000A
0402220004003450210245200000155FILETTO BOVINO ADULTO FRANCIA.           0000000008000000100P000000A
0402240004002390217260000000155CARPACCIO BOVINO ADULTO.                 0000000008000000100P000000A
0402250004001790210501600000155LOMBATA 8 COSTE 16/18 ZAO VINAS          0000000008000000100P000000A
0402280004000170211978000000155OSSO VESTITO.                            0000000008000000100P000000A
0402300004000890213915000000155GRANELLE BOVINO ADULTO.                  0000000008000000100P000000A
0402320004001390216803000000155CODE DI BOVINO ADULTO             (242   0000000008000000100P000000A
0402330004001390217050000000155CERVELLA BOVINO ADULTO.                  0000000008000000100P000000A
0402390004001290218630000000155BRASATO BOVINO ADULTO.                   0000000008000000100P000000A
0402400004002149217030000000155CASCIA VITELLONE                         0000000008000000100P000000A
0402410004002290217042000000155SOTTOFILETTO B.A. S/O                    0000000008000000100P000000A
0402420004001490216710000000155SPEZZATINO MAGRO BOVINO                  0000000008000000100P000000A
0402430004001390217255000000155ARROTOLATO BOVINO ADULTO.                0000000008000000100P000000A
0402480004002790210584700000155ARROSTO  DI VITELLO ALLO SPIEDO          0003000018000000100P000000A
0402490004001390210584800000155PANCETTA DI SUINO ALLO SPIEDO            0000000018000000100P000000A
0402500004001490210584900000155SALAMELLE DI SUINO ALLO SPIEDO           0000000018000000100P000000A
0402510004001790210585100000155FUSI DI POLLO RIPIENI ALLO SPIEDO        0000000018000000100P000000A
0402520004001390210585200000155MAXI BURGER ALLO SPIEDO                  0000000018000000100P000000A
0402530004001190210585300000155ASADO BOVINO ALLO SPIEDO                 0003000018000100100P000000A
0402540004001990210697700000155COSCIA DI PORCHETTA ALLO SPIEDO          0000000018000000100P000000A
0402550004001190210227500000155MEZZO POLLO RUSTICO                      0000000028000000100P000000A
0402560004001590210227800000155MIX SPIEDINI SUINO ASSORTITI             0000000018000000100P000000A
0402570004001390210242400000155POLPETTE SALSICCIA ALLO SPIEDO           0000000018000000100P000000A
0402580004001560210259900000155POLLO ALLA CACCIATORA                    0000000008000000100P000000A
0402590004001390210260200000155SALSICCIA PICCANTE ALLO SPIEDO           0000000008000000100P000000A
0402610004001690210322800000155BRASATO DI BOVINO COTTO                  0003000028000000100P000000A
0402640004001600210330600000155RAGU' DI CARNE                           0003000028000000100P000000A
0402650004001290210346100000155COTECHINO CON LENTICCHIE                 0003000012000000100P000000A
0402990004000990216754000000155COSCIA SUINO ANNONI CARTONE              0000000008000000100P000000A
0403010004001590214243000000155ARROSTO FESA TACCHINO                    0000000008000000100P000000A
0403020004000990217096000000155COSTINE SUINO                            0000000008000000100P000000A
0403040004001090210247300000155SPIEDISSIMO FILENI                       0000000008000000100P000000A
0403050004001095210034100000155SPALLA DI  MAIALINO C/O                  0000000008000000100P000000A
0403070004000890216834000000155COTECHINO VANIGLIA G. 400 CA X6          0000000008000000100P000000A
0403080004001290217105000000155SPIEDINI MAIALE                          0000000008000000100P000000A
0403110004000390216756000000155COTENNE SUINO                            0000000008000000100P000000A
0403120004000390216757000000155ZAMPINI SUINO                            0000000008000000100P000000A
0403160004000760213156000000155LONZA PORCHETTATA.                       0002000008000100100P000000A
0403190004000690218651000000155BUSTONI DI POLLO               (081      0000000008000000100P000000A
0403210004000790212014000000155PANCETTA C/COTENNA CARTONE               0000000008000000100P000000A
04032300040040002184100000001552 POLLI ALLO SPIEDO                      0000000008000000100M000000A
0403260004000679215006000000155COSCE POLLO                              0000000008000000100P000000A
0403270004000529216646000000155COSCIOTTI POLLO                          0000000008000000100P000000A
0403280004001249216643000000155PETTI POLLO EXTRA                        0002000008000000100P000000A
0403290004001190215005000000155FESA TACCHINA FEM.                       0000000008000000100P000000A
0403300004000990216660000000155FARAONE TZ. G. SFUSE                     0000000008000000100P000000A
0403310004000550215007000000155POLLI BUSTO SF                           0000000008000000100P000000A
0403320004000790213985000000155POLLO ALLO SPIEDO CON PATATE             0000000018000000100P000000A
0403330004000490216771000000155FEGATINI POLLO SFUSI                     0000000008000000100P000000A
0403350004000990216662000000155GALLI RUSPANTI                           0000000008000000100P000000A
0403370004000449210030200000155ALI POLLO SF                             0000000008000000100P000000A
0403380004000399203604000000155ALI TACCHINO SF                          0000000008000000100P000000A
0403400004000790216663000000155BUSTO  TACCH.FEM.   KG 7 C.A.X2          0000000008000000100P000000A
0403410004000790216657000000155COSCE TACCHINA FEM.                      0000000008000000100P000000A
0403420004002490214423000000155CONIGLIO PIEMONTESE DISOSSATO            0000000008000000100P000000A
0403430004001149210373600000155SPIEDINI POLLO E SALSICCIA               0000000008000000100P000000A
0403440004001290210217500000155CAPPONI TRADIZIONALI                     0000000008000000100P000000A
0403460004001390216645000000155FESA TACCHINO MASCHIO                    0000000008000000100P000000A
0403480004001890211642000000155COSCIA AGNELLO NAZIONALE P.I.            0003000012000100100P000000A
0403490004001790211643000000155SPALLA AGNELLO NAZIONALE P.I.            0003000012000100100P000000A
0403500004002290211644000000155COSTINE AGNELLO NAZIONALE P.I.           0003000012000100100P000000A
0403510004001290214013000000155ALI DI POLLO SAPORITE                    0003000018000000100P000000A
0403520004000720214014000000155SOVRACOSCE DI POLLO AROMATIZZATE         0000000008000000100P000000A
0403530004001290214015000000155FUSI DI POLLO SAPORITI                   0003000018000000100P000000A
0403550004001090210170600000155ALETTE DI POLLO ALLO SPIEDO              0003000018000000100P000000A
0403560004001290210170500000155SOVRACOSCE DI POLLO SPIEDO               0003000018000000100P000000A
0403570004001290210170400000155FUSI DI POLLO ALLO SPIEDO                0003000018000000100P000000A
0403580004000990216677000000155LIVORNESI                                0000000008000000100P000000A
0403590004000990214023000000155MEZZO POLLO ALLO SPIEDO                  0000000018000000100P000000A
0403620004001290216644000000155ANATRA MUTA                              0000000008000000100P000000A
0403630004001790214224000000155INVOLTINI DI POLLO ALLO SPIEDO           0003000018000000100P000000A
0403650004001490214089000000155SALSICCIA GENTILE ALLO SPIEDO            0000000018000000100P000000A
0403670004001190214090000000155SPIEDINI DI POLLO AROMATIZZATI           0000000008000000100P000000A
0403680004000875214371000000155FEGATINI CONIGLIO                        0000000008000000100P000000A
0403690004001090214833000000155ALI POLLO BARBECUE ALLO SPIEDO           0000000018000000100P000000A
0403710004001490214948000000155ARISTA DI SUINO ALLO SPIEDO              0003000018000000100P000000A
0403740004002190214952000000155PORCHETTA ALLO SPIEDO                    0003000018000000100P000000A
0403760004000790210289200000155POLLO BUSTO GRAN SELEZIONE               0000000008000000100P000000A
0403770004000800210337300000155POLLO CAMPESE ALLO SPIEDO                0000000028000000100M000000A
0403790004001090210159400000155POLLO RUSTICO ALLO SPIEDO                0000000028000000100P000000A
0403800004002390217092000000155COSTINE AGNELLO DI SARDEGNA IGP   (735   0000000008000000100P000000A
0403810004001990217090000000155COSCE AGNELLO DI SARDEGNA IGP            0000000008000000100P000000A
0403820004001890217091000000155SPALLE AGNELLO DI SARDEGNA IGP           0000000008000000100P000000A
0403830004000699217093000000155BIANCO E NERO AGNELLO                    0000000008000000100P000000A
0403840004000399217094000000155TESTINE AGNELLO                          0000000008000000100P000000A
0403870004001890217089000000155AGNELLO NAZIONALE                        0000000008000000100P000000A
0403880004002390216630000000155CAPRETTI                                 0000000008000000100P000000A
0403890004002490217261000000155COSCIA CAPRETTO                          0000000008000000100P000000A
0403900004002390217262000000155SPALLA CAPRETTO                          0000000008000000100P000000A
0403910004002590217263000000155COSTINE CAPRETTO                         0000000008000000100P000000A
0403920004000155217264000000155TESTINA CAPRETTO                         0000000008000000100P000000A
0403930004000666217265000000155BIANCO/NERO CAPRETTO                     0000000008000000100P000000A
0403940004001395216633000000155MAIALINO 5/8 KG                          0000000008000000100P000000A
0403950004000910217266000000155COSCIA CASTRATO                          0000000008000000100P000000A
0403960004000830217267000000155SPALLA CASTRATO                          0000000008000000100P000000A
0403970004001090210265300000155CONIGLIO NOSTRANO PIEM.X3                0000000008000000100P000000A
0403980004001295217269000000155COSCIA PORCHETTA                         0000000008000000100P000000A
0403990004001095217270000000155SPALLA PORCHETTA                         0000000008000000100P000000A
0404000004001195217271000000155COSTINE PORCHETTA                        0000000008000000100P000000A
0404020004000599210459400000155POLLO AROMATIZZATO SPIEDO.               0000000008000000100M000000A
0404030004000690216691000000155STINCHI SUINO                            0000000008000000100P000000A
0404040004001590217425000000155STINCO DI SUINO ALLO SPIEDO              0000000008000000100P000000A
0404070004000990218632000000155SPEZZATINO SUINO                         0000000008000000100P000000A
0404090004000690217114000000155FUSI POLLO PIEMONTE                      0000000008000000100P000000A
0404100004001195216634000000155MAIALINO 9/12 KG                         0000000008000000100P000000A
0404110004000990216995000000155PORCHETTA GROSSA                         0000000008000000100P000000A
0404150004000590210345400000155POLLO BUSTO DELLE FESTE                  0000000008000000100P000000A
0404160004000790216755000000155SPALLA SUINO                             0000000008000000100P000000A
0404170004000799210175200000155GALLETTO AROMATIZZ.XGRIGLIA              0000000008000000100M000000A
0404190004000890210374800000155POLLO RUSTICO SPIEDO PZ                  0000000008000000100M000000A
0404200004000490210615800000155MEZZO POLLO RUSTICO PZ                   0000000008000000100M000000A
0404230004001290210384900000155ALETTE DI POLLO PANATE                   0003000016000000100P000000A
0404250004000990210385600000155CROCCHETTE DI POLLO C/FORMAGGIO          0003000016000000100P000000A
0404290004000690216647000000155SOVRACOSCE POLLO SF                      0000000008000000100P000000A
0404300004002190210184700000155ARROSTICINI AGNELLO CATERING             0000000008000000100P000000A
0404310004001690213967000000155BRACIOLINE DI PORCHETTA                  0000000008000000100P000000A
0404320004000840213968000000155PORCHETTA NAZIONALE A PEZZI              0000000008000000100P000000A
0404330004000690213969000000155STINCO DI PORCHETTA                      0000000008000000100P000000A
0404340004000590213970000000155PANCETTA DI PORCHETTA                    0000000008000000100P000000A
0404350004001290210233800000155FUSI POLLO RIPIENI                       0000000008000000100P000000A
0404380004000475218590000000155COSCE POLLO                              0000000008000000100P000000A
0404400004000690218592000000155COSTINE DI COPPA                         0000000008000000100P000000A
0404420004000990217272000000155COSCIA CAPRA                             0000000008000000100P000000A
0404430004001190217273000000155COSTINE CAPRA                            0000000008000000100P000000A
0404440004001090217274000000155SPALLA CAPRA                             0000000008000000100P000000A
0404450004001290217275000000155SPEZZATINO CAPRA                         0000000008000000100P000000A
0404480004000050218596000000155ALI TACCH                                0000000008000000100P000000A
0404490004000790218597000000155SOVRAC TACCH                             0000000008000000100P000000A
0404670004001385218599000000155INVOLTINI CARNE                          0000000008000000100P000000A
0404710004000590218603000000155SCOTTADITO SUINO                         0000000008000000100P000000A
0404720004000980218604000000155ROLATINE POLLO P'.I.                     0003000008000100100P000000A
0404740004000790218606000000155NODINI SUINO IMPANATO                    0000000008000000100P000000A
0404760004001390218608000000155CONIGLIO RIPIENO                         0000000008000000100P000000A
0404790004001190218611000000155HAMBURER AL FORMAGGIO P.I                0000000008000000100P000000A
0404800004001190218612000000155HAMBURGER SPECK E ALLORO P.I             0000000008000000100P000000A
0404850004000990218618000000155LONZA SUINO RIPIENA                      0000000008000000100P000000A
0404870004001190218620000000155HAMBURGER PROSC/MOZZ/BASIL.P.I.          0000000008000000100P000000A
0404880004001450218621000000155ROLLE' VITELLO                           0000000008000000100P000000A
0404910004000990218624000000155VERDURE RIPIENE                          0000000008000000100P000000A
0404920004000960218625000000155ROLLATA TACCHINO                         0000000008000000100P000000A
0404930004001290214520000000155RUSTICHELLE DI POLLO                     0000000008000000100P000000A
0404970004000990218648000000155SVIZZERE C/SPECK                         0000000008000000100P000000A
0405000004001490217312000000155POLPA MAGRA COSCIA BOVINO ADULTO.        0000000008000000100P000000A
0405010004002340210484100000155FESA A CUORE VITELLO POSTERIORE GAVAZZA  0000000008000000100P000000A
0405020004002440210484200000155SCAMONE VITELLO POSTERIORE GAVAZZA       0000000008000000100P000000A
0405030004002240210484300000155GIRELLO DI COSCIA VITELLO POSTERIORE GAV 0000000008000000100P000000A
0405040004002340210484400000155NOCE CON MOLLE VITELLO POSTERIORE GAV    0000000008000000100P000000A
0405050004002340210484500000155SOTTOFESA VITELLO POSTERIORE GAVAZZA     0000000008000000100P000000A
0405060004002190210484600000155SPINACINO VITELLO POSTERIORE GAVAZZA     0000000008000000100P000000A
0405070004001890210484700000155CAMPANELLO VITELLO POSTERIORE GAVAZZA    0000000008000000100P000000A
0405080004001790210484800000155STINCO DI COSCIA VITELLO POSTERIORE GAV  0000000008000000100P000000A
0405090004001990210484900000155CARRE C/O VITELLO POSTERIORE GAVAZZA     0000000008000000100P000000A
0405100004001990210485100000155FASCIA DI FESA VITELLO POSTERIORE GAV    0000000008000000100P000000A
0405110004003590210485500000155TESTA DI FILETTO VITELLO POSTERIORE GAV  0000000008000000100P000000A
0405130004001390210313900000155CHICCHE DI SALSICCIA ALLO SPIEDO         0000000008000000100P000000A
0405140004001490210314200000155BOLLITO MISTO DI BOVINO COTTO            0003000008000000100P000000A
0405190004001590210378100000155FILETTI DI POLLO ALLA GRIGLIA            0003000018000000100P000000A
0405200004002690210196300000155PICANHA BOVINO SPIEDO                    0000000016000000100P000000A
0405210004001790210209300000155COTECHINO DI MONCALVO                    0000000018000000100P000000A
0405220004001690210217800000155ROSTICCERIA                              0000000018000000100P000000A
0405230004001590210260400000155INVOLTINI POLLO SPECK PROVOLA            0000000008000000100P000000A
0405240004001349210269400000155COSCE ANATRA SV                          0000000008000000100P000000A
0405250004000590210303400000155ARROSTINO SUINO PROVOLA E SPECK G 450    0000000008000000100M000000A
0405260004000790210303600000155ARROSTINO SUINO PROV/SPECK SPIEDO        0000000018000000100M000000A
0405270004000590210303700000155ARROSTINO POLLO PROVOLA E SPECK G 450    0000000008000000100M000000A
0405280004000890210303900000155ARROSTINO POLLO PROV/SPECK SPIEDO        0000000018000000100M000000A
0405290004001790210306900000155TRIPPA ROSSA ACCOMODATA                  0000000018000000100P000000A
0405300004001990210306800000155SPEZZATINO DI VITELLO COTTO              0000000018000000100P000000A
0405310004001890210311800000155PETTO DI FARAONA  ALL..PIEM.S/ANTIB.     0000000008000000100P000000A
0405320004000100211112100000155HAMBURGER POLLO G.90X 6 DAL PIEMONTE     0000000008000000100M000000A
0405330004001214210355800000155COSTINE DI SUINO CON PATATE              0003000018000000100P000000A
0405340004001240210355900000155STINCO DI SUINO CON PATATE               0003000018000000100P000000A
0405350004001253210356100000155COSTINE DI SUINIO SAPORITE               0003000018000000100P000000A
0405360004001018210356200000155SOVRACOSCE DI POLLO CON PATATE           0003000018000000100P000000A
0405370004001009210356300000155FUSI DI POLLO CON PATATE                 0003000018000000100P000000A
0405380004000771210356400000155ALI DI POLLO SAPORITE CON PATATE         0003000018000000100P000000A
0405390004001420210356500000155ROTOLO DI POLLO CON PATATE               0003000018000000100P000000A
0405400004000999210356600000155HAMBURGER DI BOVINO CON PATATE           0003000018000000100P000000A
0405410004001053210356700000155MAXI BURGER CON PATATE                   0003000018000000100P000000A
0405420004001338210356800000155RUSTICHELLE DI POLLO CON PATATE          0003000018000000100P000000A
0405430004000858210356900000155PASTA DI SALSICCIA CON PATATE            0003000018000000100P000000A
0405440004001060210357100000155SALSICCIA DI SUINO CON PATATE            0003000018000000100P000000A
0405450004001977210357200000155ASADO DI VITELLO CON PATATE              0003000018000000100P000000A
0405460004001288210357300000155PORCHETTA CON PATATE                     0003000018000000100P000000A
0405470004001288210357400000155WURSTEL DI SUINO CON PATATE              0003000018000000100P000000A
0405480004000990210357600000155COTOLETTA DI POLLO CON PATATE            0003000018000000100P000000A
0405490004001453210357700000155SPIEDINO DI POLLO CON PATATE             0003000018000000100P000000A
0405500004001407210357800000155SPIEDINI DI SUINO CON PATATE             0003000018000000100P000000A
0405510004000953210357900000155PANCETTA DI SUINO CON PATATE             0003000018000000100P000000A
0405520004002716210358100000155ARROSTO DI VITELLO CON PATATE            0003000018000000100P000000A
0405530004001073210358200000155CHICCE DI SALSICCIA CON PATATE           0003000018000000100P000000A
0405540004000733210358300000155POLLO MEX CON PATATE                     0003000018000000100P000000A
0405550004000929210358700000155COSTINE DI SUINO AL SUGO                 0003000018000000100P000000A
0405560004001854210358800000155ARISTA TONNATA                           0003000018000000100P000000A
0405570004001250210358900000155INSALATA DI CARNE DI BOVINO              0003000018000000100P000000A
0405580004001116210359100000155INSALATA DI CARNE DI POLLO               0003000018000000100P000000A
0405590004001590210364300000155POLPETTE AL SUGO                         0003000018000000100P000000A
0405600004001390210364400000155COTOLETTA DI POLLO IN CARPIONE           0003000018000000100P000000A
0405610004001590210364500000155SCALOPPINE DI VITELLO                    0003000018000000100P000000A
0405620004001390210364600000155COTOLETTA DI SUINO IN CARPIONE           0003000018000000100P000000A
0405630004001690210374200000155FARAONA ALLO SPIEDO                      0003000020000000100P000000A
0405640004002190210370900000155BOVINO IN SALSA VERDE                    0003000018000000100P000000A
0405650004000890210375400000155BOCCONCINI DI POLLO CON PATATE           0003000018000000100P000000A
0405680004001250217025000000155MAGRO PUNTA BOVINO ADULTO. S/O           0000000008000000100P000000A
0405690004001590210370800000155INSALATA DI TESTINA DI BOVINO            0003000012000000100P000000A
0405700004002890219107000000155FESA SCOTTONA POLONIA                    0000000008000000100P000000A
0405990004000650210457900000155GALLETTO APERTO SPIEDO COTTO G.500       0000000008000000100M000000A
0406020004000990210300800000155SALSICCIA PIGNONE P.I.                   0003000008000100100P000000A
0406030004001090210300900000155LUGANEGA PIGNONE P.I                     0003000008000100100P000000A
0406040004001390212114000000155POLPA PER BRASATO DI BOVINO.             0000000008000000100P000000A
0406050004001690212115000000155BRASATO D'ASINO                          0000000008000000100P000000A
0406060004000399219920000000155GALLINA BUSTO PICCOLA SF                 0000000008000000100P000000A
0406100004001990211685000000155FETTINE SCELTISSIME BOVINO ADULTO.       0000000008000000100P000000A
0406110004001890211684000000155FETTINE SCELTE BOVINO ADULTO.            0000000008000000100P000000A
0406120004002490211794000000155FETTINE SCELTISSIME VITELLO.             0000000008000000100P000000A
0406130004002340211793000000155FETTINE SCELTE VITELLO.                  0000000008000000100P000000A
0406140004001540213322000000155FETTINE FAMIGLIA BOVINO ADULTO.          0000000008000000100P000000A
0406150004002290213334000000155FETTINE FAMIGLIA VITELLO.                0000000008000000100P000000A
0406160004001690210158100000155FETTINE PER SCALOPPINE BOVINO ADULTO.    0000000008000000100P000000A
0406580004001590210276900000155ROTOLO POLLO SPIEDO                      0000000016000000100P000000A
0406590004000499210276800000155POLLO MEXICO                             0000000008000000100M000000A
0406690004001590210349300000155HAMBURGER DI CASTRATO                    0000000008000000100P000000A
0406710004001250210217300000155STINCO POST.C/OSSO CASTRATO              0000000008000000100P000000A
0406720004001250210209900000155STINCO ANT.BA CASTRATO                   0000000008000000100P000000A
0406730004002049210217400000155FESA BA CASTRATO                         0000000008000000100P000000A
0406740004002049210210200000155NOCE B.A CASTRATO                        0000000008000000100P000000A
0406750004002249210210300000155SCAMONE B.A CASTRATO                     0000000008000000100P000000A
0406760004002350210210400000155GIRELLO B.A CASTRATO                     0000000008000000100P000000A
0406770004001650210210500000155CAMPANELLO B.A CASTRATO                  0000000008000000100P000000A
0406780004001790210210700000155SPINACINO B.A CASTRATO                   0000000008000000100P000000A
0406790004002050210210800000155COSTATA C/O 7COSTE B.A CASTRATO          0000000008000000100P000000A
0406800004002390210210900000155SOTTOFILETTO B.A CASTRATO                0000000008000000100P000000A
0406810004001550210211200000155REALE C/O 5COSTE B.A CASTRATO            0000000008000000100P000000A
0406820004001550210211300000155REALE S/O B.A CASTRATO                   0000000008000000100P000000A
0406830004000950210211500000155SCARAMELLA C/O B.A CASTRATO              0000000008000000100P000000A
0406840004001650210211700000155FESONE SPALLA B.A CASTRATO               0000000008000000100P000000A
0406850004001790210211800000155SOTTOPALETTA B.A CASTRATO                0000000008000000100P000000A
0406860004001350210211900000155BRIONE C/O B.A CASTRATO                  0000000008000000100P000000A
0406870004002000210212200000155CODONE B.A CASTRATO                      0000000008000000100P000000A
0406880004003450210212300000155TESTA FILETTO B.A CASTRATO               0000000008000000100P000000A
0406890004001550210212400000155BRUTTO E BUONO B.A CASTRATO              0000000008000000100P000000A
0406900004000950210212500000155PENDORE B.A CASTRATO                     0000000008000000100P000000A
0406910004001550210212600000155LOMBO/DIAFRAMMA B.A CASTRATO             0000000008000000100P000000A
0406920004000950210212700000155PETTO C/O B.A CASTRATO                   0000000008000000100P000000A
0406930004001150210212800000155GOLETTA B.A CASTRATO                     0000000008000000100P000000A
0406940004001990210212900000155SOTTOFESA B.A CASTRATO                   0000000008000000100P000000A
0406950004001450210213200000155GIRELLO SPALLA B.A CASTRATO              0000000008000000100P000000A
0406960004001350210213300000155COPERTINA SPALLA B.A CASTRATO            0000000008000000100P000000A
0406970004001690210349400000155MACINATA SCELTISSIMA DI CASTRATO         0000000008000000100P000000A
0406980004000750210393500000155GALLETTO VALTELLINA PZ                   0000000008000000100M000000A
0406990004000410210249800000155GALLETTO SPIEDO META' VALLESPLUGA        0000000028000000100M000000A
0407000004001690210090400000155SPIEDINI SUINO SPIEDO                    0000000018000000100P000000A
0407010004002190210090700000155RUSTICHELLE POLLO SPIEDO                 0000000018000000100P000000A
0407020004002090210090800000155TRAMEZZINI PROSC.FORM.SPIEDO             0000000018000000100P000000A
0407030004002090210091300000155SPIEDINI POLLO AL CHILI SPIEDO           0000000018000000100P000000A
0407040004001590210091400000155CONIGLIO SPIEDO                          0000000018000000100P000000A
0407050004001990210091500000155SPALLE CONIGLIO allo SPIEDO              0000000018000000100P000000A
0407060004002090210091700000155COSCE CONIGLIO ALLO SPIEDO               0000000018000000100P000000A
0407070004002190210092200000155COSTOLETTE CONIGLIO SPIEDO               0000000018000000100P000000A
0407080004001790210092300000155ANATRA ALLO SPIEDO                       0000000018000000100P000000A
0407090004002890210092400000155AGNELLO A PEZZI SPIEDO                   0000000018000000100P000000A
0407100004001390210092500000155COPPA SUINO SPIEDO                       0000000018000000100P000000A
0407110004001590210092600000155FILETTO BACIATO ALLO SPIEDO              0003000018000000100P000000A
0407120004001390210110800000155STINCO SUINO ALLO SPIEDO                 0000000018000000100P000000A
0407140004001690210111300000155COSTINE SUINO ALLO SPIEDO                0000000018000000100P000000A
0407150004001450210123300000155MUSCOLO POST SCOTTONA ITALIA             0000000008000000100P000000A
0407160004002149210147900000155FESA SCOTTONA ITALIA                     0000000008000000100P000000A
0407170004002149210148200000155 NOCE SCOTTONA ITALIA                    0000000008000000100P000000A
0407180004002349210148300000155SCAMONE SCOTTONA ITALIA                  0000000008000000100P000000A
0407190004002049210148400000155SOTTOFESA SCOTTONA ITALIA                0000000008000000100P000000A
0407200004002100210148500000155CODONE SCOTTONA ITALIA                   0000000008000000100P000000A
0407210004001890210148600000155SPINACINO SCOTTONA ITALIA                0000000008000000100P000000A
0407220004002450210148700000155GIRELLO COSCIA SCOTTONA ITALIA           0000000008000000100P000000A
0407230004001750210148800000155GALLINETTA SCOTTONA ITALIA               0000000008000000100P000000A
0407240004002490210148900000155SOTTOFILETTO SCOTTONA ITALIA             0000000008000000100P000000A
0407250004002250210149200000155COSTATA SCOTTONA ITALIA                  0000000008000000100P000000A
0407260004003690210149300000155FILETTO SCOTTONA ITALIA                  0000000008000000100P000000A
0407270004001450210149400000155CODA SCOTTONA ITALIA                     0000000008000000100P000000A
0407280004001650210149500000155 REALE SCOTTONA ITALIA                   0000000008000000100P000000A
0407290004001650210149600000155BRUTTO E BUONO SCOTTONA ITALIA           0000000008000000100P000000A
0407300004001890210149700000155SOTTOPALETTA SCOTTONA ITALIA             0000000008000000100P000000A
0407310004001550210149800000155ROTONDINO SPALLA SCOTTONA ITALIA         0000000008000000100P000000A
0407320004001450210149900000155COPERTINA DI SPALLA SCOTTONA ITALIA      0000000008000000100P000000A
0407330004001750210150200000155FESONE SPALLA SCOTTONA ITALIA            0000000008000000100P000000A
0407340004001450210150300000155BRIONE SCOTTONA ITALIA                   0000000008000000100P000000A
0407350004001350210150400000155OSSIBUCHI DI SCOTTONA ITALIA             0000000008000000100P000000A
0407360004001090210150500000155BOLLITO C.O.SCOTTONA ITALIA              0000000008000000100P000000A
0407370004001650210150600000155LOMBO/CADEA SCOTTONA ITALIA              0000000008000000100P000000A
0407380004001050210150700000155PUNTA DI PETTO SCOTTONA ITALIA           0000000008000000100P000000A
0407390004001649210150800000155SPEZZATINO SCOTTONA ITALIA               0000000008000000100P000000A
0407400004001790210144600000155MACINATA SCELTISSIMA SCOTTONA ITALIA     0000000008000000100P000000A
0407410004001490210144800000155MACINATA SCELTA SCOTTONA ITALIA          0000000008000000100P000000A
0407420004002590210150900000155CARPACCIO SCOTTONA ITALIA                0000000008000000100P000000A
0407430004001690210152200000155HAMBURGER/SVIZZERE SCOTTONA ITALIA       0000000008000000100P000000A
0407450004001190210382500000155PREPARATO POLPETTE SCOTTONA              0000000008000000100P000000A
0407460004000390210207300000155TARTARINA DI SCOTTONA G.150 ITALIA       0000000008000000100M000000A
0407520004001290211807000000155MACINATA SCELTA                          0000000008000000100P000000A
0407530004001590211806000000155MACINATA SCELTISSIMA BOVINO ADULTO       0000000008000000100P000000A
0407550004000179210203500000155HAMBURGER GRAN GUSTO G.125               0000000008000000100M000000A
0407580004001690211848000000155UCCELLETTO BOVINO ADULTO.                0000000008000000100P000000A
0407600004000229210203700000155SVIZZERINE DI VITELLO G.125              0000000008000000100M000000A
0407610004000169210203400000155HAMBURGER BOVINO ADULTO G.125            0000000008000000100M000000A
0407630004001490211782000000155GRIGLIATA MISTA DI BOVINO P.I.           0003000008000100100P000000A
0407670004001690211814000000155ARROSTO SCELTO BOVINO ADULTO.            0000000008000000100P000000A
0407690004001990211730000000155OSSOBUCHI DI VITELLO.                    0000000008000000100P000000A
0407700004000600211778000000155CARRE' C/O.                              0000000008000000100P000000A
0407710004000990211766000000155BRACIOLE SUINO                           0000000008000000100P000000A
0407720004001390211767000000155FILETTO SUINO                            0000000008000000100P000000A
0407760004000890211770000000155COPPA INTERA C/OSSO SUINO                0000000008000000100P000000A
0407770004001049217097000000155COPPA MAIALE S/O                         0000000008000000100P000000A
0407780004000890211772000000155FETTINE SUINO                            0000000008000000100P000000A
0407810004001590211775000000155STINCO DI SUINO AROMATIZZATO             0000000018000000100P000000A
0407830004000300211777000000155COTENNA SUINO                            0000000008000000100P000000A
0407850004000890211780000000155COPPA A FETTE C/OSSO SUINO               0000000008000000100P000000A
0407870004001240211856000000155ASADO VITELLO                            0000000008000000100P000000A
0407890004000990211883000000155BRACIOLE SUINO MARINATE                  0000000008000000100P000000A
0407900004000990211783000000155LONZA SUINO MARINATE                     0000000008000000100P000000A
0407980004001190211893000000155SALSIC. PUNTA DI COLTELLO.               0000000008000000100P000000A
0407990004001398211781000000155SCARAMELLA DI BOVINO MARINATE            0000000008000000100P000000A
0408000004000890211892000000155BOLLITO MISTO.                           0003000008000100100P000000A
0408050004001750211853000000155CIMA BOVINO ADULTO.                      0000000008000000100P000000A
0408060004002340211894000000155FESA VITELLO.                            0000000008000000100P000000A
0408070004002340211895000000155NOCE C/ SPINACINO VITELLO.               0000000008000000100P000000A
0408080004002490211896000000155SCAMONE VITELLO.                         0000000008000000100P000000A
0408090004002340211897000000155SOTTOFESA C/ROTONDINO E GALLINETTA VIT.  0000000008000000100P000000A
0408100004001840211898000000155GALLINELLA VITELLO.                      0000000008000000100P000000A
0408110004002490211899000000155NODINI VITELLO.                          0000000008000000100P000000A
0408120004002290211900000000155COSTATE VITELLO.                         0000000008000000100P000000A
0408140004002190211902000000155ARROSTO SCELTO VITELLO.                  0000000008000000100P000000A
0408150004002190211903000000155ARROTOLATO VITELLO.                      0000000008000000100P000000A
0408160004001690211855000000155SPEZZATINO VITELLO..                     0000000008000000100P000000A
0408170004001890211904000000155POLPA SPALLA VITELLO.                    0000000008000000100P000000A
0408210004002390211977000000155GIRELLO DI COSCIA VITELLO.               0000000008000000100P000000A
0408240004002590212001000000155FIORENTINA B.A. SCOTTONA                 0000000008000000100P000000A
0408250004000890212036000000155COSCIA DI MAIALE                         0000000008000000100P000000A
0408280004001090212138000000155LONZA REGINA                             0000000008000000100P000000A
0408300004000990212140000000155POLPETTONE                               0000000008000000100P000000A
0408330004000550212155000000155STINCO SUINO C/COTENNA                   0000000008000000100P000000A
0408350004001640212157000000155REALE DI VITELLO                         0000000008000000100P000000A
0408360004000390212161000000155GALLINA PEZZI                            0000000008000000100P000000A
0408420004001250212170000000155LINGUA BOVINO ADULTO.                    0000000008000000100P000000A
0408430004001890212172000000155COSCIA D'AGNELLO NAZIONALE               0000000008000000100P000000A
0408450004002290212174000000155COSTOLETTE D'AGNELLO NAZIONALE           0000000008000000100P000000A
0408460004000699212175000000155BIANCO E NERO/CORATELLA D'AGNELLO        0000000008000000100P000000A
0408470004000399212176000000155TESTINA D'AGNELLO                        0000000008000000100M000000A
0408480004001890212247000000155STRACCIATELLA DI VITELLO                 0000000008000000100P000000A
0408490004002750212250000000155SOTTOFILETTO DI VITELLO.                 0000000008000000100P000000A
0408500004000500212187000000155POLLO ALLA DIAVOLA                       0000000008000000100P000000A
0408510004001190212188000000155COSTINE DI MAIALE                        0000000008000000100P000000A
0408530004000890212169000000155TESTINA BOVINO ADULTO..                  0000000008000000100P000000A
0408570004001390212301000000155CODE DI BOVINO ADULTO.                   0000000008000000100P000000A
0408600004001940212356000000155COSTATA DI BOVINO ADULTO.                0000000008000000100P000000A
0408610004000990212360000000155VERZINO GENTILE                          0000000008000000100P000000A
0408620004001590212329000000155CARRE' D' AGNELLO                        0000000008000000100P000000A
0408650004001390212509000000155ARISTA DI SUINO MG                       0000000008000000100P000000A
0408660004001590212510000000155PETTO DI VITELLO IN BELLAVISTA           0000000008000000100P000000A
0408700004001790210343500000155COSCIA DI AGNELLO                        0000000008000000100P000000A
0408710004001690210343600000155SPALLA DI AGNELLO                        0000000008000000100P000000A
0408720004002490210343700000155COSTOLETTE DI AGNELLO                    0000000008000000100P000000A
0408750004001990219168000000155GUANCIALE BOVINO ADULTO.                 0000000008000000100P000000A
0408810004000250210203600000155MAXI BURGER G.195                        0000000008000000100M000000A
0408850004000990213454000000155POLPETTINE IMPANATE                      0000000008000000100P000000A
0408860004001690213585000000155TACCHINELLA DISOSSATA RIPIENA            0000000008000000100P000000A
0409060004001390213920000000155BOLLITO MAGRO BOVINO ADULTO SV           0000000008000000100P000000A
0409130004001490210333700000155POLPETTONE IN CROSTA DI SFOGLIA          0000000008000000100P000000A
0409150004000120210457800000155HAMBURGER SUINO G.125                    0000000008000000100M000000A
0409160004000190210578100000155HAMBURGER CON SPINACI G.130              0000000008000000100M000000A
0409200004000190210578200000155HAMBURGER CON MOZZARELLA G.130           0000000008000000100M000000A
0409230004000150210343300000155ZUCCHETTE DI CARNE IMPANATE G.100        0000000008000000100M000000A
0409250004000290210489200000155HAMBURGER B.A.PREMIUM G.180              0000000008000000100M000000A
0409260004000190210489100000155HAMBURGER B.A. SCOTTONA G.110            0000000008000000100M000000A
0409270004001290210363900000155POLPETTE DI SCOTTONA                     0000000008000000100P000000A
0409880004000760214690000000155COSCIA SUINO C/OSSO SV  C/STINCO         0000000008000000100P000000A
0409890004001890214681000000155POLPA PER ROASTBEEF DI BOVINO ADULTO.    0000000008000000100P000000A
0409900004002340214676000000155POLPA COSCIA X ARROSTO VITELLO.          0000000008000000100P000000A
0409910004000990216785000000155PANCIA PETTO VITELLO. SV                 0000000008000000100P000000A
0409930004001840217075000000155SPALLA VITELLO S/O   FRESCA              0000000008000000100P000000A
0409940004001650217291000000155BOLLITO MAGRO VITELLO.                   0000000008000000100P000000A
0409960004001040213233000000155SALSICCIA PICCANTINA                     0000000008000000100P000000A
0409970004001040213232000000155SALSICCIA CON FINOCCHIO SELVATICO        0000000008000000100P000000A
0409980004000990210063300000155SALSICCIA GENTILE                        0000000008000000100P000000A
0409990004000575212269000000155MENU CARNE                               0000000008000000100M000000A
0410020004002290214026000000155TAGLIATA BOVINO ADULTO                   0000000008000000100P000000A
0410040004001090214958000000155SPADELLATA DI POLLO                      0000000008000000100P000000A
0410050004002590210293900000155TAGLIATA DI VITELLO                      0000000008000000100P000000A
0410140004000190210357500000155HAMBURGER DI CADEA G.130                 0000000018000000100M000000A
0410570004002390214620000000155CONIGLIO DISOSSATO E RIPIENO             0000000008000000100P000000A
0410610004000570214820000000155COSCETTE POLLO MEZZO GASTRO              0000000008000000100P000000A
0410640004001590214839000000155SPIEDINO GOURMET                         0003000008000000100P000000A
0410650004001460214826000000155INVOLTINI DI SUINO                       0000000008000000100P000000A
0410690004000899210091100000155MACINATA BOVINO/SUINO                    0000000008000000100P000000A
0411080004001490214719000000155INVOLTINI DI LONZA                       0000000008000000100P000000A
0411090004000190210729800000155INVOLTINI POLLO C/PANCETTA G.120         0000000008000000100M000000A
0411110004002290210004100000155BATTUTA AL COLTELLO DI BOV.A.            0000000018000000100P000000A
0411120004001590210045100000155PETTO DI POLLO IMPANATO                  0000000008000000100P000000A
0411130004000990210043100000155FETTINA DI SUINO IMPANATE                0000000008000000100P000000A
0411180004001490210019400000155STRACCETTI DI BOVINO ADULTO AL BASILICO  0003000008000000100P000000A
0411200004001490210021700000155TORTILLAS AL PROSCIUTTO E FORMAGGIO      0000000008000000100P000000A
0411230004001690210021800000155TRAMEZZINI BOVINO PROSCIUTTO/FORMAGGIO   0000000008000000100P000000A
0411240004001390210021900000155GIRELLA DI BOVINO PROSCIUTTO E FORMAGGIO 0000000008000000100P000000A
0411290004001590210202300000155POLLO DISOSSATO RIPIENO                  0000000008000000100P000000A
0411300004001690210247700000155TARTARINE PF                             0000000008000000100P000000A
0411310004001490210243800000155STRACCETTI AI PEPERONI PF                0000000008000000100P000000A
0411320004001590210247400000155TRAMEZZINI FARCITI PF                    0005000008000000100P000000A
0411350004000199210271800000155TARTARINE PROVENZALI G.75                0000000008000000100M000000A
0411630004000399211268400000155HAMBURGER CHIANINA G 150 P.I.            0003000012000100100M000000A
0411640004000350211268500000155HAMBURGER FASSONE PIEMONTESE G 150 P.I.  0003000012000100100M000000A
0411650004000350211268600000155HAMBURGER ANGUS G 150 P.I.               0003000012000100100M000000A
0411660004002175210354500000155SOTTOFILETTO B.A. CONF FAM P.I.          0003000008000100100P000000A
0411670004001225210354600000155SPIEDINI DI SUINO CONF FAM P.I.          0003000008000100100P000000A
0411690004000190210377600000155HAMBURGER SCOTTONA G 110 P.I.            0003000012000100100M000000A
0414520004001290210383800000155POLPETTE DI SCOTTONA P.I.                0003000008000000100P000000A
0414650004000590210303500000155ARROSTINO DI SUINO PROVOLA E SPECK P.I.  0003000008000100100M000000A
0414660004000590210303800000155ARROSTINO DI POLLO PROVOLA E SPECK P.I.  0003000008000100100M000000A
0414670004001890213506000000155AGNELLO A PEZZI P.I.                     0003000008000100100P000000A
0414680004001790210294900000155FETTINE DI REALE X GRILL BOVINO AD. P.I. 0003000008000100100P000000A
0414690004003450210293200000155FILETTO DI BOVINO P.I.                   0003000008000100100P000000A
0414700004002750210293300000155SOTTOFILETTO DI VITELLO P.I.             0002000008000100100P000000A
0414710004001090210245800000155SPIEDISSIMO FILENI P.I.                  0003000008000100100P000000A
0414720004000840210209600000155PORCHETTA A PEZZI P.I                    0003000008000100100P000000A
0414730004000990210179500000155SALSICCIA DI POLLO 100% PIEMONTE P.I.    0003000022000100100P000000A
0414750004002490210171400000155TAGLIATA DI SCOTTONA P.I.                0003000018000100100P000000A
0414760004002149210156500000155SCAMONE DI BOVINO ADULTO P.I             0002000008000100100P000000A
0414770004001690210020200000155HAMBURGER SCOTTONA P.I.                  0003000008000100100P000000A
0414780004002490210214100000155SOTTOFILETTO SCOTTONA P.I.               0003000008000100100P000000A
0414790004001649210224100000155SPEZZATINO SCOTTONA P.I.                 0003000008000100100P000000A
0414800004001090210223100000155BOLLITO CON OSSO SCOTTONA P.I.           0003000008000100100P000000A
0414810004001590210222100000155BOLLITO MAGRO SCOTTONA P.I.              0003000008000100100P000000A
0414820004001650210221100000155FETTINE PER PIZZAIOLA SCOTTONA P.I.      0003000008000100100P000000A
0414830004001650210220100000155FETTINE PER FERRI SCOTTONA P.I.          0003000008000100100P000000A
0414840004002149210219100000155FETTINE SCELTISSIME SCOTTONA P.I.        0003000008000100100P000000A
0414850004002590210217100000155CARPACCIO SCOTTONA P.I.                  0003000008000100100P000000A
0414860004002250210216100000155COSTATA SCOTTONA P.I.                    0003000008000100100P000000A
0414870004003690210215100000155FILETTO SCOTTONA P.I.                    0003000008000100100P000000A
0414880004002049210218100000155FETTINE SCELTE SCOTTONA P.I.             0003000008000100100P000000A
0414890004001290212142000000155GRIGLIATA MISTA DI SUINO. P.I.           0002000008000100100P000000A
0414900004000399219970000000155TESTINA  AGNELLO DI SARDEGNA IGP P.I.    0003000008000100100P000000A
0414910004000699219969000000155BIANCO/NERO  AGNELLO DI SARDEGNA IGP P.I 0003000008000100100P000000A
0414920004002390219968000000155COSTINE AGNELLO DI SARDEGNA IGP P.I.     0003000008000100100P000000A
0414930004001990219967000000155COSCE  AGNELLO DI SARDEGNA IGP P.I.      0003000008000100100P000000A
0414940004001890219966000000155SPALLE AGNELLO DI SARDEGNA IGP P.I.      0003000008000100100P000000A
0414950004000890210063100000155OSSIBUCHI BOVINO ADULTO P.I.             0002000008000100100P000000A
0414960004001390219247000000155FILETTO GRILL P.I                        0003000008000000100P000000A
