0700050007000590210011000000155SARDINE                                  0000000012000000100P000000A
0700250007001090210018000000155TRIGLIE DI FANGO                         0000000012000000100P000000A
0700370007001290210058000000155MOSCARDINI BIANCHI                       0000000012000000100P000000A
0700440007000850210070000000155GALLINELLA                               0000000012000000100P000000A
0700810007000790210126000000155PANNOCCHIE (cicale)                      0000000012000000100P000000A
0701430007001790210168000000155MAZZANCOLLA II°                          0000000012000000100P000000A
0701720007001490210075000000155SALMONE A TRANCE                         0000000012000000100P000000A
0702110007002290211132000000155CAPESANTE MEZZO GUSCIO                   0000000012000000100P000000A
0702150007002390211466000000155ROMBO CHIODATI GROSSI                    0000000012000000100P000000A
0702950007001850212625000000155TRIGLIE DI SCOGLIO                       0000000012000000100P000000A
0710370007001548211457000000155MOSCARDINI TAKE AWAY                     0000000012000000100P000000A
0711820007000791211461000000155SARDINE SPINATE TAKE AWAY                0000000012000000100P000000A
0202460002002850210231100000155BRESAOLA VALT.IGP P.D'ANCA KG3,2 CA      0000000006000000100P000000A
0218740002000990210214400000155BACIO DI BRUNA                           0000000006000000100P000000A
0105330001000389210446000000155ARANCE TAROCCO FOGLIA                    0000000006000000100P000000A
0700080007001290210015000000155SGOMBRI ESTERO                           0000000012000000100P000000A
0700130007002790210020000000155NASELLO          ***                     0000000012000000100P000000A
0700190007002990210056000000155OMBRINE GROSSE                           0000000012000000100P000000A
0700210007001390210125000000155SPINAROLO                                0000000012000000100P000000A
0700240007001390210030000000155FRITTURA DI PESCE                        0000000012000000100P000000A
0700370007002190210058000000155MOSCARDINI BIANCHI                       0000000012000000100P000000A
0700400007002590210063000000155TOTANI                                   0000000012000000100P000000A
0700440007000990210070000000155GALLINELLA                               0000000012000000100P000000A
0700600007001890210102000000155filetto persico                          0000000012000000100P000000A
0700840007004890210040000000155BRANZINO MARE MEDIO                      0000000012000000100P000000A
0700960007002990210060000000155SEPPIE MEDITERRANEO                      0000000012000000100P000000A
0701090007004790210129000000155ANGUILLA (capitone)                      0000000012000000100P000000A
0701800007001290211233000000155TONNETTO O ALLETTERATO         (201      0000000012000000100P000000A
0701930007000590211152000000155ALACCE                                   0000000012000000100P000000A
0703760007001690214248000000155PANNOCCHIA GROSSE                        0000000012000000100P000000A
0710370007002628211457000000155MOSCARDINI TAKE AWAY                     0000000012000000100P000000A
0202460002003576210231100000155BRESAOLA VALT.IGP P.D'ANCA KG3,2 CA      0000000006000000100P000000A
0218740002001361210214400000155BACIO DI BRUNA                           0000000006000000100P000000A
0108490001000229210358000000155POMODORO INSAL.                          0000000006000000100P000000A
0700790007002790210104000000155FILETTI DI MERLUZZO                      0000000012000000100P000000A
0710790007002790211450000000155FILETTO DI MERLUZZO NORDICOTAKE AWAY     0000000012000000100P000000A
0200970002003787215020000000155PROSCIUTTO CRUDO SAN DANIELE DOP         0000000006000000100P000000A
0219060002003998210082900000155PROSC.CR.S.DANIELE DOP RUSTICO KG.7,5 CA 0000000006000000100P000000A
0100870001000500212955000000155CAVOLFIORE VIOLA KG.8 CA                 0000000004000000100P000000A
0102590001000399210322000000155MELANZANA TONDA OF                       0000000004000000100P000000A
0102620001000399210321000000155MELANZANA TONDA                          0000000004000000100P000000A
0102650001000449210320000000155MELANZANE VIOLA                          0000000004000000100P000000A
0105330001000399210446000000155ARANCE TAROCCO FOGLIA                    0000000006000000100P000000A
0700050007000690210011000000155SARDINE                                  0000000012000000100P000000A
0700110007002990210152000000155VONGOLE VERACI EXTRA                     0000000012000000100P000000A
0700130007002690210020000000155NASELLO          ***                     0000000012000000100P000000A
0700150007004890210022000000155RANA PESCATRICE                          0000000012000000100P000000A
0700170007001890210025000000155MERLANO                                  0000000012000000100P000000A
0700250007001190210018000000155TRIGLIE DI FANGO                         0000000012000000100P000000A
0700440007000690210070000000155GALLINELLA                               0000000012000000100P000000A
0700450007003390210141000000155TARTUFI DI MARE                          0000000012000000100P000000A
0700510007003290210082000000155SOGLIOLA                                 0000000012000000100P000000A
0700550007001790210093000000155SCAMPETTI                                0000000012000000100P000000A
0700640007001990210109000000155FASOLARI                                 0000000012000000100P000000A
0700830007004990210023000000155RANA PESCATRICE TRANCE                   0000000012000000100P000000A
0700900007001290210041100000155PALAMITA                                 0000000012000000100P000000A
0701170007000990210010000000155ACCIUGHE                                 0000000012000000100P000000A
0701190007002790210092000000155SCAMPI MEDI                              0000000012000000100P000000A
0701560007003390210906000000155POLPO GRANDE                             0000000012000000100P000000A
0702110007002390211132000000155CAPESANTE MEZZO GUSCIO                   0000000012000000100P000000A
0702200007003590211047000000155SOGLIOLA III                             0000000012000000100P000000A
0703120007002150213139000000155FILETTO DI SCORFANO ATLANTICO            0000000012000000100P000000A
0710150007004890211458000000155PESCATRICE 1/2 TAKE AWAY                 0000000012000000100P000000A
0710510007003652211465000000155SOGLIOLE TAKE AWAY                       0000000012000000100P000000A
0710550007001790212686000000155scampetti TAKE AWAY                      0000000012000000100P000000A
0710830007004990211459000000155PESCATRICE 2/4 TAKE AWAY                 0000000012000000100P000000A
0711190007002790212692000000155SCAMPI 16/20 TAKE AWAY                   0000000012000000100P000000A
0711820007000925211461000000155SARDINE SPINATE TAKE AWAY                0000000012000000100P000000A
0712000007001317211456000000155ALICI SPINATE TAKE AWAY                  0000000012000000100P000000A
0712120007002150213196000000155FIL. SCORFAN TAKE AWAY                   0000000012000000100P000000A
0712540007001317212700000000155alici spinate TAKE AWAY        (266      0000000012000000100M000000A
0200380002000890213106000000155MORTADELLA STELLA NEGRONI                0000000006000000100P000000A
0204470002001994210355600000155PRIMOSALE CAPRA G.200 CA 3B LATTE        0000000028000000100P000000A
0100880001000299212962000000155CAVOLFIORE VERDE                         0000000004000000100P000000A
0700030007000790210008000000155VONGOLA (LUPINO)                         0000000012000000100P000000A
0700130007002290210020000000155NASELLO          ***                     0000000012000000100P000000A
0700150007004990210022000000155RANA PESCATRICE                          0000000012000000100P000000A
0700210007002290210125000000155SPINAROLO                                0000000012000000100P000000A
0700240007001690210030000000155FRITTURA DI PESCE                        0000000012000000100P000000A
0700440007000950210070000000155GALLINELLA                               0000000012000000100P000000A
0700580007001990210110000000155LUMACHINO                                0000000012000000100P000000A
0700910007002590210108000000155FILETTI DI SALMONE                       0000000012000000100P000000A
0701430007002390210168000000155MAZZANCOLLA II°                          0000000012000000100P000000A
0701610007001390219802000000155OSTRICA CONCAVA (SELEZIONE SPEZIA)       0000000012000000100P000000A
0702110007002490211132000000155CAPESANTE MEZZO GUSCIO                   0000000012000000100P000000A
0702630007001790212624000000155PESCE SERRA                              0000000012000000100P000000A
0703670007002290210163700000155CALAMARO 100/300                         0000000012000000100P000000A
0710030007000790212693000000155VONGOLA LUPINO TAKE AWAY                 0000000012000000100P000000A
0710150007004990211458000000155PESCATRICE 1/2 TAKE AWAY                 0000000012000000100P000000A
0710910007002590212785000000155FILETTO SALMONE TAKE AWAY                0000000012000000100P000000A
0205510002001499219030000000155BUGIA PIATTA                             0030000006000000100P000000A
0402020004002190217039000000155SPALLA VITELLONE S/O                     0000000008000000100P000000A
0402120004001390217035000000155PANCIA VITELLONE S/O                     0000000008000000100P000000A
0402130004001090217034000000155PANCIA VITELLONE C/O.                    0000000008000000100P000000A
0402160004001990217156000000155SABRINA                                  0000000008000000100P000000A
0402320004001490216803000000155CODE DI BOVINO ADULTO             (242   0000000008000000100P000000A
0402430004001490217255000000155ARROTOLATO BOVINO ADULTO.                0000000008000000100P000000A
0403080004001390217105000000155SPIEDINI MAIALE                          0000000008000000100P000000A
0403790004000000000000000000055                                         0000000000000000100P000000D
0406090004001990210408200000155CAMPANELLO VITELLO                       0000000008000000100P000000A
0406100004002090211685000000155FETTINE SCELTISSIME BOVINO ADULTO.       0000000008000000100P000000A
0406110004001990211684000000155FETTINE SCELTE BOVINO ADULTO.            0000000008000000100P000000A
0406120004002490211794000000155FETTINE SCELTISSIME VITELLO.             0000000008000000100P000000A
0406130004002190211793000000155FETTINE SCELTE VITELLO.                  0000000008000000100P000000A
0407770004001090217097000000155COPPA MAIALE S/O                         0000000008000000100P000000A
0407830004000790211777000000155COTENNA SUINO                            0000000008000000100P000000A
0408140004002190211902000000155ARROSTO SCELTO VITELLO.                  0000000008000000100P000000A
0408350004002090212157000000155REALE DI VITELLO                         0000000008000000100P000000A
0408400004001490212164000000155CODE DI VITELLO.                         0000000008000000100P000000A
0408430004001990212172000000155COSCIA D'AGNELLO NAZIONALE               0000000008000000100P000000A
0408450004002290212174000000155COSTOLETTE D'AGNELLO NAZIONALE           0000000008000000100P000000A
0408470004000350212176000000155TESTINA D'AGNELLO                        0000000008000000100M000000A
0700050007000590210011000000155SARDINE                                  0000000012000000100P000000A
0700100007000590210017000000155SUGARELLI/SURI                           0000000012000000100P000000A
0700130007002590210020000000155NASELLO          ***                     0000000012000000100P000000A
0700210007001990210125000000155SPINAROLO                                0000000012000000100P000000A
0700250007000990210018000000155TRIGLIE DI FANGO                         0000000012000000100P000000A
0700380007003190210059000000155POLPO                                    0000000012000000100P000000A
0700400007001790210063000000155TOTANI                                   0000000012000000100P000000A
0700440007000790210070000000155GALLINELLA                               0000000012000000100P000000A
0700510007003450210082000000155SOGLIOLA                                 0000000012000000100P000000A
0700580007002490210110000000155LUMACHINO                                0000000012000000100P000000A
0700780007001590210019000000155TRIGLIE GR. DI FANGO                     0000000012000000100P000000A
0700810007000650210126000000155PANNOCCHIE (cicale)                      0000000012000000100P000000A
0701170007000890210010000000155ACCIUGHE                                 0000000012000000100P000000A
0701730007004990210915000000155ORATA MARE GROSSA                        0000000012000000100P000000A
0701930007000390211152000000155ALACCE                                   0000000012000000100P000000A
0701950007002290210108300000155RICCIOLA OCEANICA 600/800                0000000012000000100P000000A
0701960007002290210255800000155RICCIOLA OCEANICA 800/1200               0000000012000000100P000000A
0702200007003790211047000000155SOGLIOLA III                             0000000012000000100P000000A
0702210007004890210146000000155CALAMARETTI                              0000000012000000100P000000A
0702890007001990212741000000155ORATA GROSSA ITALIA                      0000000012000000100P000000A
0710510007003830211465000000155SOGLIOLE TAKE AWAY                       0000000012000000100P000000A
0711820007000791211461000000155SARDINE SPINATE TAKE AWAY                0000000012000000100P000000A
0712000007001184211456000000155ALICI SPINATE TAKE AWAY                  0000000012000000100P000000A
0712540007001184212700000000155alici spinate TAKE AWAY        (266      0000000012000000100M000000A
0201770002001290210403100000155FORM.CARLOMAGNO 1/2 SV KG.2,5 CA QUAGLIA 0000000006000000100P000000A
0202220002001690210512200000155GUANCIALE PATANEGRA                      0000000006000000100P000000A
0202480002001990210410400000155PROSC.COTTO ALLE ERBE KG.8 CA RASPINI    0000000006000000100P000000A
0403590004001090214023000000155MEZZO POLLO ALLO SPIEDO                  0000000018000000100P000000A
0700020007002690210006000000155VONGOLE VERACI GROSSE                    0000000012000000100P000000A
0700210007001490210125000000155SPINAROLO                                0000000012000000100P000000A
0700250007000890210018000000155TRIGLIE DI FANGO                         0000000012000000100P000000A
0700290007001990210048000000155PAGRO                                    0000000012000000100P000000A
0700340007002290210054000000155MORMORE                                  0000000012000000100P000000A
0700370007001790210058000000155MOSCARDINI BIANCHI                       0000000012000000100P000000A
0700380007002790210059000000155POLPO                                    0000000012000000100P000000A
0700400007001990210063000000155TOTANI                                   0000000012000000100P000000A
0700440007000990210070000000155GALLINELLA                               0000000012000000100P000000A
0700780007001690210019000000155TRIGLIE GR. DI FANGO                     0000000012000000100P000000A
0700810007000690210126000000155PANNOCCHIE (cicale)                      0000000012000000100P000000A
0701560007002790210906000000155POLPO GRANDE                             0000000012000000100P000000A
0702950007001690212625000000155TRIGLIE DI SCOGLIO                       0000000012000000100P000000A
0703150007000990210367800000155GRANCHIO NUOTATORE (BLU)                 0000000012000000100P000000A
0703760007001990214248000000155PANNOCCHIA GROSSE                        0000000012000000100P000000A
0705140007004842211205000000155VONGOLE VERACI AL VERDE                  0000000012000000100P000000A
0705150007004842211054000000155SUGO ROSSO ALLE VONGOLE                  0000000012000000100P000000A
0710020007002690212694000000155VONGOLE VERACI GR. TAKE AWAY             0000000012000000100P000000A
0710370007002148211457000000155MOSCARDINI TAKE AWAY                     0000000012000000100P000000A
0202460002002850210231100000155BRESAOLA VALT.IGP P.D'ANCA KG3,2 CA      0000000006000000100P000000A
0203590002000890210241900000155PROSC.COTTO INDOMITO KG.7 CA KOMETA      0000000006000000100P000000A
0213500002002590217928000000155BRESAOLA CHIAVENNA KG.3 CA PANZERI       0000000006000000100P000000A
0218740002000990210214400000155BACIO DI BRUNA                           0000000006000000100P000000A
0700130007002190210020000000155NASELLO          ***                     0000000012000000100P000000A
0700150007004890210022000000155RANA PESCATRICE                          0000000012000000100P000000A
0700160007004990210024000000155PESCE SPADA                              0000000012000000100P000000A
0700200007002090210124000000155MERLUZZO                                 0000000012000000100P000000A
0700250007001090210018000000155TRIGLIE DI FANGO                         0000000012000000100P000000A
0700320007002390210052000000155SARAGHI                                  0000000012000000100P000000A
0700370007002390210058000000155MOSCARDINI BIANCHI                       0000000012000000100P000000A
0700380007002890210059000000155POLPO                                    0000000012000000100P000000A
0700440007000890210070000000155GALLINELLA                               0000000012000000100P000000A
0700470007004990210076000000155PESCE SAN PIETRO                         0000000012000000100P000000A
0700510007003590210082000000155SOGLIOLA                                 0000000012000000100P000000A
0700580007002690210110000000155LUMACHINO                                0000000012000000100P000000A
0700630007003790210123000000155SCORFANO                                 0000000012000000100P000000A
0700670007005990210090000000155SCAMPI EXTRA                             0000000012000000100P000000A
0700720007003590210038000000155BRANZINO MARE PORZIONE                   0000000012000000100P000000A
0700810007000990210126000000155PANNOCCHIE (cicale)                      0000000012000000100P000000A
0700840007003990210040000000155BRANZINO MARE MEDIO                      0000000012000000100P000000A
0700940007000450210142000000155CEFALI (muggini)                         0000000012000000100P000000A
0701110007002390210077000000155ROMBO CHIODATO                           0000000012000000100P000000A
0701190007002990210092000000155SCAMPI MEDI                              0000000012000000100P000000A
0701410007001090210867000000155FILETTO DI ARINGA                        0000000012000000100P000000A
0701430007002590210168000000155MAZZANCOLLA II°                          0000000012000000100P000000A
0701560007002890210906000000155POLPO GRANDE                             0000000012000000100P000000A
0701810007002790211589000000155DENTICE ATLANTICO                        0000000012000000100P000000A
0702200007003990211047000000155SOGLIOLA III                             0000000012000000100P000000A
0702360007001790211347000000155GALLINELLA I PREZZO                      0000000012000000100P000000A
0702910007002990212671000000155CERNIA INDOPACIFICA                      0000000012000000100P000000A
0703930007005390214535000000155ASTICE AMERICANO 3-4 PEZZI               0000000012000000100P000000A
0704620007001890210305900000155OMBRINE BOCCADORO 2/4  1 PEZZO           0000000012000000100P000000A
0705090007001515211194000000155ARINGHE pastellate                       0000000012000000100P000000A
0710150007004890211458000000155PESCATRICE 1/2 TAKE AWAY                 0000000012000000100P000000A
0710160007004990212658000000155PESCE SPADA TAKE AWAY                    0000000012000000100P000000A
0710370007002868211457000000155MOSCARDINI TAKE AWAY                     0000000012000000100P000000A
0710510007003985211465000000155SOGLIOLE TAKE AWAY                       0000000012000000100P000000A
0711190007002990212692000000155SCAMPI 16/20 TAKE AWAY                   0000000012000000100P000000A
0711410007001090212690000000155FIL. DI ARINGA TAKE AWAY                 0000000012000000100P000000A
0712020007006238211454000000155CARPACCIO DI SPADA TAKE AWAY             0000000012000000100P000000A
0202460002003576210231100000155BRESAOLA VALT.IGP P.D'ANCA KG3,2 CA      0000000006000000100P000000A
0203590002001150210241900000155PROSC.COTTO INDOMITO KG.7 CA KOMETA      0000000006000000100P000000A
0218740002001361210214400000155BACIO DI BRUNA                           0000000006000000100P000000A
0700050007000690210011000000155SARDINE                                  0000000012000000100P000000A
0700150007004990210022000000155RANA PESCATRICE                          0000000012000000100P000000A
0700210007001590210125000000155SPINAROLO                                0000000012000000100P000000A
0700240007001890210030000000155FRITTURA DI PESCE                        0000000012000000100P000000A
0700250007001190210018000000155TRIGLIE DI FANGO                         0000000012000000100P000000A
0700380007003190210059000000155POLPO                                    0000000012000000100P000000A
0700420007009990210068000000155ROSSETTI                                 0000000012000000100P000000A
0700510007003450210082000000155SOGLIOLA                                 0000000012000000100P000000A
0700550007002190210093000000155SCAMPETTI                                0000000012000000100P000000A
0700690007004490210091000000155SCAMPI GROSSI                            0000000012000000100P000000A
0700810007001190210126000000155PANNOCCHIE (cicale)                      0000000012000000100P000000A
0701170007000990210010000000155ACCIUGHE                                 0000000012000000100P000000A
0701190007003190210092000000155SCAMPI MEDI                              0000000012000000100P000000A
0701430007003390210168000000155MAZZANCOLLA II°                          0000000012000000100P000000A
0701560007003290210906000000155POLPO GRANDE                             0000000012000000100P000000A
0702200007003890211047000000155SOGLIOLA III                             0000000012000000100P000000A
0702860007002090210890000000155ORATE G. 1000/UP                         0000000012000000100P000000A
0703760007003390214248000000155PANNOCCHIA GROSSE                        0000000012000000100P000000A
0704620007001990210305900000155OMBRINE BOCCADORO 2/4  1 PEZZO           0000000012000000100P000000A
0710150007004990211458000000155PESCATRICE 1/2 TAKE AWAY                 0000000012000000100P000000A
0710510007003830211465000000155SOGLIOLE TAKE AWAY                       0000000012000000100P000000A
0710550007002190212686000000155scampetti TAKE AWAY                      0000000012000000100P000000A
0711190007003190212692000000155SCAMPI 16/20 TAKE AWAY                   0000000012000000100P000000A
0711820007000925211461000000155SARDINE SPINATE TAKE AWAY                0000000012000000100P000000A
0712000007001317211456000000155ALICI SPINATE TAKE AWAY                  0000000012000000100P000000A
0712540007001317212700000000155alici spinate TAKE AWAY        (266      0000000012000000100M000000A
0201060002000790210398700000155RICOTTA FRESCA KG.1,5 CA LA CASCINOTTA   0000000006000000100P000000A
0201290002001390210077900000155GORGONZOLA AL CUCCHIAIO                  0000000006000000100P000000A
0208210002002590210359500000155PROSC.COTTO INT.KG.10 CA NAZ.PERNIGOTTI  0000000006000000100P000000A
0212420002001677210265600000155GUANCIALE NAZIONALE KG.1 CA SV COATI     0000000006000000100P000000A
0403790004000790000000000000055                                         0000000000000000100P000000D
0700210007001890210125000000155SPINAROLO                                0000000012000000100P000000A
0700240007002490210030000000155FRITTURA DI PESCE                        0000000012000000100P000000A
0700250007001390210018000000155TRIGLIE DI FANGO                         0000000012000000100P000000A
0700400007002990210063000000155TOTANI                                   0000000012000000100P000000A
0700450007004990210141000000155TARTUFI DI MARE                          0000000012000000100P000000A
0700630007004890210123000000155SCORFANO                                 0000000012000000100P000000A
0700760007005490210100000000155ASTICE AMERICANO                         0000000012000000100P000000A
0700810007000990210126000000155PANNOCCHIE (cicale)                      0000000012000000100P000000A
0701190007003390210092000000155SCAMPI MEDI                              0000000012000000100P000000A
0701430007002690210168000000155MAZZANCOLLA II°                          0000000012000000100P000000A
0701560007003490210906000000155POLPO GRANDE                             0000000012000000100P000000A
0702950007001390212625000000155TRIGLIE DI SCOGLIO                       0000000012000000100P000000A
0711190007003390212692000000155SCAMPI 16/20 TAKE AWAY                   0000000012000000100P000000A
0200110002001530215271000000155GORGONZOLA GIM INVERNIZZI KG.6           0005000006000000100P000000A
0200130002001361215015000000155CERTOSA                                  0000000006000000100P000000A
0200190002002190218991000000155PROSCIUTTO COTTO GRANBISCOTTO            0000000006000000100P000000A
0200370002003790210399200000155PR.CRUDO S.DANIELE 18M S/O PRESS.KG.7 CA 0000000006000000100P000000A
0200380002001466213106000000155MORTADELLA STELLA NEGRONI                0000000006000000100P000000A
0200590002001783210085900000155ASIAGO FR.DOP NERO CHIODO KG.14 CA       0000000006000000100P000000A
0201060002000990210398700000155RICOTTA FRESCA KG.1,5 CA LA CASCINOTTA   0000000006000000100P000000A
0201150002001677210027000000155GRANA PADANO DOP                         0000000006000000100P000000A
0201180002002099213262000000155PARMIG.REGGIANO D.O.P.  FORMA DORO 22 M. 0000000006000000100P000000A
0201290002002099210077900000155GORGONZOLA AL CUCCHIAIO                  0000000006000000100P000000A
0201330002005897210277100000155CULATELLO TRAD.KG4,5 CA NAZ.PRONTOTAGLIO 0000000006000000100P000000A
0201540002002521215332000000155MANZO STUFATO AFFUMICATO                 0000000006000000100P000000A
0201770002001890210403100000155FORM.CARLOMAGNO 1/2 SV KG.2,5 CA QUAGLIA 0000000006000000100P000000A
0201960002006319215034000000155SALMONE AFFUMICATO                       0000000006000000100P000000A
0202070002007374215343000000155PINOLI                                   0020000006000000100P000000A
0202250002002990210392400000155FIOCCO CAPRA TARTUFO G.250 CA BOTALLA.   0000000006000000100P000000A
0202870002002416210002300000155CIMA VITELLO KG.3 CA                     0000000006000000100P000000A
0202900002001213210007900000155INSALATA RUSSA KG.2 CA.                  0000000006000000100P000000A
0202920002002310210166600000155FILETTI ALICI MARINATE KG.2 CA           0000000006000000100P000000A
0202940002001044210041200000155OLIVE PICCANTI KG 5 CA                   0000000006000000100P000000A
0203480002001466210008200000155INSALATA CAPRICCIOSA KG.2 CA             0000000006000000100P000000A
0204560002001530219765000000155PROSC.COTTO GRANROSA KG.7,8 C.A.         0000000006000000100P000000A
0206350002002290210383400000155PORCHETTA DI ARICCIA IGP                 0005000006000000100P000000A
0207020002003154213562000000155PROSCIUTTO DI PARMA DOP                  0000000006000000100P000000A
0208210002003154210359500000155PROSC.COTTO INT.KG.10 CA NAZ.PERNIGOTTI  0000000006000000100P000000A
0208320002002732214828000000155SALAME GOLFETTA                          0000000006000000100P000000A
0213240002001783214727000000155PAGLIERINA G.200 C.A.X 3 PZ GHIB         0000000006000000100P000000A
0213500002003682217928000000155BRESAOLA CHIAVENNA KG.3 CA PANZERI       0000000006000000100P000000A
0213660002002732210183400000155FIOCCO DI NEVE                           0000000006000000100P000000A
0213800002002732210258300000155COPPA PARMA IGP                          0000000006000000100P000000A
0219080002004209210217200000155BRESAOLA PUNTA D'ANCA                    0000000006000000100P000000A
0220250002001888216410000000155LARDO AL BASILICO LIG.KG.3 C.A.          0000000006000000100P000000A
0224740002002416217754000000155GALANTINA                                0000000006000000100P000000A
0225180002001950216260000000155SALAME S.OLCESE                          0025000006000000100P000000A
0225210002002838212594000000155CAPRITILLA                               0000000006000000100P000000A
0225470002001994214534000000155SPECK LAURIN                             0000000006000000100P000000A
0227190002003893213996000000155PROSCIUTTO CRUDO PARMA 20 MESI DEVODIER  0000000006000000100P000000A
0229390002003893210077400000155PROSCIUTTO CRUDO PARMA 20 MESI DEVODIER  0000000006000000100P000000A
0229640002001783210241100000155FONTAL FONTEGIDIA                        0000000006000000100P000000A
0229960002001044210101900000155CRESCENZA IRENE                          0000000006000000100P000000A
0401120004000000000000000000055                                         0000000000000000100P000000D
0403790004000000000000000000055                                         0000000000000000100P000000D
0103260001000590210788000000155POMODORO CUORE BUE                       0000000004000000100P000000A
0106020001000299210568000000155MELE GOLDEN MELINDA                      0000000004000000100P000000A
0200190002002090218991000000155PROSCIUTTO COTTO GRANBISCOTTO            0000000006000000100P000000A
0201490002001690210075600000155GRAN FESA TACCHINO ARROSTO               0000000006000000100P000000A
0202200002002990210374900000155CULATTA INT.SV KG.5 CA CAPANNA           0000000006000000100P000000A
0202600002000990215612000000155GORGONZOLA DOP IGOR                      0000000006000000100P000000A
0203100002001090215073000000155RACLETTE                                 0000000006000000100P000000A
0203790002001190215855000000155RASCHERA LATTE CRUDO DOP                 0000000006000000100P000000A
0206090002000690219597000000155MORTADELLA GRANROSA                      0000000006000000100P000000A
0213890002000990210167900000155PRIMO SALE PIST.VACCA BRUNA              0000000006000000100P000000A
0218850002001490210354700000155STRACCIATELLA DELIZIOSA                  0000000006000000100P000000A
0225210002002390212594000000155CAPRITILLA                               0000000006000000100P000000A
0232870002000129212267600000155INVOLTINO PROSC.COTTO/RUSSA              0000000006000000100M000000A
0401120004000129000000000000055                                         0000000000000000100P000000D
0403790004000129000000000000055                                         0000000000000000100P000000D
0109860001000499210842000000155UVA BIANCA                               0000000006000000100P000000A
0109050001000790213097000000155NOCI SFUSE                               0000000004000000100P000000A
0700150007005490210022000000155RANA PESCATRICE                          0000000012000000100P000000A
0700210007002190210125000000155SPINAROLO                                0000000012000000100P000000A
0700250007001090210018000000155TRIGLIE DI FANGO                         0000000012000000100P000000A
0700270007002990210046000000155ORATA MARE porzione                      0000000012000000100P000000A
0700370007001650210058000000155MOSCARDINI BIANCHI                       0000000012000000100P000000A
0700400007000990210063000000155TOTANI                                   0000000012000000100P000000A
0700640007001890210109000000155FASOLARI                                 0000000012000000100P000000A
0700810007001490210126000000155PANNOCCHIE (cicale)                      0000000012000000100P000000A
0700830007005490210023000000155RANA PESCATRICE TRANCE                   0000000012000000100P000000A
0701400007002290210139000000155FILETTO DI PLATESSA                      0000000012000000100P000000A
0701560007003350210906000000155POLPO GRANDE                             0000000012000000100P000000A
0702200007004190211047000000155SOGLIOLA III                             0000000012000000100P000000A
0702360007001990211347000000155GALLINELLA I PREZZO                      0000000012000000100P000000A
0702950007001690212625000000155TRIGLIE DI SCOGLIO                       0000000012000000100P000000A
0703130007004490212752000000155RANA PESCATRICE                          0000000012000000100P000000A
0705160007002519211204000000155PLATESSA GRATINATA                       0000000012000000100P000000A
0705310007002405212796000000155TORTINO DI PLATESSA                      0000000012000000100P000000A
0710150007005490211458000000155PESCATRICE 1/2 TAKE AWAY                 0000000012000000100P000000A
0710370007001980211457000000155MOSCARDINI TAKE AWAY                     0000000012000000100P000000A
0710830007005490211459000000155PESCATRICE 2/4 TAKE AWAY                 0000000012000000100P000000A
0711400007002290211453000000155FILETTO DI PLATESSA TAKE AWAY            0000000012000000100P000000A
0713040007002519211442000000155FILETTO DI PLATESSA IMPANATO             0000000012000000100P000000A
0700250007001490210018000000155TRIGLIE DI FANGO                         0000000012000000100P000000A
0700370007002590210058000000155MOSCARDINI BIANCHI                       0000000012000000100P000000A
0700390007001790210061000000155SEPPIE                                   0000000012000000100P000000A
0700630007004190210123000000155SCORFANO                                 0000000012000000100P000000A
0700640007001990210109000000155FASOLARI                                 0000000012000000100P000000A
0700810007001650210126000000155PANNOCCHIE (cicale)                      0000000012000000100P000000A
0702030007002864211179000000155SEPPIE TAGLIATE                          0000000012000000100P000000A
0703930007005690214535000000155ASTICE AMERICANO 3-4 PEZZI               0000000012000000100P000000A
0705030007002864211053000000155SEPPIE CON PISELLI                       0000000012000000100P000000A
0705080007002864210969000000155SEPPIE AL VAPORE CON PATATE              0000000012000000100P000000A
0705130007002864211206000000155FRITTO SEPPIE E GAMBERI                  0000000012000000100P000000A
0710370007003108211457000000155MOSCARDINI TAKE AWAY                     0000000012000000100P000000A
0712030007002864212697000000155SEPPIE TAGLIATE TAKE AWAY                0000000012000000100P000000A
0713050007002596211443000000155SEPPIE RIPIENE                           0000000012000000100P000000A
0700030007000890210008000000155VONGOLA (LUPINO)                         0000000012000000100P000000A
0700240007002190210030000000155FRITTURA DI PESCE                        0000000012000000100P000000A
0700510007003990210082000000155SOGLIOLA                                 0000000012000000100P000000A
0700550007002690210093000000155SCAMPETTI                                0000000012000000100P000000A
0700630007004990210123000000155SCORFANO                                 0000000012000000100P000000A
0700690007004690210091000000155SCAMPI GROSSI                            0000000012000000100P000000A
0700720007003890210038000000155BRANZINO MARE PORZIONE                   0000000012000000100P000000A
0700810007000990210126000000155PANNOCCHIE (cicale)                      0000000012000000100P000000A
0700840007004490210040000000155BRANZINO MARE MEDIO                      0000000012000000100P000000A
0701190007003490210092000000155SCAMPI MEDI                              0000000012000000100P000000A
0701390007004190210160000000155MAZZANCOLLA                              0000000012000000100P000000A
0701430007002390210168000000155MAZZANCOLLA II°                          0000000012000000100P000000A
0701730007005990210915000000155ORATA MARE GROSSA                        0000000012000000100P000000A
0702360007001690211347000000155GALLINELLA I PREZZO                      0000000012000000100P000000A
0703760007002790214248000000155PANNOCCHIA GROSSE                        0000000012000000100P000000A
0710030007000890212693000000155VONGOLA LUPINO TAKE AWAY                 0000000012000000100P000000A
0710510007004429211465000000155SOGLIOLE TAKE AWAY                       0000000012000000100P000000A
0710550007002690212686000000155scampetti TAKE AWAY                      0000000012000000100P000000A
0711190007003490212692000000155SCAMPI 16/20 TAKE AWAY                   0000000012000000100P000000A
0203970002001572210395100000155FORM.BORMIO KG.10 CA                     0005000006000000100P000000A
0203980002001424210225300000155TOMA VALLE PICCOLA KG.2 C.A.             0000000006000000100P000000A
0203990002002943210228300000155IL BLU DI GROTTA KG.1,5 CA BOTALLA       0000000006000000100P000000A
0100320001000359210206000000155CAVOLO ROMANESCO                         0000000004000000100P000000A
0103130001000299210354000000155POMODORO INSALATA                        0000000004000000100P000000A
0103140001000349210366000000155POMODORO GRAPPOLO                        0000000004000000100P000000A
0103360001000349210369000000155POMODORO GRAPPOLO OF                     0000000004000000100P000000A
0108490001000299210358000000155POMODORO INSAL.                          0000000006000000100P000000A
0700250007001290210018000000155TRIGLIE DI FANGO                         0000000012000000100P000000A
0700380007003390210059000000155POLPO                                    0000000012000000100P000000A
0700580007001790210110000000155LUMACHINO                                0000000012000000100P000000A
0700630007003990210123000000155SCORFANO                                 0000000012000000100P000000A
0700930007001490210029000000155ZUPPA DI PESCE                           0000000012000000100P000000A
0701250007005490210039000000155BRANZINO MARE GROSSO                     0000000012000000100P000000A
0701430007002190210168000000155MAZZANCOLLA II°                          0000000012000000100P000000A
0702360007001190211347000000155GALLINELLA I PREZZO                      0000000012000000100P000000A
0200190002002190218991000000155PROSCIUTTO COTTO GRANBISCOTTO            0000000006000000100P000000A
0201490002002310210075600000155GRAN FESA TACCHINO ARROSTO               0000000006000000100P000000A
0202200002004209210374900000155CULATTA INT.SV KG.5 CA CAPANNA           0000000006000000100P000000A
0202600002001572215612000000155GORGONZOLA DOP IGOR                      0000000006000000100P000000A
0203100002001888215073000000155RACLETTE                                 0000000006000000100P000000A
0203790002001888215855000000155RASCHERA LATTE CRUDO DOP                 0000000006000000100P000000A
0206090002001150219597000000155MORTADELLA GRANROSA                      0000000006000000100P000000A
0213890002001572210167900000155PRIMO SALE PIST.VACCA BRUNA              0000000006000000100P000000A
0218850002001888210354700000155STRACCIATELLA DELIZIOSA                  0000000006000000100P000000A
0225210002002838212594000000155CAPRITILLA                               0000000006000000100P000000A
0232870002000315212267600000155INVOLTINO PROSC.COTTO/RUSSA              0000000006000000100M000000A
0401120004000000000000000000055                                         0000000000000000100P000000D
0403790004000000000000000000055                                         0000000000000000100P000000D
0406800004002490210210900000155SOTTOFILETTO B.A CASTRATO                0000000008000000100P000000A
0407270004001590210149400000155CODA SCOTTONA ITALIA                     0000000008000000100P000000A
0414780004002590210214100000155SOTTOFILETTO SCOTTONA P.I.               0003000008000100100P000000A
0414970004002390210064100000155SOTTOFILETTO BOVINO ADULTO P.I.          0003000008000100100P000000A
0109860001000690210842000000155UVA BIANCA                               0000000006000000100P000000A
0200130002001290215015000000155CERTOSA                                  0000000006000000100P000000A
0200430002000395218134000000155PANE DI TRIORA                           0000000006000000100P000000A
0200770002001290216364000000155SCAMORZA BIANCA                          0005000006000000100P000000A
0200790002002109219479000000155SQUACQUERIN G.800 C.A.*                  0000000006000000100P000000A
0200800002001290216365000000155SCAMORZA AFFUMICATA                      0000000006000000100P000000A
0200810002000990216378000000155CUORE DI LATTE KG.2,2 CA CAS.LA FONTE    0000000006000000100P000000A
0201050002001361210070400000155PRIMOSALE FRESCO KG.2 CA F.LLI VI        0000000006000000100P000000A
0201060002000990210398700000155RICOTTA FRESCA KG.1,5 CA LA CASCINOTTA   0000000006000000100P000000A
0201140002001677210065300000155TOMA CONT.INT.KG.8 CA A LATTE CRUDO      0000000006000000100P000000A
0201160002000990210400200000155OLIVE VERDI SCHIACC.PICC.KG.2 CA FRAT.VI 0000000006000000100P000000A
0201330002005490210277100000155CULATELLO TRAD.KG4,5 CA NAZ.PRONTOTAGLIO 0000000006000000100P000000A
0201790002001590214258000000155MOZZARELLA BUFALA DOP LA PERLA           0000000006000000100P000000A
0201870002001466210096800000155MOZZ.F.DI LATTE CIUFFO G.250 CA F.LLI VI 0000000006000000100P000000A
0201880002001741210067400000155TOMA BLU DEI F.LLI VI INT.ERBORINATA     0005000006000000100P000000A
0201890002001990210097600000155SAL."N'DUJA" CALAB.GRANDE KG.2,5         0000000006000000100P000000A
0201900002002190210069300000155TOMA PURA CAPRA KG.5 INT.F.LLI VI        0000000006000000100P000000A
0201910002001590210070500000155TOMA PIAN DEL SOLE INT.KG.7 CA LATTE CR. 0000000006000000100P000000A
0201920002000990210396300000155OLIVE NERE COND.PICC.KG.2 CA FRAT.VI     0000000006000000100P000000A
0201930002001572210063900000155SCAMORZONE FIASCH. AFF.KG.4,5CA F.LLI VI 0000000006000000100P000000A
0201940002002099210400900000155ROBIOL.CREM.PRIMAV. G.250 FRATELLI VI    0000000006000000100P000000A
0201950002002490210400600000155TRONCHETTO PURA CAPRA KG.1 CA FRAT.VI    0000000006000000100P000000A
0201980002001290210400300000155OLIVE NERE FORNO KG.2 CA FRAT.VI         0000000006000000100P000000A
0202000002001414210241700000155PANCETTA BACON KG.2 CA F.LLI VI          0000000006000000100P000000A
0202530002002479210068900000155ERB.CAPRA CREMOSO KG.1,5 CA F.LLI VI     0005000006000000100P000000A
0202710002001490210401100000155OLIVE NERE RIVIERA DEN.KG.1,8 CA FRAT.VI 0000000006000000100P000000A
0202770002001255210241600000155SOFFICETTA DI LATTE KG.2 CA F.LLI VI     0000000006000000100P000000A
0202790002001783210066600000155TOMA GIAND.INT.KG.4 FRATELLI VI          0000000006000000100P000000A
0202860002001783210097500000155PIZZICOTTO KG.1 AFF.SCAMORZA F.LLI VI    0000000006000000100P000000A
0202910002002943210002700000155GAMBERI IN MAIONESE KG1 CA               0000000006000000100P000000A
0203240002001106216327000000155RICOTTINA PUGLIESE                       0000000006000000100P000000A
0203670002000399210073200000155PANE ASS.ALL'ACQUA ANT.FORN.GENOVESE     0000000006000000100P000000A
0203680002000429210073300000155PANE GRANO DURO                          0000000006000000100P000000A
0203720002001590210073400000155FOCACCIA GENOV.C/CIPOLLA ANT.FORN.GENOV. 0000000006000000100P000000A
0203730002001590210073500000155FOCACCIA C/FORMAGGIO ANT.FORN.GENOVESE   0000000006000000100P000000A
0203760002001590210073600000155PIZZA ANT.FORNERIA GENOVESE              0000000006000000100P000000A
0203770002000429210409200000155PANE ASS.ALL'OLIO ANT.FORN.GENOVESE      0000000006000000100P000000A
0203800002000429210409300000155PANE ASS.PASTA DURA ANT.FORN.GENOVESE    0000000006000000100P000000A
0203810002000429210409400000155PANE ASS.INTEGRALE ANT.FORN.GENOVESE     0000000006000000100P000000A
0203820002000420210409500000155PANE ASS.GRANO DURO ANT.FORN.GENOVESE    0000000006000000100P000000A
0203830002001690210311200000155FOCACCIA GENOV.SECCA ANTICA FORN.GENOVES 0000000006000000100P000000A
0203960002000599210410300000155PANE AI CEREALI ANT.FORN.GENOVESE        0000000006000000100P000000A
0203970002001390210395100000155FORM.BORMIO KG.10 CA                     0005000006000000100P000000A
0203980002001090210225300000155TOMA VALLE PICCOLA KG.2 C.A.             0000000006000000100P000000A
0203990002002690210228300000155IL BLU DI GROTTA KG.1,5 CA BOTALLA       0000000006000000100P000000A
0204200002001990214602000000155FORMAGGIO DI CAPRA AMALATTEA             0000000006000000100P000000A
0204320002001290214600000000155RICOTTA CAPRA                            0000000006000000100P000000A
0206090002000690219597000000155MORTADELLA GRANROSA                      0000000006000000100P000000A
0207010002002190210074400000155PROSCIUTTO CRUDO PARMA 15-16 MESI        0000000006000000100P000000A
0207240002000884210225800000155RICOTTA PECORA KG.1,5 CA                 0000000006000000100P000000A
0213420002001289217931000000155RICOTTA DI CAPRA                         0000000006000000100P000000A
0213570002001281214350000000155RICOTTA FRESCA DI CAPRA KG.2 C.A.        0000000006000000100P000000A
0221960002000990210302500000155NOSTRANO DI BRUNA                        0000000006000000100P000000A
0225620002001990210170900000155SALAME CONTADINO                         0000000006000000100P000000A
0233200002001390210601800000155POMODORI SECCHI CONDITI                  0000000006000000100P000000A
0234870002001572214504000000155FOCACCIA FORMAGGIO oliverpan             0000000010000000100P000000A
0403080004001190217105000000155SPIEDINI MAIALE                          0000000008000000100P000000A
0403790004001190000000000000055                                         0000000000000000100P000000D
0404090004000590217114000000155FUSI POLLO PIEMONTE                      0000000008000000100P000000A
0406110004001690211684000000155FETTINE SCELTE BOVINO ADULTO.            0000000008000000100P000000A
0107980001000118213021000000155MELE RENETTE 2 STR MELINDA KG.7 CA       0000000004000000100P000000A
0700260007000890210034000000155BRANZINO PORZIONE grecia                 0000000012000000100P000000A
0700530007000990210087000000155TROTA IRIDEA (salmonata)                 0000000012000000100P000000A
0700560007001890210095000000155MAZZANCOLLE TROP.30/40 PRECOTTE          0000000012000000100P000000A
0700710007001190210042000000155ORATA PORZIONE                           0000000012000000100P000000A
0701000007001850210144000000155CORVINE                                  0000000012000000100P000000A
0701260007001450210177000000155ORATE (VALLE)                            0000000012000000100P000000A
0702090007001990211032000000155SPADA SV                                 0000000012000000100P000000A
0705440007001238210974000000155TROTA IRIDEA AL FORNO                    0000000012000000100P000000A
0710260007001024210168100000155BRANZINO PORZIONE TAKE AWAY   (1026      0000000012000000100P000000A
0401120004001390000000000000055                                         0000000000000000100P000000D
0403790004001390000000000000055                                         0000000000000000100P000000D
0700390007002700210061000000155SEPPIE                                   0000000012000000100P000000A
0200110002001530215271000000155GORGONZOLA GIM INVERNIZZI KG.6           0005000006000000100P000000A
0200120002001572215014000000155BEL PAESE                                0000000006000000100P000000A
0200130002001290215015000000155CERTOSA                                  0000000006000000100P000000A
0200160002001466218686000000155PROSCIUTTO COTTO PRIMIA                  0000000006000000100P000000A
0200190002002190218991000000155PROSCIUTTO COTTO GRANBISCOTTO            0000000006000000100P000000A
0200200002001677213036000000155GRANA PADANO DOP                         0000000006000000100P000000A
0200250002001952215021000000155PARMIGIANO REGGIANO DOP                  0000000006000000100P000000A
0200260002001867215022000000155GRANA PADANO DOP                         0000000006000000100P000000A
0200270002000083210366900000155FILONCINO OLIVE                          0000000012000000100M000000A
0200280002000083210367100000155BARRETTA AI CEREALI                      0000000012000000100M000000A
0200290002000062210367200000155QUADROTTA CIOCCOLATO                     0000000012000000100M000000A
0200300002000083210367300000155QUADROTTA NOCI                           0000000012000000100M000000A
0200310002000062210367400000155QUADROTTA UVETTA                         0000000012000000100M000000A
0200370002003790210399200000155PR.CRUDO S.DANIELE 18M S/O PRESS.KG.7 CA 0000000006000000100P000000A
0200380002001466213106000000155MORTADELLA STELLA NEGRONI                0000000006000000100P000000A
0200430002000395218134000000155PANE DI TRIORA                           0000000006000000100P000000A
0200590002001783210085900000155ASIAGO FR.DOP NERO CHIODO KG.14 CA       0000000006000000100P000000A
0200660002001994214328000000155MORTADELLA FAVOLA T.A. TRANCIO           0010000006000000100P000000A
0200670002001952215665000000155MORTADELLA FAVOLA                        0000000006000000100P000000A
0200690002001361219823000000155STRACCHINO G.500X2 FRESCOLAT *           0000000006000000100P000000A
0200770002001290216364000000155SCAMORZA BIANCA                          0005000006000000100P000000A
0200780002001994210517800000155FETA GRECA KG.2 *                        0000000006000000100P000000A
0200790002002109219479000000155SQUACQUERIN G.800 C.A.*                  0000000006000000100P000000A
0200800002001290216365000000155SCAMORZA AFFUMICATA                      0000000006000000100P000000A
0200810002000990216378000000155CUORE DI LATTE KG.2,2 CA CAS.LA FONTE    0000000006000000100P000000A
0200820002001783214743000000155TOMINO         DEL BOSCAIOLO             0000000006000000100P000000A
0200830002003049210397800000155PROSC.PARMA DOP KG.8,5 CA S.MARCO TANARA 0000000006000000100P000000A
0200840002002099210398400000155BOCCONC.DEL PRINCIPATO G.100 CA X6 FRAT  0000000006000000100P000000A
0200850002001994210171900000155SALAME PRINCIPATO KG.1 CA FRATELLI VI    0000000006000000100P000000A
0200930002002521211694000000155PROSCIUTTO COTTO STELLA NEGRONI          0000000006000000100P000000A
0200970002003787215020000000155PROSCIUTTO CRUDO SAN DANIELE DOP         0000000006000000100P000000A
0201000002001361216187000000155OLIVE VERDI PICC. SCHIACCIATE            0000000006000000100P000000A
0201050002001361210070400000155PRIMOSALE FRESCO KG.2 CA F.LLI VI        0000000006000000100P000000A
0201060002000990210398700000155RICOTTA FRESCA KG.1,5 CA LA CASCINOTTA   0000000006000000100P000000A
0201100002001677213909000000155SEIRASS SACCHETTO                        0000000006000000100P000000A
0201110002001994215786000000155PROSCIUTTO CRUDO                         0000000006000000100P000000A
0201120002002838211758900000155PORCHETTA MARCHIG.TR.KG.5 CA F.LLI VI    0005000006000000100P000000A
0201130002001390210202700000155MORTADELLA GIG.INT.KG.15 CA F.LLI VI     0000000006000000100P000000A
0201140002001677210065300000155TOMA CONT.INT.KG.8 CA A LATTE CRUDO      0000000006000000100P000000A
0201150002001677210027000000155GRANA PADANO DOP                         0000000006000000100P000000A
0201160002000990210400200000155OLIVE VERDI SCHIACC.PICC.KG.2 CA FRAT.VI 0000000006000000100P000000A
0201180002002099213262000000155PARMIG.REGGIANO D.O.P.  FORMA DORO 22 M. 0000000006000000100P000000A
0201190002002732215605000000155SPECK ALTO ADIGE IGP                     0000000006000000100P000000A
0201200002002205215064000000155GRANA PADANO DOP 20 MESI                 0000000006000000100P000000A
0201210002003154210061200000155PARM.REGG.VACCHE ROSSE 24M               0000000006000000100P000000A
0201220002002310218683000000155PANCETTA COPPATA STAGIONATA              0000000006000000100P000000A
0201290002002099210077900000155GORGONZOLA AL CUCCHIAIO                  0000000006000000100P000000A
0201330002005490210277100000155CULATELLO TRAD.KG4,5 CA NAZ.PRONTOTAGLIO 0000000006000000100P000000A
0201350002003787210334300000155PROSC.CR.S.DANIELE ADD.KG.8 CA KING      0000000006000000100P000000A
0201400002003787210368500000155PROSC.CR.S.DANIELE C/O KG.11 CA KING     0000000006000000100P000000A
0201440002001994210576500000155ROLLINO CAPRA CAPRI'X7 G.560 MAURI FORMA 0000000006000000100P000000A
0201450002000526210359200000155CAMEMBERT CAPRA G.250 CAROZZI            0000000006000000100M000000A
0201480002002627215764000000155LINGUA BOVINO  COTTA                     0000000006000000100P000000A
0201490002002310210075600000155GRAN FESA TACCHINO ARROSTO               0000000006000000100P000000A
0201500002002099214340000000155TOMA AL PEPERONCINO T.A.                 0005000006000000100P000000A
0201510002001888210316900000155TACCHINO FARCITO ZENO                    0000000006000000100P000000A
0201540002002521215332000000155MANZO STUFATO AFFUMICATO                 0000000006000000100P000000A
0201630002002627210083500000155SPECK ALTO ADIGE IGP TRANCIO SENFTER     0010000006000000100P000000A
0201640002001994219288000000155CACIOCAVALLO                             0000000006000000100P000000A
0201650002000526210339200000155CAMEMBERT BUFALA G.250 PONTE REALE       0000000006000000100M000000A
0201660002001572216087000000155FORM PRIMO SALE                          0000000006000000100P000000A
0201740002002205214309000000155CACIOCIOCAVALLO T.A.                     0005000006000000100P000000A
0201770002001890210403100000155FORM.CARLOMAGNO 1/2 SV KG.2,5 CA QUAGLIA 0000000006000000100P000000A
0201780002001572216375000000155NODINI/CILIEGINE F.D.L GHIBAUDO*         0000000006000000100P000000A
0201790002001590214258000000155MOZZARELLA BUFALA DOP LA PERLA           0000000006000000100P000000A
0201870002001466210096800000155MOZZ.F.DI LATTE CIUFFO G.250 CA F.LLI VI 0000000006000000100P000000A
0201880002001741210067400000155TOMA BLU DEI F.LLI VI INT.ERBORINATA     0005000006000000100P000000A
0201890002001990210097600000155SAL."N'DUJA" CALAB.GRANDE KG.2,5         0000000006000000100P000000A
0201900002002190210069300000155TOMA PURA CAPRA KG.5 INT.F.LLI VI        0000000006000000100P000000A
0201910002001590210070500000155TOMA PIAN DEL SOLE INT.KG.7 CA LATTE CR. 0000000006000000100P000000A
0201920002000990210396300000155OLIVE NERE COND.PICC.KG.2 CA FRAT.VI     0000000006000000100P000000A
0201930002001572210063900000155SCAMORZONE FIASCH. AFF.KG.4,5CA F.LLI VI 0000000006000000100P000000A
0201940002002099210400900000155ROBIOL.CREM.PRIMAV. G.250 FRATELLI VI    0000000006000000100P000000A
0201950002002490210400600000155TRONCHETTO PURA CAPRA KG.1 CA FRAT.VI    0000000006000000100P000000A
0201960002006319215034000000155SALMONE AFFUMICATO                       0000000006000000100P000000A
0201980002001290210400300000155OLIVE NERE FORNO KG.2 CA FRAT.VI         0000000006000000100P000000A
0202000002001414210241700000155PANCETTA BACON KG.2 CA F.LLI VI          0000000006000000100P000000A
0202010002003787215358000000155FILETTI DI ALICI NAZIONALI               0000000006000000100P000000A
0202020002001361215036000000155OLIVE SARACENE DENOCCIOLATE              0000000006000000100P000000A
0202030002000939218690000000155OLIVE RIVIERA                            0000000006000000100P000000A
0202040002001466216188000000155OLIVE NERE MAMMOUTH                      0000000006000000100P000000A
0202050002002732215181000000155SALAME P.S.FELINO IGP.KG.1 CA BOSCHI     0000000006000000100P000000A
0202070002007374215343000000155PINOLI                                   0020000006000000100P000000A
0202080002000652214552000000155ACCIUGHE SALATE 5 KG 4L                  0000000006000000100P000000A
0202110002000526210483300000155ESPLOSIONE DI LATTE G.400 CIUFFO SAPOROS 0000000006000000100M000000A
0202120002001783213906000000155PRIMOSALE SICILIANO                      0000000006000000100P000000A
0202130002001538213885000000155PRIMOSALE SICILIANO T.A.                 0010000006000000100P000000A
0202140002001783213907000000155PRIMOSALE SICILIANO-PEPE                 0000000006000000100P000000A
0202150002001783213886000000155PRIMOSALE SICILIANO PEPE T.A.            0010000006000000100P000000A
0202160002001783213908000000155PRIMOSALE PEPERONCINO                    0000000006000000100P000000A
0202170002001783213887000000155PRIMOSALE SICILIANO PEPERONCINO T.A.     0010000006000000100P000000A
0202200002004209210374900000155CULATTA INT.SV KG.5 CA CAPANNA           0000000006000000100P000000A
0202220002001690210512200000155GUANCIALE PATANEGRA                      0000000006000000100P000000A
0202250002002990210392400000155FIOCCO CAPRA TARTUFO G.250 CA BOTALLA.   0000000006000000100P000000A
0202300002001888210333500000155PETTO POLLO FORNO KG.3 CA ITAL.VIANI     0000000006000000100P000000A
0202310002000939210333600000155FONDINO PETTO POLLO FORNO VIANI          0010000006000000100P000000A
0202320002001994210333900000155PETTO TACCHINO FORNO KG.3,8 CA VIANI     0000000006000000100P000000A
0202430002001572219113000000155SCIMUDIN                                 0000000006000000100P000000A
0202450002001374218692000000155FORM.PIATTONE D.O.P.TAKE AWAY            0005000006000000100P000000A
0202460002003576210231100000155BRESAOLA VALT.IGP P.D'ANCA KG3,2 CA      0000000006000000100P000000A
0202480002001990210410400000155PROSC.COTTO ALLE ERBE KG.8 CA RASPINI    0000000006000000100P000000A
0202510002002310219545000000155SPIANATA PICCANTE                        0000000006000000100P000000A
0202530002002479210068900000155ERB.CAPRA CREMOSO KG.1,5 CA F.LLI VI     0005000006000000100P000000A
0202600002001572215612000000155GORGONZOLA DOP IGOR                      0000000006000000100P000000A
0202620002001572213780000000155GORGONZOLA IGORCREME T.A.                0005000006000000100P000000A
0202640002001581215126000000155BRIE PRESIDENT                           0000000006000000100P000000A
0202710002001490210401100000155OLIVE NERE RIVIERA DEN.KG.1,8 CA FRAT.VI 0000000006000000100P000000A
0202720002002732215218000000155PROSCIUTTO COTTO CUORE D'ORO             0000000006000000100P000000A
0202770002001255210241600000155SOFFICETTA DI LATTE KG.2 CA F.LLI VI     0000000006000000100P000000A
0202780002002205216092000000155TOMA ALTA LANGA                          0000000006000000100P000000A
0202790002001783210066600000155TOMA GIAND.INT.KG.4 FRATELLI VI          0000000006000000100P000000A
0202800002002205216094000000155ROBIOLA BOSINA                           0000000006000000100P000000A
0202810002002099216095000000155ROCCHETTA ALTA LANGA                     0000000006000000100P000000A
0202850002001150218783000000155EDAMER                                   0000000006000000100P000000A
0202860002001783210097500000155PIZZICOTTO KG.1 AFF.SCAMORZA F.LLI VI    0000000006000000100P000000A
0202870002002416210002300000155CIMA VITELLO KG.3 CA                     0000000006000000100P000000A
0202890002003154210009600000155ROAST-BEEF KG.2,5 CA                     0000000006000000100P000000A
0202900002001213210007900000155INSALATA RUSSA KG.2 CA.                  0000000006000000100P000000A
0202910002002943210002700000155GAMBERI IN MAIONESE KG1 CA               0000000006000000100P000000A
0202920002002310210166600000155FILETTI ALICI MARINATE KG.2 CA           0000000006000000100P000000A
0202930002001361210041800000155OLIVE RIVIERA SNOCCIOLATE KG 5 CA        0000000006000000100P000000A
0202940002001044210041200000155OLIVE PICCANTI KG 5 CA                   0000000006000000100P000000A
0202960002001013210041400000155OLIVE GRECIA KG 5 CA                     0000000006000000100P000000A
0202970002001783210167300000155PORCHETTA KG.1 CA FILONE                 0005000006000000100P000000A
0202980002001466210009400000155POLPETTONE KG.1,3 CA                     0000000006000000100P000000A
0203020002001783210004700000155PASQUALINA DI BIETOLE KG.1 CA            0000000006000000100P000000A
0203030002002537215363000000155FRITTURA DI PESCE                        0000000006000000100P000000A
0203050002001625215645000000155SEIRASS                                  0000000006000000100P000000A
0203060002002310213782000000155IL CACIO NERO DI PIENZA T.A.             0010000006000000100P000000A
0203080002002099210349200000155GORG.DOP DOLCE KG.5 CA S/CROSTA ARRIGONI 0000000006000000100P000000A
0203100002001888215073000000155RACLETTE                                 0000000006000000100P000000A
0203110002001572213788000000155TOMA DI LANZO T.A.                       0005000006000000100P000000A
0203130002001888216118000000155BURRATE                                  0000000006000000100P000000A
0203190002001466215643000000155RICOTTA AL FORNO LIMONE                  0000000006000000100P000000A
0203220002001155216114000000155RICOTTA SARDA                            0000000006000000100P000000A
0203230002001888210049100000155BURRATE G.300 CA X3     GHIB             0000000006000000100P000000A
0203240002001106216327000000155RICOTTINA PUGLIESE                       0000000006000000100P000000A
0203250002000939216113000000155RICOTTA MISTA TOSCANA                    0000000006000000100P000000A
0203270002001677210011200000155VERDURA RIPIENA KG.1,3 CA                0000000006000000100P000000A
0203280002001888216120000000155MOZZARELLA DI BUFALA DOP                 0000000006000000100P000000A
0203290002001466210259200000155OMELETTES PROSC/FORMAGGIO PAOLO E GIAN   0000000006000000100P000000A
0203310002002099216296000000155LARDO DI ARNAD DOP                       0000000006000000100P000000A
0203330002001888213962000000155RICOTTA SALATA TESTA MORO                0010000006000000100P000000A
0203350002001572210004200000155MELANZANE GRIGLIATE KG.1,5 CA            0000000006000000100P000000A
0203360002001888215934000000155FARCITO RUCOLA E SPECK                   0000000006000000100P000000A
0203400002001783210000400000155SARDO FRESCO                             0000000006000000100P000000A
0203410002001466210001600000155ARANCINI DI RISO KG.1 CA                 0000000006000000100P000000A
0203420002000421210026600000155TOMINO FRESCO G.340 CONRADO              0000000006000000100M000000A
0203450002001994210323800000155BRA DURO DOP KG.7 CA                     0000000006000000100P000000A
0203470002002094215089000000155FORM.SBRINZ SVIZZ.1/10 KG.4 CA EMMI      0000000006000000100P000000A
0203480002001466210008200000155INSALATA CAPRICCIOSA KG.2 CA             0000000006000000100P000000A
0203490002001994210168800000155PEPERONCINI RIPIENI AL TONNO KG.2,5 CA   0000000006000000100P000000A
0203500002001994210010600000155SFORNATO DI ZUCCHINE KG.1,3 CA           0000000006000000100P000000A
0203520002001994210323900000155BRA DURO DOP T.A.                        0005000006000000100P000000A
0203550002002099215108000000155FONTINA AOSTA DOP                        0000000006000000100P000000A
0203570002001466215143000000155ASIAGO DOP                               0000000006000000100P000000A
0203590002001150210241900000155PROSC.COTTO INDOMITO KG.7 CA KOMETA      0000000006000000100P000000A
0203610002001518219964000000155FIOR DI GORG.DOP QUATTROROSE TAKE AWAY   0005000006000000100P000000A
0203640002001572210043500000155LASAGNE AL RAGU' KG 2 CA                 0000000006000000100P000000A
0203670002000399210073200000155PANE ASS.ALL'ACQUA ANT.FORN.GENOVESE     0000000006000000100P000000A
0203680002000429210073300000155PANE GRANO DURO                          0000000006000000100P000000A
0203690002001994215603000000155FETA GRECA                               0000000006000000100P000000A
0203700002002047212054000000155EMMENTALER SVIZZERO DOP                  0000000006000000100P000000A
0203710002001625215151000000155LEERDAMMER                               0000000006000000100P000000A
0203720002001590210073400000155FOCACCIA GENOV.C/CIPOLLA ANT.FORN.GENOV. 0000000006000000100P000000A
0203730002001590210073500000155FOCACCIA C/FORMAGGIO ANT.FORN.GENOVESE   0000000006000000100P000000A
0203740002001625213790000000155LEERDAMMER T.A.                          0005000006000000100P000000A
0203760002001590210073600000155PIZZA ANT.FORNERIA GENOVESE              0000000006000000100P000000A
0203770002000429210409200000155PANE ASS.ALL'OLIO ANT.FORN.GENOVESE      0000000006000000100P000000A
0203790002001888215855000000155RASCHERA LATTE CRUDO DOP                 0000000006000000100P000000A
0203800002000429210409300000155PANE ASS.PASTA DURA ANT.FORN.GENOVESE    0000000006000000100P000000A
0203810002000429210409400000155PANE ASS.INTEGRALE ANT.FORN.GENOVESE     0000000006000000100P000000A
0203820002000420210409500000155PANE ASS.GRANO DURO ANT.FORN.GENOVESE    0000000006000000100P000000A
0203830002001690210311200000155FOCACCIA GENOV.SECCA ANTICA FORN.GENOVES 0000000006000000100P000000A
0203880002001572210156600000155PROVOLA BIANCA                           0000000006000000100P000000A
0203890002001572210156200000155PROVOLA BIANCA T.A.                      0005000006000000100P000000A
0203960002000599210410300000155PANE AI CEREALI ANT.FORN.GENOVESE        0000000006000000100P000000A
0203970002001390210395100000155FORM.BORMIO KG.10 CA                     0005000006000000100P000000A
0203980002001090210225300000155TOMA VALLE PICCOLA KG.2 C.A.             0000000006000000100P000000A
0203990002002690210228300000155IL BLU DI GROTTA KG.1,5 CA BOTALLA       0000000006000000100P000000A
0204100002001762215833000000155TOMA PIEMONTE DOP                        0000000006000000100P000000A
0204180002005264215777000000155ANGUILLA ITALIANA                        0000000006000000100P000000A
0204200002001990214602000000155FORMAGGIO DI CAPRA AMALATTEA             0000000006000000100P000000A
0204210002002627213785000000155FORMAGGIO DI CAPRA AMALATTEA T.A.        0005000006000000100P000000A
0204320002001290214600000000155RICOTTA CAPRA                            0000000006000000100P000000A
0204370002002268215138000000155PROV.SPICCHIO CLAS.AUR.5 KG              0000000006000000100P000000A
0204380002002268214848000000155PROVOLONE PICCANTE AURICCHIO T.A.        0010000006000000100P000000A
0204420002000421210355500000155CAMEMBERT G.250 3B LATTE                 0000000006000000100M000000A
0204430002003112210026200000155ROAST BEEF ALL'INGLESE                   0000000006000000100P000000A
0204440002002416215384000000155FIORETTO SARDO                           0000000006000000100P000000A
0204450002002732219647000000155PEC.FIORE SARDO DOP T.A.                 0010000006000000100P000000A
0204470002001994210355600000155PRIMOSALE CAPRA G.200 CA 3B LATTE        0000000028000000100P000000A
0204560002001530219765000000155PROSC.COTTO GRANROSA KG.7,8 C.A.         0000000006000000100P000000A
0204860002002521215132000000155PECORINO ROMANO                          0000000006000000100P000000A
0205020002003049210340100000155CARPACCIO BRES.PA 1/2 SV KG.2,5 CA RIGAM 0000000006000000100P000000A
0205080002003190210373200000155CARNE SALADA 1/2 SV KG.2,5 CA SOSIO      0000000006000000100P000000A
0205090002002732215382000000155PECORINO FIORE SARDO DOP                 0000000006000000100P000000A
0205370002002416215988000000155PROSCIUTTO COTTO  RASPINI                0000000006000000100P000000A
0205510002001499219030000000155BUGIA PIATTA                             0030000006000000100P000000A
0205580002002310214444000000155TOMA MONTE CORNA KG.3,5 CA               0000000006000000100P000000A
0205590002002310214470000000155FORM.MONTE CORNA TAKE AWAY               0005000006000000100P000000A
0206020002001881218701000000155SPIANATA PICCANTE TAKE AWAY              0010000006000000100P000000A
0206050002001888215856000000155RASCHERA DOP T.A.                        0005000006000000100P000000A
0206080002000499218757000000155CROSTE DI FORMAGGIO                      0015000006000000100P000000A
0206090002000690219597000000155MORTADELLA GRANROSA                      0000000006000000100P000000A
0206330002001783210373400000155SALAME COTTO ½ SV KG.1,8 CA BRIZIO       0000000006000000100P000000A
0206350002002290210383400000155PORCHETTA DI ARICCIA IGP                 0005000006000000100P000000A
0206390002001677214310000000155CACIOTTA BRUGNATO T.A.                   0005000006000000100P000000A
0206410002001990210384700000155FORM.CAPRA BAITA KG.2 CA BOTALLA         0000000006000000100P000000A
0207010002002190210074400000155PROSCIUTTO CRUDO PARMA 15-16 MESI        0000000006000000100P000000A
0207020002003154213562000000155PROSCIUTTO DI PARMA DOP                  0000000006000000100P000000A
0207240002000884210225800000155RICOTTA PECORA KG.1,5 CA                 0000000006000000100P000000A
0207250002001783210352500000155PANCETTA BACON 1/2 KG.1,5 CA GASSER      0000000006000000100P000000A
0207330002001994210131400000155CRUDO FONDINO CAPANNA C/O                0010000006000000100P000000A
0208180002002416213784000000155MORO DI SARDEGNA T.A.                    0010000006000000100P000000A
0208190002001150213777000000155CACIOTTA BOSCO GEROLO T.A.               0005000006000000100P000000A
0208210002003154210359500000155PROSC.COTTO INT.KG.10 CA NAZ.PERNIGOTTI  0000000006000000100P000000A
0208290002001783216127000000155SARDO FRESCO                             0000000006000000100P000000A
0208300002001783214919000000155SARDO FRESCO T.A.                        0005000006000000100P000000A
0208320002002732214828000000155SALAME GOLFETTA                          0000000006000000100P000000A
0208390002001677216461000000155CACIOTTA BRUGNATO                        0000000006000000100P000000A
0208510002003154210269700000155PROSC.SERRANO S/O KG.5 CA ET.ORO 12M     0000000006000000100P000000A
0208670002002310217810000000155CIMA GENOVA CIMMA ZENEISE T.A.           0010000006000000100P000000A
0208720002001888217733000000155GRANA PADANO DOP T.A.                    0015000002000000100P000000A
0208730002002038217732000000155PARMIGIANO  REGGIANO DOP T.A.            0015000002000000100P000000A
0208750002002627210107300000155PARMIGIANO REGGIANO DOP 30 MESI T.A.     0015000002000000100P000000A
0208770002001150217746000000155FONTAL TAKE AWAY                         0005000006000000100P000000A
0208790002002205210107200000155GRANA PADANO DOP 20 MESI T.A.            0015000002000000100P000000A
0208940002002310219223000000155FIORETTO SARDO T.A.                      0010000006000000100P000000A
0208950002002521217742000000155PECORINO ROMANO DOP T.A.                 0010000006000000100P000000A
0208960002001873210269800000155LARDO DI PATANEGRA 1/2 1,5KG C.A.        0000000006000000100P000000A
0208970002002047217740000000155EMMENTALER SVIZZERO DOP                  0005000006000000100P000000A
0208980002002099217738000000155FONTINA AOSTA DOP T.A.                   0005000006000000100P000000A
0208990002001466217745000000155ASIAGO DOP T.A.                          0005000006000000100P000000A
0209010002002099217809000000155ROCCHETTA T.A.                           0000000006000000100P000000A
0209020002002205217806000000155TOMA ALTA LANGA T.A.                     0000000006000000100P000000A
0209030002002099217808000000155ROBIOLA BOSINA T.A.                      0000000006000000100P000000A
0209120002000986217791000000155CRUDO FONDINO                            0010000006000000100P000000A
0209150002001772217728000000155BRESAOLA FONDINO RIGAMONTI ORO           0010000006000000100P000000A
0209170002000665217821000000155FONDINO PANCETTA PIACENTINA DOP          0010000006000000100P000000A
0209180002001164217815000000155FONDINO GRAN FESA TACCHINO NAZIONALE     0010000006000000100P000000A
0209200002001255217831000000155SPECK FONDINO                            0010000006000000100P000000A
0209210002001430217787000000155LINGUA FONDINO TAKE AWAY                 0010000006000000100P000000A
0209220002002627212272000000155PARMIGIANO  REGGIANO DOP 30 MESI         0000000006000000100P000000A
0209250002003787213205000000155BOCCONCINI POLIPO                        0000000006000000100P000000A
0209290002001572210265400000155LARDO NAZIONALE                          0000000006000000100P000000A
0209520002001329218713000000155FONDINO COTTO CUORE D'ORO                0010000006000000100P000000A
0209530002001651214314000000155CRUDO FONDINO DEVODIER  T.A.             0010000006000000100P000000A
0209940002001538213913000000155MONTASIO DOP T.A.                        0005000006000000100P000000A
0210450002001783219783000000155TALEGGIO CADEMARTORI DOP                 0000000006000000100P000000A
0210460002001783212720000000155TALEGGIO  CADEMARTORI  T.A.              0005000006000000100P000000A
0212420002001677210265600000155GUANCIALE NAZIONALE KG.1 CA SV COATI     0000000006000000100P000000A
0212430002001572219073000000155SCIMUDIN T.A.                            0005000006000000100P000000A
0212580002002416210130500000155PECORINO C/PIST.BRONTE KG.1 CA BUSTI     0000000006000000100P000000A
0213110002003956215428000000155BRESAOLA IGP RIGAMONTI                   0000000006000000100P000000A
0213240002001783214727000000155PAGLIERINA G.200 C.A.X 3 PZ GHIB         0000000006000000100P000000A
0213250002001651214748000000155PAGLIERINA T.A.                          0005000006000000100P000000A
0213260002001815214745000000155PICCOLA BAITA G.160 C.A.  GHIB           0000000006000000100P000000A
0213270002001873214749000000155PICCOLA BAITA T.A.                       0000000006000000100P000000A
0213410002001677210265700000155GUANCIALE NAZIONALE TRANCIO COATI        0010000006000000100P000000A
0213420002001289217931000000155RICOTTA DI CAPRA                         0000000006000000100P000000A
0213470002002205210184300000155FORMAGGIO DEL PASTORE T.AWAY             0005000006000000100P000000A
0213480002001255210183900000155CACIOTTA 100% VACCA BRUNA                0000000006000000100P000000A
0213490002001255210184900000155CACIOTTA 100% VACCA BRUNA T.A.           0005000006000000100P000000A
0213500002003682217928000000155BRESAOLA CHIAVENNA KG.3 CA PANZERI       0000000006000000100P000000A
0213570002001281214350000000155RICOTTA FRESCA DI CAPRA KG.2 C.A.        0000000006000000100P000000A
0213660002002732210183400000155FIOCCO DI NEVE                           0000000006000000100P000000A
0213670002002732210180800000155FIOCCO DI NEVE T.A.                      0000000006000000100P000000A
0213780002002648218787000000155COPPA STAGIONATA CHIARONE                0010000006000000100P000000A
0213800002002732210258300000155COPPA PARMA IGP                          0000000006000000100P000000A
0213890002001572210167900000155PRIMO SALE PIST.VACCA BRUNA              0000000006000000100P000000A
0214090002002416210310500000155SALAME MILANO LENTA STAGIONATURA         0000000006000000100P000000A
0214110002002099210312900000155TRANCIO PR.COTTO SC.PRAGA REGALE SENFTER 0010000006000000100P000000A
0214160002002205218700000000155PANCETTA PIACENTINA TRANCIO DOP 1/2 S.V. 0010000006000000100P000000A
0214500002001150215158000000155FORM FONTAL FORMA              (099      0000000006000000100P000000A
0214700002001783210190700000155MORBIDO BAITA                            0000000006000000100P000000A
0214710002001783210190900000155MORBIDO BAITA T.A.                       0005000006000000100P000000A
0215210002002838214319000000155FORM.CAPRITILLA T.A.                     0005000006000000100P000000A
0215320002002099210239700000155FIOCCO DELLA VALTELLINA                  0000000006000000100P000000A
0215430002003154210242700000155GIRELLO BOVINO KG.2,5 CA BRIZIO          0000000006000000100P000000A
0215440002001414210242800000155FONDINO GIRELLO RUTUNDA COTTO BRIZIO     0010000006000000100P000000A
0215640002001150219082000000155CACIOTTA FIORITA T.A.                    0005000006000000100P000000A
0215660002001572219809000000155BEL PAESE TAKE AWAY.                     0005000006000000100P000000A
0215780002002099213277000000155TOMA DI GRESSONEY KG.4 CA                0000000006000000100P000000A
0216280002001677210194400000155ARANCINI DI RISO                         0000000006000000100P000000A
0216610002001651218736000000155FORM.PUZZONE T.A.                        0005000006000000100P000000A
0217210002001551213778000000155QUARTIROLO LOMBARDO DOP T.A.             0005000006000000100P000000A
0217430002001762218755000000155TOMA PIEMONTESE DOP T.A.                 0005000006000000100P000000A
0218120002001783210015800000155SCAMORZA BIANCA                          0005000006000000100P000000A
0218130002001783210018700000155SCAMORZA AFFUMICATA                      0000000006000000100P000000A
0218230002001551219807000000155QUARTIROLO LOMBARDO DOP                  0000000006000000100P000000A
0218560002001836210175400000155PROSC.COTTO A.Q.KG.9,3 CA NATURALIS      0000000006000000100P000000A
0218670002002521213878000000155CIMA ALLA GENOVESE                       0000000006000000100P000000A
0218740002001361210214400000155BACIO DI BRUNA                           0000000006000000100P000000A
0218830002001952210180400000155PROSCIUTTO COTTO LENTA COTTURA COATI.    0000000006000000100P000000A
0218850002001888210354700000155STRACCIATELLA DELIZIOSA                  0000000006000000100P000000A
0218860002000315211141800000155BURRATINA AFFUMICATA G.125 DELIZIOSA     0000000006000000100M000000A
0218870002000442210692700000155BURRATA  G.250 DELIZIOSA                 0000000006000000100M000000A
0218990002001888210251400000155IL MARZOLINO                             0005000006000000100P000000A
0219060002003998210082900000155PROSC.CR.S.DANIELE DOP RUSTICO KG.7,5 CA 0000000006000000100P000000A
0219080002004209210217200000155BRESAOLA PUNTA D'ANCA                    0000000006000000100P000000A
0219090002002627210218400000155FONDINO BRESAOLA STOR.P.ANCA BORDONI     0010000006000000100P000000A
0219170002001888219813000000155FORM.RACLETTE TAKE AWAY                  0005000006000000100P000000A
0219180002001894216371000000155GIUNCATA BIANCA                          0000000006000000100P000000A
0219660002002099210733400000155PECORINO BRIGANTE KG.1,5 CA PINNA        0000000006000000100P000000A
0219670002002099210268500000155PECORINO BRIGANTE T.AWAY PINNA           0010000006000000100P000000A
0219710002000939217779000000155FONDINO COTTO PRIMIA                     0010000006000000100P000000A
0219790002001150219867000000155RICOTTA MAREMMA KG.1,5                   0000000006000000100P000000A
0220200002001107214281000000155FOCACCIA CON OLIVE 40X30 (SG)            0000000010000000100P000000A
0220250002001888216410000000155LARDO AL BASILICO LIG.KG.3 C.A.          0000000006000000100P000000A
0220300002001581218707000000155BRIE PRESIDENT  T.A.                     0005000006000000100P000000A
0220310002001888219955000000155MOSTARDA DI VOGHERA KG.5,6 ASS.TA.       0000000006000000100P000000A
0220320002001783218429000000155GORGONZOLA C/ MASCARPONE                 0000000006000000100P000000A
0220380002001783214316000000155GORGONZOLA C/ MASCARPONE.T.A.            0005000006000000100P000000A
0220890002002732210084700000155PROSCIUTTO COTTO GRAN TENERONE           0000000006000000100P000000A
0221040002001983214322000000155FORMAGGIO SAN STE' T.A.                  0005000006000000100P000000A
0221080002001888216430000000155CACIOT.MORBIDEZZA G.700 C.A.V.D'AVETO    0005000006000000100P000000A
0221090002002205216428000000155FORMAGGIO SAN STE'                       0005000006000000100P000000A
0221250002003640211202000000155PROSCIUTTO CRUDO PARMA 15-16 MESI        0000000006000000100P000000A
0221500002002099210162500000155TOMA AL PEPERONCINO  BOTALLA             0000000006000000100P000000A
0221840002002099210312200000155PROSCIUTTO COTTO PRAGA REALE             0000000006000000100P000000A
0221960002000990210302500000155NOSTRANO DI BRUNA                        0000000006000000100P000000A
0221970002001572210304500000155NOSTRANO DI BRUNA T.AWAY MADONNA NEVE.   0005000006000000100P000000A
0222080002001255210133400000155FONDINO COTTO STELLA NEGRONI             0010000006000000100P000000A
0222250002001675211762000000155SAL.T.CONTAD. G.400 C.A.S.V.PRIMIA       0000000006000000100P000000A
0222260002002521211763000000155SALAME MINI JOLLY PRIMIA                 0000000006000000100P000000A
0222270002001783210115800000155SAL.PIC-NIC G.250 C.A.S.V. PRIMIA        0000000006000000100P000000A
0222310002000737211316900000155MOZZ.BUFALA ARTIGIANALE DOP G.500        0000000006000000100M000000A
0222340002002521210086900000155SALAME MINI JOLLY T.A.                   0000000006000000100P000000A
0222520002001783211861000000155TOMA DI LANZO                            0000000006000000100P000000A
0223020002001107213418000000155FOCACCIA C/POMODORINI 40X30 (SG.)        0000000010000000100P000000A
0223050002001044210058900000155FOCACCIA ORIGINALE(40X30) CT KG2,5       0000000010000000100P000000A
0223060002001107213458000000155FOCACCIA C/CIPOLLA 40X30 (SG.)           0000000010000000100P000000A
0223750002002521215975000000155MORO DI SARDEGNA                         0000000006000000100P000000A
0224690002002310212487000000155PECORINO CACIO NERO DI PIENZA            0000000006000000100P000000A
0224740002002416217754000000155GALANTINA                                0000000006000000100P000000A
0224840002002163214933000000155PANCETTA PIACENTINA DOP                  0000000006000000100P000000A
0225020002001150212553000000155CACIOTTA BOSCO GEROLO                    0000000006000000100P000000A
0225180002001950216260000000155SALAME S.OLCESE                          0025000006000000100P000000A
0225190002001466212484000000155TESTA IN CASSETTA S.OLCESE               0000000006000000100P000000A
0225210002002838212594000000155CAPRITILLA                               0000000006000000100P000000A
0225390002002205212585000000155SALAME BELLAFETTA KG.3 C.A. CLAI         0000000006000000100P000000A
0225470002001994214534000000155SPECK LAURIN                             0000000006000000100P000000A
0225530002001430214343000000155PETTO DI POLLO FONDINO T.A.              0008000006000000100P000000A
0225620002001990210170900000155SALAME CONTADINO                         0000000006000000100P000000A
0225630002001361210207200000155FONDINO SALAME CONTADINO CAV.            0010000006000000100P000000A
0225880002002870212884000000155PROSC.TOSC.DOP DIS.ADD.KG.8 C.A.         0000000006000000100P000000A
0226370002001783213158000000155STRACCIATELLA                            0000000014000000100P000000A
0226480002002616212464000000155COTTO SAN GIOVANNI                       0000000006000000100P000000A
0226760002001783210047100000155STRACCIATELLA G.250 CAX4 GHIB.           0000000015000000100P000000A
0227140002003893213234000000155PROSCIUTTO CRUDO PARMA 20 MESI DEVODIER  0000000006000000100P000000A
0227190002003893213996000000155PROSCIUTTO CRUDO PARMA 20 MESI DEVODIER  0000000006000000100P000000A
0227200002003049210109600000155PROSC.PARMA DOP KG.8 CA TANARA           0000000006000000100P000000A
0229240002000095210053400000155CROISSANT BURRO G.60 BRIDOR              0000000006000000100M000000A
0229250002000104210056500000155FAGOTTINO CIOCCOLATO G.80 BRIDOR         0000000006000000100M000000A
0229270002000104210052700000155CROISSANT ALBIC.C/ZUCC.G.90 BRIDOR       0000000006000000100M000000A
0229370002001888210077600000155GORGONZOLA L'ANGELO DOLCE DOP            0000000006000000100P000000A
0229380002001888210075900000155GORGONZOLA L'ANGELO DOLCE DOP T.A.       0005000006000000100P000000A
0229390002003893210077400000155PROSCIUTTO CRUDO PARMA 20 MESI DEVODIER  0000000006000000100P000000A
0229640002001783210241100000155FONTAL FONTEGIDIA                        0000000006000000100P000000A
0229650002001783210083700000155FONTAL FONTEGIDIA T.A.                   0005000006000000100P000000A
0229740002002099210098200000155TOMA GROTTA INVECCHIATA                  0000000006000000100P000000A
0229750002002099210098300000155TOMA GROTTA INVECCHIATA T.A.             0005000006000000100P000000A
0229780002002627210086500000155CAPRINO STAGIONATO CUOR DI CAPRA         0000000006000000100P000000A
0229790002002627210098600000155CAPRINO CUOR CAPRA T.A.                  0010000006000000100P000000A
0229960002001044210101900000155CRESCENZA IRENE                          0000000006000000100P000000A
0231990002001677210229700000155CRESPELLE RICOTTA E SPINACI T-AWAY       0003000020000000100P000000A
0232660002001783210235200000155TORTA PASQUALINA T.AWAY                  0003000006000000100P000000A
0232730002003471210918600000155FILETTI di ACCIUGHE AL VERDE             0000000006000000100P000000A
0232740002003471210234900000155INSALATA DI MARE                         0000000006000000100P000000A
0232770002002099210237800000155PATATE CHIPS T.AWAY                      0000000008000000100P000000A
0232850002001572210238700000155FRITTATE ERBETTE T.AWAY                  0003000006000000100P000000A
0232860002001677210239300000155POLPETTONE alla LIGURE T.AWAY            0003000006000000100P000000A
0232870002000315212267600000155INVOLTINO PROSC.COTTO/RUSSA              0000000006000000100M000000A
0233200002001390210601800000155POMODORI SECCHI CONDITI                  0000000006000000100P000000A
0233420002000200210256300000155SPUMONE al TONNO                         0000000006000000100M000000A
0233430002000200210606600000155SPUMONE al PROSCIUTTO                    0000000006000000100M000000A
0233440002000200210606700000155SPUMONE al SALMONE                       0000000006000000100M000000A
0233610002001783210258400000155LENTICCHIE                               0000000006000000100P000000A
0233870002000210210266500000155SCHIACCIATA ROMANA CLASSICA g.220        0000000006000000100M000000A
0233900002000104210267400000155CIABATTA RUSTICA g.250                   0000000012000000100M000000A
0233920002000111210730200000155BAGUETTE CEREALI                         0000000012000000100M000000A
0234230002001572210733300000155INSALATA RUSSA DELLA NONNA               0000000006000000100P000000A
0234870002001572214504000000155FOCACCIA FORMAGGIO oliverpan             0000000010000000100P000000A
0234940002000126210267300000155FOCACCINA ALLE PATATE                    0000000012000000100M000000A
0239030002000104210340300000155BAGUETTE                                 0000000006000000100M000000A
0401120004001390000000000000055                                         0000000000000000100P000000D
0401150004000990210331900000155TRIPPA INTERA                            0000000008000000100P000000A
0401180004000990210021400000155PASTA  DI SALSICCIA                      0000000008000000100P000000A
0401190004000940210332100000155TRIPPA TAGLIATA                          0000000008000000100P000000A
0401200004000990210014700000155SALAMELLA SUINO                          0000000008000000100P000000A
0401240004001890217085000000155FEGATO VITELLO                           0000000008000000100P000000A
0401250004003790210292300000155TRONCHETTO 5C S/C SCOTTONA POLONIA UNIKA 0000000008000000100P000000A
0401260004001890210310900000155CHUCK ROLL BOVINO ADULTO IRLANDA         0000000008000000100P000000A
0401270004001490210075700000155CADEA B.A.                               0000000008000000100P000000A
0401420004001690216788000000155LINGUE VITELLO.                          0000000008000000100P000000A
0401500004001590210007100000155COPERTINA DI SPALLA                      0000000008000000100P000000A
0401600004001990210369200000155COPERTINA DI SPALLA BA ANGUS IRLANDA     0000000008000000100P000000A
0402020004002190217039000000155SPALLA VITELLONE S/O                     0000000008000000100P000000A
0402040004002090217155000000155GIRELLO SPALLA BOV                       0000000008000000100P000000A
0402050004001790217256000000155GALLINETTA BOVINO ADULTO.                0000000008000000100P000000A
0402070004001590217044000000155MUSCOLI VITELLONE S/O                    0000000008000000100P000000A
0402090004001790217252000000155SOTTOPALETTA BOVINO ADULTO.              0000000008000000100P000000A
0402100004001990217033000000155LACERTO VITELLONE FRESCO.                0000000008000000100P000000A
0402110004002290217027000000155FESA VITELLONE FRESCA                    0000000008000000100P000000A
0402120004001390217035000000155PANCIA VITELLONE S/O                     0000000008000000100P000000A
0402130004001090217034000000155PANCIA VITELLONE C/O.                    0000000008000000100P000000A
0402160004001990217156000000155SABRINA                                  0000000008000000100P000000A
0402180004002190217029000000155NOCE BOVINO ADULTO.                (168  0000000008000000100P000000A
0402200004001690217259000000155UCCELLETTO BOVINO ADULTO                 0000000008000000100P000000A
0402210004002190217253000000155SOTTOPESCE BOVINO ADULTO.                0000000008000000100P000000A
0402220004003690210245200000155FILETTO BOVINO ADULTO FRANCIA.           0000000008000000100P000000A
0402240004002390217260000000155CARPACCIO BOVINO ADULTO.                 0000000008000000100P000000A
0402320004001490216803000000155CODE DI BOVINO ADULTO             (242   0000000008000000100P000000A
0402330004001890217050000000155CERVELLA BOVINO ADULTO.                  0000000008000000100P000000A
0402360004001390217054000000155LINGUA BOVINO ADULTO                     0000000008000000100P000000A
0402400004002390217030000000155CASCIA VITELLONE                         0000000008000000100P000000A
0402410004002490217042000000155SOTTOFILETTO B.A. S/O                    0000000008000000100P000000A
0402420004001590216710000000155SPEZZATINO MAGRO BOVINO                  0000000008000000100P000000A
0402430004001490217255000000155ARROTOLATO BOVINO ADULTO.                0000000008000000100P000000A
0402990004000990216754000000155COSCIA SUINO ANNONI CARTONE              0000000008000000100P000000A
0403020004001090217096000000155COSTINE SUINO                            0000000008000000100P000000A
0403040004001090210247300000155SPIEDISSIMO FILENI                       0000000008000000100P000000A
0403070004001390210392900000155COTECHINO VANIGLIA G.400 CA X3           0000000008000000100P000000A
0403080004001190217105000000155SPIEDINI MAIALE                          0000000008000000100P000000A
0403120004000790216757000000155ZAMPINI SUINO                            0000000008000000100P000000A
0403190004000590218651000000155BUSTONI DI POLLO               (081      0000000008000000100P000000A
0403250004000295216639000000155POLLI TZ X 6 SF AMADORI                  0000000008000000100P000000A
0403260004000590215006000000155COSCE POLLO                              0000000008000000100P000000A
0403270004000490216646000000155COSCIOTTI POLLO                          0000000008000000100P000000A
0403280004001190216643000000155PETTI POLLO EXTRA                        0002000008000000100P000000A
0403290004001390215005000000155FESA TACCHINA FEM.                       0000000008000000100P000000A
0403300004001190216660000000155FARAONE TZ. G. SFUSE                     0000000008000000100P000000A
0403310004000690215007000000155POLLI BUSTO SF                           0000000008000000100P000000A
0403350004001050216662000000155GALLI RUSPANTI                           0000000008000000100P000000A
0403360004000590215004000000155GALLINE   TZ SFUSE                       0000000008000000100P000000A
0403370004000490210030200000155ALI POLLO SF                             0000000008000000100P000000A
0403380004000399203604000000155ALI TACCHINO SF                          0000000008000000100P000000A
0403400004000790216663000000155BUSTO  TACCH.FEM.   KG 7 C.A.X2          0000000008000000100P000000A
0403410004000690216657000000155COSCE TACCHINA FEM.                      0000000008000000100P000000A
0403420004001890214423000000155CONIGLIO PIEMONTESE DISOSSATO            0000000008000000100P000000A
0403430004001190210373600000155SPIEDINI POLLO E SALSICCIA               0000000008000000100P000000A
0403440004001490210217500000155CAPPONI TRADIZIONALI                     0000000008000000100P000000A
0403450004001095215003000000155CONIGLIO NAZ SF                          0000000008000000100P000000A
0403480004001890211642000000155COSCIA AGNELLO NAZIONALE P.I.            0003000012000100100P000000A
0403490004001790211643000000155SPALLA AGNELLO NAZIONALE P.I.            0003000012000100100P000000A
0403500004001990211644000000155COSTINE AGNELLO NAZIONALE P.I.           0003000012000100100P000000A
0403560004001190210170500000155SOVRACOSCE DI POLLO SPIEDO               0003000018000000100P000000A
0403570004001190210170400000155FUSI DI POLLO ALLO SPIEDO                0003000018000000100P000000A
0403580004001190216677000000155LIVORNESI                                0000000008000000100P000000A
0403590004001090214023000000155MEZZO POLLO ALLO SPIEDO                  0000000018000000100P000000A
0403610004000999216655000000155TACCHINELLA MIDI                         0000000008000000100P000000A
0403620004001490216644000000155ANATRA MUTA                              0000000008000000100P000000A
0403650004001490214089000000155SALSICCIA GENTILE ALLO SPIEDO            0000000018000000100P000000A
0403680004000875214371000000155FEGATINI CONIGLIO                        0000000008000000100P000000A
0403690004000990214833000000155ALI POLLO BARBECUE ALLO SPIEDO           0000000018000000100P000000A
0403780004001190210123400000155ROLATINE DI POLLO SV                     0000000008000000100P000000A
0403790004001390000000000000055                                         0000000000000000100P000000D
0403800004002390217092000000155COSTINE AGNELLO DI SARDEGNA IGP   (735   0000000008000000100P000000A
0403810004002190217090000000155COSCE AGNELLO DI SARDEGNA IGP            0000000008000000100P000000A
0403820004002090217091000000155SPALLE AGNELLO DI SARDEGNA IGP           0000000008000000100P000000A
0403830004000990217093000000155BIANCO E NERO AGNELLO                    0000000008000000100P000000A
0403840004000399217094000000155TESTINE AGNELLO                          0000000008000000100P000000A
0403870004001790217089000000155AGNELLO NAZIONALE                        0000000008000000100P000000A
0403880004002690216630000000155CAPRETTI                                 0000000008000000100P000000A
0403890004002790217261000000155COSCIA CAPRETTO                          0000000008000000100P000000A
0403900004002690217262000000155SPALLA CAPRETTO                          0000000008000000100P000000A
0403910004002990217263000000155COSTINE CAPRETTO                         0000000008000000100P000000A
0403920004000399217264000000155TESTINA CAPRETTO                         0000000008000000100P000000A
0403930004000990217265000000155BIANCO/NERO CAPRETTO                     0000000008000000100P000000A
0403940004002490216633000000155MAIALINO 5/8 KG                          0000000008000000100P000000A
0403970004001190210265300000155CONIGLIO NOSTRANO PIEM.X3                0000000008000000100P000000A
0404030004000690216691000000155STINCHI SUINO                            0000000008000000100P000000A
0404090004000590217114000000155FUSI POLLO PIEMONTE                      0000000008000000100P000000A
0404100004001195216634000000155MAIALINO 9/12 KG                         0000000008000000100P000000A
0404110004000990216995000000155PORCHETTA GROSSA                         0000000008000000100P000000A
0404160004000690216755000000155SPALLA SUINO                             0000000008000000100P000000A
0404290004000690216647000000155SOVRACOSCE POLLO SF                      0000000008000000100P000000A
0404300004001990210184700000155ARROSTICINI AGNELLO CATERING             0000000008000000100P000000A
0404420004000990217272000000155COSCIA CAPRA                             0000000008000000100P000000A
0404430004001190217273000000155COSTINE CAPRA                            0000000008000000100P000000A
0404440004001090217274000000155SPALLA CAPRA                             0000000008000000100P000000A
0404450004001290217275000000155SPEZZATINO CAPRA                         0000000008000000100P000000A
0404490004000790218597000000155SOVRAC TACCH                             0000000008000000100P000000A
0404760004001390218608000000155CONIGLIO RIPIENO                         0000000008000000100P000000A
0404850004001190218618000000155LONZA SUINO RIPIENA                      0000000008000000100P000000A
0404920004001290218625000000155ROLLATA TACCHINO                         0000000008000000100P000000A
0404930004001190214520000000155RUSTICHELLE DI POLLO                     0000000008000000100P000000A
0405680004001250217025000000155MAGRO PUNTA BOVINO ADULTO. S/O           0000000008000000100P000000A
0406060004000690219920000000155GALLINA BUSTO PICCOLA SF                 0000000008000000100P000000A
0406090004001990210408200000155CAMPANELLO VITELLO                       0000000008000000100P000000A
0406100004002090211685000000155FETTINE SCELTISSIME BOVINO ADULTO.       0000000008000000100P000000A
0406110004001690211684000000155FETTINE SCELTE BOVINO ADULTO.            0000000008000000100P000000A
0406120004002490211794000000155FETTINE SCELTISSIME VITELLO.             0000000008000000100P000000A
0406130004002190211793000000155FETTINE SCELTE VITELLO.                  0000000008000000100P000000A
0406580004001590210276900000155ROTOLO POLLO SPIEDO                      0000000016000000100P000000A
0406700004001190212680000000155LONZA SUINO SV                           0000000008000000100P000000A
0406730004002049210217400000155FESA BA CASTRATO                         0000000008000000100P000000A
0406740004002049210210200000155NOCE B.A CASTRATO                        0000000008000000100P000000A
0406750004002249210210300000155SCAMONE B.A CASTRATO                     0000000008000000100P000000A
0406760004002350210210400000155GIRELLO B.A CASTRATO                     0000000008000000100P000000A
0406800004002490210210900000155SOTTOFILETTO B.A CASTRATO                0000000008000000100P000000A
0406830004001090210211500000155SCARAMELLA C/O B.A CASTRATO              0000000008000000100P000000A
0406940004001990210212900000155SOTTOFESA B.A CASTRATO                   0000000008000000100P000000A
0407010004002190210090700000155RUSTICHELLE POLLO SPIEDO                 0000000018000000100P000000A
0407020004002190210090800000155TRAMEZZINI PROSC.FORM.SPIEDO             0000000018000000100P000000A
0407040004001590210091400000155CONIGLIO SPIEDO                          0000000018000000100P000000A
0407050004001990210091500000155SPALLE CONIGLIO allo SPIEDO              0000000018000000100P000000A
0407060004002090210091700000155COSCE CONIGLIO ALLO SPIEDO               0000000018000000100P000000A
0407070004002190210092200000155COSTOLETTE CONIGLIO SPIEDO               0000000018000000100P000000A
0407080004001790210092300000155ANATRA ALLO SPIEDO                       0000000018000000100P000000A
0407090004002890210092400000155AGNELLO A PEZZI SPIEDO                   0000000018000000100P000000A
0407150004001690210123300000155MUSCOLO POST SCOTTONA ITALIA             0000000008000000100P000000A
0407160004002149210147900000155FESA SCOTTONA ITALIA                     0000000008000000100P000000A
0407170004002149210148200000155 NOCE SCOTTONA ITALIA                    0000000008000000100P000000A
0407180004002349210148300000155SCAMONE SCOTTONA ITALIA                  0000000008000000100P000000A
0407190004002049210148400000155SOTTOFESA SCOTTONA ITALIA                0000000008000000100P000000A
0407220004002450210148700000155GIRELLO COSCIA SCOTTONA ITALIA           0000000008000000100P000000A
0407230004003590210148800000155GALLINETTA SCOTTONA ITALIA               0000000008000000100P000000A
0407240004002590210148900000155SOTTOFILETTO SCOTTONA ITALIA             0000000008000000100P000000A
0407270004001590210149400000155CODA SCOTTONA ITALIA                     0000000008000000100P000000A
0407330004001148210150200000155FESONE SPALLA SCOTTONA ITALIA            0000000008000000100P000000A
0407350004001390210150400000155OSSIBUCHI DI SCOTTONA ITALIA             0000000008000000100P000000A
0407360004001290210150500000155BOLLITO C.O.SCOTTONA ITALIA              0000000008000000100P000000A
0407390004001790210150800000155SPEZZATINO SCOTTONA ITALIA               0000000008000000100P000000A
0407520004001190211807000000155MACINATA SCELTA                          0000000008000000100P000000A
0407530004001390211806000000155MACINATA SCELTISSIMA BOVINO ADULTO       0000000008000000100P000000A
0407580004001690211848000000155UCCELLETTO BOVINO ADULTO.                0000000008000000100P000000A
0407670004001590211814000000155ARROSTO SCELTO BOVINO ADULTO.            0000000008000000100P000000A
0407680004002490211729000000155FETTINE SCELTISSIME VITELLO.             0000000008000000100P000000A
0407690004001990211730000000155OSSOBUCHI DI VITELLO.                    0000000008000000100P000000A
0407710004000890211766000000155BRACIOLE SUINO                           0000000008000000100P000000A
0407720004001500211767000000155FILETTO SUINO                            0000000008000000100P000000A
