10FFIF  0003497SL20221101531657531657508471001LIEVITO CUBET.g25x2 DESPAR CFGR0050PZ0010040100  1  00000400000000001600000000000026M 000000000260308040100000CFGR000500000000000160OPR02-07030452022103100000000D011NSS                                         X
20FFIF  0003497SL2022110153165753165750847100180414469                                                                                                                                                                                                         X
10FFIF  0003497SL20221101531657531657508478501CAVATELLI FILIERA PUGLIA   BSGR0500PZ0010008040  1  00000080000000011900000000000165M 000000001650310020100000BSGR005000000000001190OPR02-07030452022103100000000D011N1$                                         X
20FFIF  0003497SL202211015316575316575084785018017070770445                                                                                                                                                                                                    X
10FFIF  0003497SL20221101531657531657508480101SCIALATIELLI FILIERA PUGL. BSGR0500PZ0010008040  1  00000080000000011900000000000165M 000000001650310020100000BSGR005000000000001190OPR02-07030452022103100000000D011N1$                                         X
20FFIF  0003497SL202211015316575316575084801018017070770889                                                                                                                                                                                                    X
10FFIF  0003497SL20221101531657531657508473601DELIZIE DI MARE DI DIO     CIGR0130PZ0010006100  1  00000060000000024500000000000359M 000000003590309050500000CIGR001300000000002450OPR02-07030452022103100000000D011N1$                                         X
20FFIF  0003497SL202211015316575316575084736018033309410494                                                                                                                                                                                                    X
10FFIF  0003497SL20221101531657531657508474401BOCCONCINI DI POLPO DI DIO CIGR0130PZ0010006100  1  00000060000000040900000000000589M 000000005890309050500000CIGR001300000000004090OPR02-07030452022103100000000D011N1$                                         X
20FFIF  0003497SL202211015316575316575084744018033309411088                                                                                                                                                                                                    X
10FFIF  0003497SL20221101531657531657506788901GALBANETTO FLOW PACK       FWGR0190PZ0010016100  1  00000160000000019900000000000269MP000000003190306030400000FWGR001900000000002310OPR02-07030452022103100000000D011N1$                                         X
20FFIF  0003497SL202211015316575316575067889018000430611229                                                                                                                                                                                                    X
10FFIF  0003497SL20221101531657531657508506301TONNARELLI VALLEORO        BSGR0450PZ0010012040  1  00000120000000013500000000000165M 000000001650310020300000BSGR004500000000001350OPR02-07030452022103100000000D011N1$                                         X
20FFIF  0003497SL202211015316575316575085063018051166893106                                                                                                                                                                                                    X
10FFIF  0003497SL20221101531657531657508465201PETTO POLLO FORNO AFF. AEQ VSGR0130PZ0010016100  1  00000160000000020900000000000285M 000000002850306011000000VSGR001300000000002090OPR02-07030452022103100000000D011N1$                                         X
20FFIF  0003497SL202211015316575316575084652018008110034078                                                                                                                                                                                                    X
10FFIF  0003497SL20221101531657531657507151901GNOCCHI DI PATATE DESPAR   BSGR0500PZ0010012040  1  00000120000000006400000000000105M 000000001050310020200000CFGR005000000000000640OPR02-07030452022103100000000D011NSS                                         X
20FFIF  0003497SL202211015316575316575071519018001300615132                                                                                                                                                                                                    X
10FFIF  0003497SL20221101531657531657507947001FORMAGGIO PECORA DISCANSU  KG1,60CAKG0010001040  1  00000017500000148900000000002050M 000000020500352050100000SVGR010000000000014890OPR02-07030452022103100000000D011N1$                                         X
10FFIF  0003497SL20221101531657531657503191901CASTELMAGNO DOP 1/2        KG5,00CAKG0010001040  1  00000028400000189900000000002990M 000000029900352090800000SVGR010000000000018990OPR02-07030452022103100000000D011N1$                                         X
10FFIF  0003497SL20221101531657531657019021501RASCHERA DOP               KG8,00CAKG0010001040  1  00000079000000103900000000001550M 000000015500352090800000CFGR010000000000010390OPR02-07030452022103100000000D011N1$                                         X
10FFIF  0003497SL20221101531657531657505460601PROVOLA SILANA PAMA        KG1,20CAKG0010001040  1  00000009500000117900000000001690M 000000016900352060100000CFGR010000000000011790OPR02-07030452022103100000000D011N1$                                         X
10FFIF  0003497SL20221101531657531657000112301CACIOCAVALLO SORESINA      2PX1,9KGKG0010001040  1  00000040900000106000000000001550M 000000015500352060300000CFGR010000000000010600OPR02-07030452022103100000000D011N1$                                         X
10FFIF  0003497SL20221101531657531657503386501PECORINO TOSCANO FRESCO    KG2,50CAKG0010001040  1  00000020900000141500000000002090M 000000020900352050100000CFGR010000000000014150OPR02-07030452022103100000000D011N1$                                         X
10FFIF  0003497SL20221101531657531657507560101ABC MAXI PARMAREGGIO       VSGR0250PZ0010008000     00000080000000011000000000000149M 000000001490309080400000VSGR002500000000001100OPR02-07030452022103100000000D011S1$                                         X
10FFIF  0003497SL20221101531657531657507560101ABC MAXI PARMAREGGIO       VSGR0250PZ0010008040  1  00000080000000008570000000000116I 000000001160309080400000VSGR002500000000000857OPR02-07030452022103100000000D011S1$                                         X
10FFIF  0003497SL20221101531657531657507560101ABC MAXI PARMAREGGIO       VSGR0250PZ0010008220  1  00000080000000002440000000000033I 000000000330309080400000VSGR002500000000000244OPR02-07030452022103100000000D011S1$                                         X
20FFIF  0003497SL202211015316575316575075601017603310000   8010721981078                                                                                                                                                                                       X
10FFIF  0003497SL20221101531657531657505039801MORT.POLLO LIBERAMENTE CM  CFGR0110PZ0010008100  1  00000080000000015800000000000215M 000000002150306010500000CFGR001100000000001580OPR02-07030452022103100000000D011N1$                                         X
20FFIF  0003497SL202211015316575316575050398018004225044407                                                                                                                                                                                                    X
10FFIF  0003497SL20221101531657531657007211601P.REGGIANO DOP 1/8 22 MESI KG5,00CAKG0010001040  1  00000046300000144500000000001790MP000000022900354020100000CFGR010000000000015990OPR02-07030452022103100000000D011N1$                                         X
10FFIF  0003497SL20221101531657531657503528201FONTAL ALPINELLA ZARPELLON CFGR0250PZ0010012040  1  00000120000000026500000000000329M 000000003290301050900000CFGR002500000000002650OPR02-07030452022103100000000D011N1$                                         X
20FFIF  0003497SL2022110153165753165750352820180022260032328002226003225                                                                                                                                                                                       X
10FFIF  0003497SL20221101531657531657507390301ROBIOLA ALBA BIANCA PEZZA. 2PX300GRKG0010001040  1  00000005800000121900000000001650M 000000016500352040300000VSGR010000000000012190OPR02-07030452022103100000000D011N1$                                         X
10FFIF  0003497SL20221101531657531657506628701PECORINO MIX ZARPELLON     BSGR0100PZ0010012040  1  00000120000000015300000000000199M 000000001990301030100000BSGR001000000000001530OPR02-07030452022103100000000D011N1$                                         X
20FFIF  0003497SL202211015316575316575066287018002226005847                                                                                                                                                                                                    X
10FFIF  0003497SL20221101531657531657507281401SALC.DOLCE SUINO NERO PREM.SVGR0300PZ0010006100  1  00000060000000052000000000000789M 000000007890306031000000SVGR003000000000005200OPR02-07030452022103100000000D011NSS                                         X
20FFIF  0003497SL202211015316575316575072814018001300600251                                                                                                                                                                                                    X
10FFIF  0003497SL20221101531657531657503283401TOMA BLU DI LANZO          KG2,00CAKG0010001040  1  00000029200000139500000000002090M 000000020900352090700000$$GR010000000000013950OPR02-07030452022103100000000D011N1$                                         X
10FFIF  0003497SL20221101531657531657503529001FORM.ASIAGO ZARPELLON      CFGR0250PZ0010012040  1  00000120000000025000000000000335M 000000003350301050300000CFGR002500000000002500OPR02-07030452022103100000000D011N1$                                         X
20FFIF  0003497SL2022110153165753165750352900118119703     80022260032568002226003249                                                                                                                                                                          X
10FFIF  0003497SL20221101531657531657507796101WURSTEL FRANKFURTER 3PZ    CFGR0200PZ0010012100  1  00000120000000020700000000000289M 000000002890307010800000CFGR002000000000002070OPR02-07030452022103100000000D011N1$                                         X
20FFIF  0003497SL2022110153165753165750779610180012100139748001210503819                                                                                                                                                                                       X
10FFIF  0003497SL20221101531657531657501772801TORTA ELIT MASC/GORGO DOP  VSGR0150PZ0010012040  1  00000120000000017500000000000225MP000000002690301050100000VSGR001500000000001980OPR02-07030452022103100000000D011N1$                                         X
20FFIF  0003497SL2022110153165753165750177280125182650152988006291547981                                                                                                                                                                                       X
10FFIF  0003497SL20221101531657531657505194101LEERDAMMER FETTE LIGHTLIFE CFGR0100PZ0010012040  1  00000120000000014700000000000185M 000000001850301140400000CFGR001000000000001470OPR02-07030452022103100000000D011N1$                                         X
20FFIF  0003497SL20221101531657531657505194101872180040046430737810410883073780979542                                                                                                                                                                          X
10FFIF  0003497SL20221101531657531657506943001MOZZ.PERLINE 1G.VALCOLATTE DJGR0120PZ0010012040  1  00000480000000010000000000000129MP000000001590301010200000DJGR001200000000001180OPR02-07030452022103100000000D011N1$                                         X
20FFIF  0003497SL202211015316575316575069430018026160008184                                                                                                                                                                                                    X
10FFIF  0003497SL20221101531657531657508238301GUANCIALE STAG.FETTE GARDA.SVGR0200PZ0010010100  1  00000100000000022500000000000299MP000000003750306010300000SVGR002000000000002750OPR02-07030452022103100000000D011N1$                                         X
20FFIF  0003497SL202211015316575316575082383018031905013514                                                                                                                                                                                                    X
10FFIF  0003497SL20221101531657531657506433201FORM.KIRI DIPPI SNACK 3X35G SCGR105PZ0010008040  1  00000080000000017700000000000225M 000000002250309080400000SCGR001050000000001770OPR02-07030452022103100000000D011N1$                                         X
20FFIF  0003497SL2022110153165753165750643320121165639     3073781056358                                                                                                                                                                                       X
10FFIF  0003497SL20221101531657531657508179901RAV.ASTICE/GAMB.OROR.E4,99 BSGR0250PZ0010008100  1  00000080000000029900000000000399MP000000004990310010500000BSGR002500000000003490OPR02-07030452022103100000000D011N1$                                         X
20FFIF  0003497SL202211015316575316575081799018001665720014                                                                                                                                                                                                    X
10FFIF  0003497SL20221101531657531657505335001PIADINA ROMAGNOLA IGPX5    BSGR0600PZ0010010040  1  00000100000000017800000000000249M 000000002490308100100000BSGR006000000000001780OPR02-07030452022103100000000D011N1$                                         X
20FFIF  0003497SL2022110153165753165750533500117130398     800013048009580001304805458019281000137                                                                                                                                                             X
10FFIF  0003497SL20221101531657531657217028001SOTT.KRAFT                 CFGR0200PZ0010012040  1  00000120000000016700000000000199M 000000001990301120100000CFGR002000000000001670OPR02-07030452022103100000000D011N1$                                         X
20FFIF  0003497SL202211015316575316572170280018001590927335                                                                                                                                                                                                    X
10FFIF  0003497SL20221101531657531657049956601SOTT.KRAFT CLASS.          CFGR0400PZ0010006040  1  00000060000000030100000000000359M 000000003590301120100000CFGR004000000000003010OPR02-07030452022103100000000D011N1$                                         X
20FFIF  0003497SL2022110153165753165704995660180016109273698001590927366                                                                                                                                                                                       X
10FFIF  0003497SL20221101531657531657209460501GRATT.BIRAGHI              CFGR0100PZ0010024040  1  00000240000000015200000000000189M 000000001890301030100000CFGR001000000000001520OPR02-07030452022103100000000D011N1$                                         X
20FFIF  0003497SL2022110153165753165720946050118013616     8002004217554                                                                                                                                                                                       X
10FFIF  0003497SL20221101531657531657500791901G.PADANO GRATT.SORESINA    CFGR0100PZ0010016040  1  00000320000000012500000000000159MP000000001990301030100000CFGR001000000000001600OPR02-07030452022103100000000D011N1$                                         X
20FFIF  0003497SL20221101531657531657500791901800467322042280046731104338004673110112                                                                                                                                                                          X
10FFIF  0003497SL20221101531657531657201294601S.VELO 250 CRUDO RANA      VSGR0250PZ0010006100  1  00000120000000019900000000000235MP000000003490310010700000CFGR002500000000002450OPR02-07030452022103100000000D011N1$                                         X
20FFIF  0003497SL202211015316575316572012946018001665011419                                                                                                                                                                                                    X
10FFIF  0003497SL20221101531657531657507606201G.PADANO 1/8 OLTRE 16M     KG4,60CAKG0010001040  1  00000047300000119900000000001690M 000000016900354010100000SVGR010000000000011990OPR02-07030452022103100000000D011N1$                                         X
10FFIF  0003497SL20221101531657531657507715101SALAMETTO DEL BORGO        SVGR0140PZ0010015100  1  00000150000000014500000000000199MP000000002490306030400000SVGR001400000000001690OPR02-07030452022103100000000D011N1$                                         X
20FFIF  0003497SL202211015316575316575077151018016460000971                                                                                                                                                                                                    X
10FFIF  0003497SL20221101531657531657507414101PANC.DOLCE CUBETTI BERETTA VSGR0150PZ0010012100  1  00000120000000024400000000000349M 000000003490306020100000VSGR001500000000002440OPR02-07030452022103100000000D011N1$                                         X
20FFIF  0003497SL20221101531657531657507414101800766093007680076609000798007660482001                                                                                                                                                                          X
10FFIF  0003497SL20221101531657531657507176601TAGLIATELLE UOVO DESPAR    SKGR0250PZ0010008040  1  00000080000000008900000000000135M 000000001350310020300000SKGR002500000000000890OPR02-07030452022103100000000D011NSS                                         X
20FFIF  0003497SL202211015316575316575071766018001300610397                                                                                                                                                                                                    X
10FFIF  0003497SL20221101531657531657503387301BURRO PREALPINA            CFGR0250PZ0010040040  1  00000400000000021800000000000265M 000000002650305010100000CFGR002500000000002180OPR02-07030452022103100000000D011NDD                                         X
20FFIF  0003497SL202211015316575316575033873018002226000033                                                                                                                                                                                                    X
10FFIF  0003497SL20221101531657531657504528101LATTE M.FILTRATO INTERO    BTML1000PZ0010008040  1  00000080000000011600000000000149M 000000001490304011000000BTML010000000000001160OPR02-07030452022103100000000D011N1$                                         X
20FFIF  0003497SL20221101531657531657504528101800502300109880054761915138033209029710                                                                                                                                                                          X
10FFIF  0003497SL20221101531657531657007294201EMMENTALER SVIZZERO        KG6,00CAKG0010001040  1  00000056100000143900000000001850M 000000018500352070200000SFGR010000000000014390OPR02-07030452022103100000000D011N1$                                         X
10FFIF  0003497SL20221101531657531657503600901GRATT.MIX ZARPELLON        CFGR0100PZ0010025040  1  00000250000000009900000000000135M 000000001350301030100000CFGR001000000000000990OPR02-07030452022103100000000D011NDD                                         X
20FFIF  0003497SL2022110153165753165750360090180022260073088002226000439                                                                                                                                                                                       X
10FFIF  0003497SL20221101531657531657216907601SOTT.FILA FONDI            CFGR0200PZ0010012040  1  00000120000000014500000000000155MP000000001950301120100000CFGR002000000000001590OPR02-07030452022103100000000D011N1$                                         X
20FFIF  0003497SL2022110153165753165721690760180016109273768001590927373                                                                                                                                                                                       X
10FFIF  0003497SL20221101531657531657504777401BIRAGHINI                  CFGR0400PZ0010012040  1  00000120000000068400000000000789M 000000007890301030200000CFGR004000000000006840OPR02-07030452022103100000000D011N1$                                         X
20FFIF  0003497SL202211015316575316575047774018002004215079                                                                                                                                                                                                    X
10FFIF  0003497SL20221101531657531657507198001TORTELLINI CARNE DESPAR    VSGR0250PZ0010008100  1  00000080000000011600000000000199M 000000001990310010300000VSGR002500000000001160OPR02-07030452022103100000000D011NSS                                         X
20FFIF  0003497SL202211015316575316575071980018001300610700                                                                                                                                                                                                    X
10FFIF  0003497SL20221101531657531657503582901LEERDAMMER SPEC.TOAST      CFGR0125PZ0010012040  1  00000120000000015200000000000199M 000000001990301140500000CFGR001250000000001520OPR02-07030452022103100000000D011N1$                                         X
20FFIF  0003497SL2022110153165753165750358290119092473     872180040600887218001818518721800081854                                                                                                                                                             X
10FFIF  0003497SL20221101531657531657507051101FORM.FETTEALLEGREX16 DESP. CFGR0400PZ0010016040  1  00000160000000020200000000000295M 000000002890301120100000CFGR004000000000002020OPR02-07030452022103100000000D011NSS                                         X
20FFIF  0003497SL202211015316575316575070511018001300620198                                                                                                                                                                                                    X
10FFIF  0003497SL20221101531657531657504111601PESTO NOCI RANA            VTGR0140PZ0010006100  1  00000060000000013900000000000169MP000000002590309110400000VTGR001400000000001780OPR02-07030452022103100000000D011N1$                                         X
20FFIF  0003497SL2022110153165753165750411160180016657040078001665124065                                                                                                                                                                                       X
10FFIF  0003497SL20221101531657531657507165901ORECCHIETTE FRESCHE DESPAR SKGR0500PZ0010010040  1  00000100000000011500000000000169M 000000001690310020100000SKGR005000000000001150OPR02-07030452022103100000000D011NSS                                         X
20FFIF  0003497SL202211015316575316575071659018001300610182                                                                                                                                                                                                    X
10FFIF  0003497SL20221101531657531657507786201MORTADELLA AFFET.DESPAR    VSGR0120PZ0010010100  1  00000100000000016100000000000249M 000000002490306010500000VSGR001200000000001610OPR02-07030452022103100000000D011NSS                                         X
20FFIF  0003497SL202211015316575316575077862018001300551089                                                                                                                                                                                                    X
10FFIF  0003497SL20221101531657531657505725201SPECK SENFTER IGP SUDTIROL VSGR0080PZ0010007100  1  00000070000000020600000000000299M 000000002990306010800000VSGR000800000000002060OPR02-07030452022103100000000D011N1$                                         X
20FFIF  0003497SL2022110153165753165750572520180030131044848003013004487                                                                                                                                                                                       X
10FFIF  0003497SL20221101531657531657504109001SUGO BOLOGNESE RANA        VAGR0225PZ0010006100  1  00000060000000013900000000000169MP000000002590309110600000VAGR002250000000001780OPR02-07030452022103100000000D011N1$                                         X
20FFIF  0003497SL2022110153165753165750410900180016657039948001665124041                                                                                                                                                                                       X
10FFIF  0003497SL20221101531657531657503932601GORGO DOLCE PALZOLA        CFGR0200PZ0010012040  1  00000120000000020300000000000249M 000000002490301050100000CFGR002000000000002030OPR02-07030452022103100000000D011NDD                                         X
20FFIF  0003497SL202211015316575316575039326018032919940018                                                                                                                                                                                                    X
10FFIF  0003497SL20221101531657531657504108201PEST.S/AGL.BASIL/PIN.RANA  VSGR0140PZ0010006100  1  00000060000000013900000000000169MP000000002590309110300000VAGR001400000000001780OPR02-07030452022103100000000D011N1$                                         X
20FFIF  0003497SL202211015316575316575041082018001665124010                                                                                                                                                                                                    X
10FFIF  0003497SL20221101531657531657504719601PESTO FRESCO GENOVESE RANA VSGR0140PZ0010006100  1  00000060000000013900000000000169MP000000002590309110300000VSGR001400000000001780OPR02-07030452022103100000000D011N1$                                         X
20FFIF  0003497SL202211015316575316575047196018001665127493                                                                                                                                                                                                    X
10FFIF  0003497SL20221101531657531657506661801ABC CROSTAT.CACA+LATTE E1,1VSGR0157PZ0010010000     00000100000000008300000000000109M 000000001090309080400000VSGR001570000000000830OPR02-07030452022103100000000D011S1$                                         X
10FFIF  0003497SL20221101531657531657506661801ABC CROSTAT.CACA+LATTE E1,1VSGR0157PZ0010010100  1  00000100000000005280000000000069I 000000000690309080400000VSGR001570000000000528OPR02-07030452022103100000000D011S1$                                         X
10FFIF  0003497SL20221101531657531657506661801ABC CROSTAT.CACA+LATTE E1,1VSGR0157PZ0010010220  1  00000100000000003020000000000040I 000000000400309080400000VSGR001570000000000302OPR02-07030452022103100000000D011S1$                                         X
20FFIF  0003497SL202211015316575316575066618014991400002   4990870101   4990390002   8010721984611                                                                                                                                                             X
10FFIF  0003497SL20221101531657531657507199801CAPPELLET.PR.CRUDO DESPAR  VSGR0250PZ0010008100  1  00000080000000011600000000000199M 000000001990310010700000VSGR002500000000001160OPR02-07030452022103100000000D011NSS                                         X
20FFIF  0003497SL202211015316575316575071998018001300610717                                                                                                                                                                                                    X
10FFIF  0003497SL20221101531657531657505304601SALAMINI CLASS.BERETTA     VSGR0085PZ0010012100  1  00000120000000014300000000000199M 000000001990306020400000VSGR000850000000001430OPR02-07030452022103100000000D011N1$                                         X
20FFIF  0003497SL2022110153165753165750530460180076609188698007660838525                                                                                                                                                                                       X
10FFIF  0003497SL20221101531657531657500605101GORGO GOLD CHEF BASSI      KG6,00CAKG0010001040  1  00000056700000089900000000001290MP000000015900352080100000CFGR010000000000010490OPR02-07030452022103100000000D011N1$                                         X
20FFIF  0003497SL2022110153165753165750060510117230941                                                                                                                                                                                                         X
10FFIF  0003497SL20221101531657531657504589301LEERDAMMER FETTE FONDENTE  CFGR0150PZ0010010040  1  00000100000000016300000000000209M 000000002090301140500000CFGR001500000000001630OPR02-07030452022103100000000D011N1$                                         X
20FFIF  0003497SL20221101531657531657504589301872180040098330737810119513073781011944                                                                                                                                                                          X
10FFIF  0003497SL20221101531657531657502386601PROV.DOLCE SORESINA ATM    CFGR0200PZ0010012040  1  00000120000000025700000000000329M 000000003290301051200000CFGR002000000000002570OPR02-07030452022103100000000D011N1$                                         X
20FFIF  0003497SL2022110153165753165750238660180046731000078004673700108                                                                                                                                                                                       X
10FFIF  0003497SL20221101531657531657508507101TAGLIOLINI VALLEORO        BSGR0450PZ0010012040  1  00000120000000013900000000000179M 000000001790310020300000BSGR004500000000001390OPR02-07030452022103100000000D011N1$                                         X
20FFIF  0003497SL202211015316575316575085071018051166893113                                                                                                                                                                                                    X
10FFIF  0003497SL20221101531657531657507210301UOVA  ALL. A TERRA S/ANT 4PZ DESP  PZ0010024100  1  00000240000000008900000000000145M 000000001450311010800000CFPZ000010000000000890OPR02-07030452022103100000000D011NSS                                         X
20FFIF  0003497SL202211015316575316575072103018001300643944                                                                                                                                                                                                    X
10FFIF  0003497SL20221101531657531657507532001UOVA P.GIALLA MEDIE AIAX6 ALL.TERRAPZ0010016100  1  00000160000000017300000000000239M 000000002390311010800000CF  000000000000001730OPR02-07030452022103100000000D011N1$                                         X
20FFIF  0003497SL202211015316575316575075320018008110042035                                                                                                                                                                                                    X
10FFIF  0003497SL20221101531657531657500792701BURRO SORESINA             CFGR0125PZ0010040040  1  00000400000000014100000000000175M 000000001750305010100000CFGR001250000000001410OPR02-07030452022103100000000D011N1$                                         X
20FFIF  0003497SL20221101531657531657500792701233647006090880046730061878004673220163                                                                                                                                                                          X
10FFIF  0003497SL20221101531657531657507789601FOCACCIA TRAD.19X13        FWGR0135PZ0010006040  1  00000120000000012700000000000179M 000000001790309070200000FWGR001350000000001270OPR02-07030452022103100000000D011N1$                                         X
20FFIF  0003497SL202211015316575316575077896018019290999125                                                                                                                                                                                                    X
10FFIF  0003497SL20221101531657531657507580901S.VELO 250 PEC/CRUDO RANA  BSGR0250PZ0010012100  1  00000120000000019900000000000235MP000000003490310010300000BSGR002500000000002450OPR02-07030452022103100000000D011N1$                                         X
20FFIF  0003497SL202211015316575316575075809018001665708272                                                                                                                                                                                                    X
10FFIF  0003497SL20221101531657531657507249101PIADINE ROMAGNOLEX3 PREM.  CFGR0360PZ0010010040  1  00000100000000022500000000000349M 000000003490308100100000CFGR003600000000002250OPR02-07030452022103100000000D011NSS                                         X
20FFIF  0003497SL202211015316575316575072491018001300620518                                                                                                                                                                                                    X
10FFIF  0003497SL20221101531657531657040933401PANC.AFFUM.CUBETTIX2 NEGRO.VSGR0140PZ0010016100  1  00000320000000018900000000000269MP000000003390306020200000VSGR001400000000002290OPR02-07030452022103100000000D011N1$                                         X
20FFIF  0003497SL2022110153165753165704093340180639749                                                                                                                                                                                                         X
10FFIF  0003497SL20221101531657531657011051001PIZZOTTELLA PREALPI        CFGR0250PZ0010006040  1  00000060000000023600000000000319M 000000003190301010200000CFGR002500000000002360OPR02-07030452022103100000000D011N1$                                         X
20FFIF  0003497SL2022110153165753165701105100180179139                                                                                                                                                                                                         X
10FFIF  0003497SL20221101531657531657508178101RAV.BRASA/AMARO.ORORO.E4,99BSGR0250PZ0010008100  1  00000080000000029900000000000399MP000000004990310010300000BSGR002500000000003490OPR02-07030452022103100000000D011N1$                                         X
20FFIF  0003497SL202211015316575316575081781018001665720021                                                                                                                                                                                                    X
10FFIF  0003497SL20221101531657531657507928001P.REGG.JULIENNE PARMAREG.  DJGR0085PZ0010010040  1  00000200000000014500000000000179MP000000002290301030100000DJGR000850000000001700OPR02-07030452022103100000000D011N1$                                         X
20FFIF  0003497SL202211015316575316575079280018010721980057                                                                                                                                                                                                    X
10FFIF  0003497SL20221101531657531657504655201BURRO PARMAREGGIO          CFGR0100PZ0010016040  1  00000160000000008900000000000109MP000000001350305010100000CFGR001000000000001070OPR02-07030452022103100000000D011N1$                                         X
20FFIF  0003497SL2022110153165753165750465520180353003     6270240000   6153440100   6253220100   41408000004456151250100   8010721999165                                                                                                                      X
10FFIF  0003497SL20221101531657531657053492501FONTINA AOSTA DOP 1/4 SV   KG2,80CAKG0010001040  1  00000018800000151000000000002070M 000000020700352090400000CFGR028000000000015100OPR02-07030452022103100000000D011N1$                                         X
10FFIF  0003497SL20221101531657531657217995001FORMAGGIO FETA GRECA       KG2,00CAKG0010001040  1  00000020000000106500000000001570M 000000015700352041000000VSGR010000000000010650OPR02-07030452022103100000000D011N1$                                         X
20FFIF  0003497SL202211015316575316572179950015201704054053                                                                                                                                                                                                    X
10FFIF  0003497SL20221101531657531657507251701PANC.AFFUM.CUBET.70X2 DESP.VSGR0140PZ0010012100  1  00000120000000013700000000000209M 000000002090306020200000VSGR001400000000001370OPR02-07030452022103100000000D011NSS                                         X
20FFIF  0003497SL202211015316575316575072517018001300552215                                                                                                                                                                                                    X
10FFIF  0003497SL20221101531657531657505701301WURSTEL POL/TAC 3PZ EVVIVA CFGR0250PZ0010012100  1  00000120000000010000000000000149M 000000001490307010700000CFGR002500000000001000OPR02-07030452022103100000000D011N1$                                         X
20FFIF  0003497SL2022110153165753165750570130180064730079068006473000600                                                                                                                                                                                       X
10FFIF  0003497SL20221101531657531657507297001FOCACCIA POMOD.19X13 PIZZA+FWGR0170PZ0010006100  1  00000060000000013900000000000189M 000000001890309070200000PZGR001700000000001390OPR02-07030452022103100000000D011N1$                                         X
20FFIF  0003497SL202211015316575316575072970018019290999118                                                                                                                                                                                                    X
10FFIF  0003497SL20221101531657531657507134501STRACCHINO DESPAR          FWGR0100PZ0010008040  1  00000080000000008300000000000119M 000000001190301060100000FWGR001000000000000830OPR02-07030452022103100000000D011NSS                                         X
20FFIF  0003497SL202211015316575316575071345018001300652489                                                                                                                                                                                                    X
10FFIF  0003497SL20221101531657531657508033801SPAGHETTI CHITARRA VALLEO. BSGR0500PZ0010010040  1  00000100000000013500000000000165M 000000001650310020300000BSGR005000000000001350OPR02-07030452022103100000000D011N1$                                         X
20FFIF  0003497SL202211015316575316575080338018051166892017                                                                                                                                                                                                    X
10FFIF  0003497SL20221101531657531657508201101GRANCOTTO SNELLO ROVAGNATI VSGR0100PZ0010010100  1  00000100000000020600000000000299M 000000002990306010200000VSGR001000000000002060OPR02-07030452022103100000000D011N1$                                         X
20FFIF  0003497SL202211015316575316575082011018007141516836                                                                                                                                                                                                    X
10FFIF  0003497SL20221101531657531657500508701FONTAL 1/4 SV              KG2,00CAKG0010001040  1  00000031100000089500000000001190M 000000011900352090400000CFGR010000000000008950OPR02-07030452022103100000000D011N1$                                         X
10FFIF  0003497SL20221101531657531657507042001GORGONZOLA DESPAR          VSGR0200PZ0010006040  1  00000060000000019000000000000259M 000000002590301050100000VSGR002000000000001900OPR02-07030452022103100000000D011NSS                                         X
20FFIF  0003497SL2022110153165753165750704200120088469     8001300651222                                                                                                                                                                                       X
10FFIF  0003497SL20221101531657531657507250901PANC.DOLCE CUBET.70x2 DESP.VSGR0140PZ0010012100  1  00000120000000013700000000000209M 000000002090306020100000VSGR001400000000001370OPR02-07030452022103100000000D011NSS                                         X
20FFIF  0003497SL202211015316575316575072509018001300552147                                                                                                                                                                                                    X
10FFIF  0003497SL20221101531657531657506945501GRANCOTTO DADINI ROVAGNATI VSGR0100PZ0010012100  1  00000120000000014300000000000198M 000000001980306020300000VSGR001000000000001430OPR02-07030452022103100000000D011N1$                                         X
20FFIF  0003497SL202211015316575316575069455018007141512814                                                                                                                                                                                                    X
10FFIF  0003497SL20221101531657531657505999301SAL.NOSTRANO CORTEBUONA    VSGR0120PZ0010012100  1  00000120000000019700000000000279M 000000002790306010400000VSGR001200000000001970OPR02-07030452022103100000000D011N1$                                         X
20FFIF  0003497SL202211015316575316575059993018007273002214                                                                                                                                                                                                    X
10FFIF  0003497SL20221101531657531657504272601BLOCC.GRAT.FACILE BIRAGHI  CFGR0200PZ0010010040  1  00000100000000028000000000000349M 000000003490301030300000CFGR002000000000002800OPR02-07030452022103100000000D011N1$                                         X
20FFIF  0003497SL202211015316575316575042726018002004252111                                                                                                                                                                                                    X
10FFIF  0003497SL20221101531657531657026675901SFOGLIAGREZZA TAGLIATELLE  CFGR0250PZ0010012040  1  00000240000000011200000000000129MP000000001750310020300000CFGR002500000000001270OPR02-07030452022103100000000D011N1$                                         X
20FFIF  0003497SL2022110153165753165702667590187404271246458001665700429600540570040550080011246458001245114592400104112578940010411246218001665114592                                                                                                         X
10FFIF  0003497SL20221101531657531657040931801PANC.DOLCE CUBETTIX2 NEGRO.VSGR0140PZ0010016100  1  00000320000000018900000000000269MP000000003390306020100000VSGR001400000000002290OPR02-07030452022103100000000D011N1$                                         X
20FFIF  0003497SL2022110153165753165704093180180639756                                                                                                                                                                                                         X
10FFIF  0003497SL20221101531657531657503639701PANC.AFF.CUBETTI BERETTA   CFGR0150PZ0010012100  1  00000120000000024400000000000349M 000000003490306020200000CFGR001500000000002440OPR02-07030452022103100000000D011N1$                                         X
20FFIF  0003497SL20221101531657531657503639701800766093008380076609000628007660482100                                                                                                                                                                          X
10FFIF  0003497SL20221101531657531657507093301WURSTEL PURO SUINO DESPAR  CFGR0250PZ0010012100  1  00000120000000010400000000000159M 000000001590307010800000CFGR002500000000001040OPR02-07030452022103100000000D011NSS                                         X
20FFIF  0003497SL202211015316575316575070933018001300551034                                                                                                                                                                                                    X
10FFIF  0003497SL20221101531657531657504159501MEZZELUNE CARNE GIANO      BSGR0500PZ0010010100  1  00000100000000013500000000000199M 000000001990310010300000BSGR005000000000001350OPR02-07030452022103100000000D011NDD                                         X
20FFIF  0003497SL2022110153165753165750415950180197001007698019700100080                                                                                                                                                                                       X
10FFIF  0003497SL20221101531657531657044124601S.VELO 250 AGNOL.BRAS.RANA VSGR0250PZ0010006100  1  00000180000000019900000000000235MP000000003490310010300000CFGR002500000000002450OPR02-07030452022103100000000D011N1$                                         X
20FFIF  0003497SL20221101531657531657044124601800146511462461026051561148001665116114                                                                                                                                                                          X
10FFIF  0003497SL20221101531657531657503612401PASTA FILATA MINI BAYERNL. FWGR0300PZ0010012040  1  00000120000000019600000000000259M 000000002590301051200000SKGR003000000000001960OPR02-07030452022103100000000D011N1$                                         X
20FFIF  0003497SL2022110153165753165750361240140021742083324002174008338                                                                                                                                                                                       X
10FFIF  0003497SL20221101531657531657500909701WURSTEL WUBER PURO SUINO   CFGR0100PZ0010015100  1  00000150000000005900000000000079MP000000000990307010800000CFGR001000000000000720OPR02-07030452022103100000000D011N1$                                         X
20FFIF  0003497SL20221101531657531657500909701800766090673680012100100348001210502010                                                                                                                                                                          X
10FFIF  0003497SL20221101531657531657216785601WURSTEL P.SUINO.SENFTER    CFGR0100PZ0010030100  1  00000300000000008600000000000119M 000000001190307010800000CFGR001000000000000860OPR02-07030452022103100000000D011N1$                                         X
20FFIF  0003497SL20221101531657531657216785601800301312039280030131317638003013031605                                                                                                                                                                          X
10FFIF  0003497SL20221101531657531657506246801P.COTTO SCELTO CORTE BUONA VSGR0120PZ0010012100  1  00000120000000014000000000000189M 000000001890306010200000VSGR001200000000001400OPR02-07030452022103100000000D011NDD                                         X
20FFIF  0003497SL202211015316575316575062468018005214007557                                                                                                                                                                                                    X
10FFIF  0003497SL20221101531657531657507095801WURSTEL DI POLLO DESPAR    CFGR0250PZ0010012100  1  00000120000000008300000000000139M 000000001390307010700000CFGR002500000000000830OPR02-07030452022103100000000D011NSS                                         X
20FFIF  0003497SL202211015316575316575070958018001300551010                                                                                                                                                                                                    X
10FFIF  0003497SL20221101531657531657507241801SAL.UNGHERESE AFFET.DESPAR VSGR0100PZ0010010100  1  00000100000000019600000000000289M 000000002890306010400000VSGR001000000000001960OPR02-07030452022103100000000D011NSS                                         X
20FFIF  0003497SL202211015316575316575072418018001300551126                                                                                                                                                                                                    X
10FFIF  0003497SL20221101531657531657506683201TENERONI MEREN.BRIOCHE SAL.VSGR0170PZ0010008100  1  00000080000000015000000000000195M 000000001950309080400000VSGR001700000000001500OPR02-07030452022103100000000D011N1$                                         X
20FFIF  0003497SL202211015316575316575066832018004225058398                                                                                                                                                                                                    X
10FFIF  0003497SL20221101531657531657507215201SFOGLIA RUST.LASAGNE DESP  VSGR0250PZ0010010040  1  00000100000000008000000000000129M 000000001290310020300000VSGR002500000000000800OPR02-07030452022103100000000D011NSS                                         X
20FFIF  0003497SL202211015316575316575072152018001300610885                                                                                                                                                                                                    X
10FFIF  0003497SL20221101531657531657501577101TENERONI PRO/MOZZ C.MODENA VSGR0150PZ0010012100  1  00000120000000016900000000000229MP000000002990309100100000VSGR001500000000002120OPR02-07030452022103100000000D011N1$                                         X
20FFIF  0003497SL2022110153165753165750157710180642862     80042250563638002160050262                                                                                                                                                                          X
10FFIF  0003497SL20221101531657531657201300101S.VELO 125 P.CRUDO RANA    VSGR0125PZ0010012100  1  00000120000000012900000000000179M 000000001790310010700000CFGR001250000000001290OPR02-07030452022103100000000D011N1$                                         X
20FFIF  0003497SL2022110153165753165720130010180476504                                                                                                                                                                                                         X
10FFIF  0003497SL20221101531657531657506349001GNOCCHI FRESCHI PATAMORE   CFGR0500PZ0010006040  1  00000060000000015900000000000239M 000000002390310020200000CFGR005000000000001590OPR02-07030452022103100000000D011N1$                                         X
20FFIF  0003497SL202211015316575316575063490018013873205009                                                                                                                                                                                                    X
10FFIF  0003497SL20221101531657531657505391301GNOCCHI COME UNA VOLTA ALF.CFGR0500PZ0010006040  1  00000060000000020900000000000289M 000000002890310020200000CFGR005000000000002090OPR02-07030452022103100000000D011N1$                                         X
20FFIF  0003497SL2022110153165753165750539130166237780684298031175071580                                                                                                                                                                                       X
10FFIF  0003497SL20221101531657531657500774501SOFFIC.PR.COTTO CITTERIO   VSGR0080PZ0010012100  1  00000120000000015400000000000199M 000000001990306010200000VSGR000800000000001540OPR02-07030452022103100000000D011N1$                                         X
20FFIF  0003497SL2022110153165753165750077450180551010                                                                                                                                                                                                         X
10FFIF  0003497SL20221101531657531657504722001RUSTICI RAVIOL.VITEL.RANA  VSGR0250PZ0010006100  1  00000060000000019900000000000229MP000000003450310010300000VSGR002500000000002470OPR02-07030452022103100000000D011N1$                                         X
20FFIF  0003497SL202211015316575316575047220018001665124645                                                                                                                                                                                                    X
10FFIF  0003497SL20221101531657531657218664101TENERONI PR.COTTO MODENA   VSGR0150PZ0010012100  1  00000120000000016900000000000229MP000000002990309100100000VSGR001500000000002120OPR02-07030452022103100000000D011N1$                                         X
20FFIF  0003497SL2022110153165753165721866410180626688     8004225056301                                                                                                                                                                                       X
10FFIF  0003497SL20221101531657531657507166701TROFIE FRESCHE  DESPAR     SKGR0500PZ0010010040  1  00000100000000011500000000000169M 000000001690310020100000SKGR005000000000001150OPR02-07030452022103100000000D011NSS                                         X
20FFIF  0003497SL202211015316575316575071667018001300610212                                                                                                                                                                                                    X
10FFIF  0003497SL20221101531657531657507064401SCAMORZA BIANCA DESPAR     CFGR0250PZ0010010040  1  00000100000000023200000000000319M 000000003190301051200000CFGR002500000000002320OPR02-07030452022103100000000D011NSS                                         X
20FFIF  0003497SL202211015316575316575070644018001300651383                                                                                                                                                                                                    X
10FFIF  0003497SL20221101531657531657500776001SOFFIC.P.CRUDO CITTERIO    VSGR0060PZ0010012100  1  00000120000000014700000000000189M 000000001890306010100000VSGR000600000000001470OPR02-07030452022103100000000D011N1$                                         X
20FFIF  0003497SL2022110153165753165750077600180618638     4144813112                                                                                                                                                                                          X
10FFIF  0003497SL20221101531657531657507205301UOVA MEDIE X6 ALLEV.A TERRA DESPAR PZ0010016100  1  00000320000000011600000000000195M 000000001950311010800000CFPZ000010000000001160OPR02-07030452022103100000000D011NSS                                         X
20FFIF  0003497SL2022110153165753165750720530180013006437608001300643838                                                                                                                                                                                       X
10FFIF  0003497SL20221101531657531657001911701LASAGNE S.VELO RANA        BSGR0250PZ0010012040  1  00000120000000019700000000000259M 000000002590310020300000CFGR002500000000001970OPR02-07030452022103100000000D011N1$                                         X
20FFIF  0003497SL2022110153165753165700191170120036551     20035582     304866512462180056631146841192711112864680476511    83116651246458001665126632415111111525473412811128648001665112468                                                                  X
10FFIF  0003497SL20221101531657531657507206101UOVA GRANDI X6 ALLEV.A TERRA DESPARPZ0010016100  1  00000320000000011700000000000199M 000000001990311010800000CFPZ000010000000001170OPR02-07030452022103100000000D011NSS                                         X
20FFIF  0003497SL2022110153165753165750720610180013006437848001300643852                                                                                                                                                                                       X
10FFIF  0003497SL20221101531657531657502986301PESTO S/AGLIO ARTIGIANA    VSGR0090PZ0010012100  1  00000120000000008200000000000109M 000000001090309110300000VSGR000900000000000820OPR02-07030452022103100000000D011N1$                                         X
20FFIF  0003497SL2022110153165753165750298630180290650029988029065002363902826500204280290650020428029065000635                                                                                                                                                X
10FFIF  0003497SL20221101531657531657007471601PEC.ROMANO 1/4 SV          KG5,00CAKG0010001040  1  00000060500000189000000000002370M 000000023700352100100000CFKG000050000000018900OPR02-07030452022103100000000D011N1$                                         X
10FFIF  0003497SL20221101531657531657216631201WURSTEL WUDY CLASS. AIA T  CFGR0250PZ0010015100  1  00000150000000008500000000000119MP000000001590307010700000CFGR002500000000001200OPR02-07030452022103100000000D011N1$                                         X
20FFIF  0003497SL2022110153165753165721663120180042480020028008110002008                                                                                                                                                                                       X
10FFIF  0003497SL20221101531657531657505880501BACON FETTE AFFUM.BERETTA  VSGR0100PZ0010010100  1  00000100000000027000000000000389M 000000003890306011100000VSGR001000000000002700OPR02-07030452022103100000000D011N1$                                         X
20FFIF  0003497SL202211015316575316575058805018007660486634                                                                                                                                                                                                    X
10FFIF  0003497SL20221101531657531657506248401P.CRUDO CORTE BUONA        VSGR0090PZ0010012100  1  00000120000000017900000000000235M 000000002350306010100000VSGR000900000000001790OPR02-07030452022103100000000D011N1$                                         X
20FFIF  0003497SL202211015316575316575062484018005214007564                                                                                                                                                                                                    X
10FFIF  0003497SL20221101531657531657502985501PESTO ARTIGIANA GENOVESE   VSGR0090PZ0010012100  1  00000120000000008200000000000109M 000000001090309110300000VSGR000900000000000820OPR02-07030452022103100000000D011N1$                                         X
20FFIF  0003497SL2022110153165753165750298550180290650029818029065002356902826500187880290650018788029065001014                                                                                                                                                X
10FFIF  0003497SL20221101531657531657048257001RUSTICI CAPPELL.CRUDO RANA VSGR0250PZ0010006100  1  00000060000000019900000000000229MP000000003450310010300000CFGR002500000000002470OPR02-07030452022103100000000D011N1$                                         X
20FFIF  0003497SL20221101531657531657048257001800166512349580016651246078001665116978                                                                                                                                                                          X
10FFIF  0003497SL20221101531657531657507399401STRACCHINO DEL BORGO S/LAT.FWGR0150PZ0010006040  1  00000060000000014300000000000195M 000000001950301060300000FWGR001500000000001430OPR02-07030452022103100000000D011N1$                                         X
20FFIF  0003497SL202211015316575316575073994018032754340219                                                                                                                                                                                                    X
10FFIF  0003497SL20221101531657531657507108901HAMB.COTTO/MOZZ.X2 DESPAR  CFGR0150PZ0010007100  1  00000070000000013800000000000209M 000000002090309100100000CFGR001500000000001380OPR02-07030452022103100000000D011NSS                                         X
20FFIF  0003497SL202211015316575316575071089018001300552116                                                                                                                                                                                                    X
10FFIF  0003497SL20221101531657531657026674201S.VELO 250 RIC/ERB RANA    CFGR0250PZ0010006100  1  00000060000000019900000000000235MP000000003490310010600000CFGR002500000000002450OPR02-07030452022103100000000D011N1$                                         X
20FFIF  0003497SL202211015316575316570266742018001665114684                                                                                                                                                                                                    X
10FFIF  0003497SL20221101531657531657213245401GNOCCHI ROMANA RANA        CFGR0500PZ0010010100  1  00000100000000014600000000000219M 000000002190309100500000CFGR005000000000001460OPR02-07030452022103100000000D011N1$                                         X
20FFIF  0003497SL2022110153165753165721324540180564843     4001041703994                                                                                                                                                                                       X
10FFIF  0003497SL20221101531657531657508505501FETTUCCINE VALLEORO        BSGR0450PZ0010012040  1  00000120000000013900000000000179M 000000001790310020300000BSGR004500000000001390OPR02-07030452022103100000000D011N1$                                         X
20FFIF  0003497SL202211015316575316575085055018051166893076                                                                                                                                                                                                    X
10FFIF  0003497SL20221101531657531657503880701UOVO BONTA'OVO X4 ALL.A TERRA      PZ0010018100  1  00000180000000009200000000000135M 000000001350311010800000$$  000000000000000920OPR02-07030452022103100000000D011N1$                                         X
20FFIF  0003497SL2022110153165753165750388070180175510024788017551001501                                                                                                                                                                                       X
10FFIF  0003497SL20221101531657531657502984801SALSA NOCI ARTIGIANA GEN.  BCGR0090PZ0010012100  1  00000120000000007500000000000099M 000000000990309110400000BCGR000900000000000750OPR02-07030452022103100000000D011N1$                                         X
20FFIF  0003497SL20221101531657531657502984801802906500300180290650011378029065000390                                                                                                                                                                          X
10FFIF  0003497SL20221101531657531657507331701MOZZ.S.LUCIA S/LATT.3X100  BSGR0300PZ0010008040  1  00000160000000026900000000000299MP000000003990301010400000BSGR003000000000003070OPR02-07030452022103100000000D011N1$                                         X
20FFIF  0003497SL202211015316575316575073317018000430134797                                                                                                                                                                                                    X
10FFIF  0003497SL20221101531657531657507045301MASCARPONE DESPAR          CIGR0250PZ0010012040  1  00000120000000016000000000000239M 000000002390301100100000CIGR002500000000001600OPR02-07030452022103100000000D011NSS                                         X
20FFIF  0003497SL202211015316575316575070453018001300621034                                                                                                                                                                                                    X
10FFIF  0003497SL20221101531657531657022223201BUNET ELENA TRANCIO        CFGR1000PZ0010001100  1  00000010000000058000000000000799M 000000007990303050100000CFGR010000000000005800OPR02-07030452022103100000000D011N1$                                         X
20FFIF  0003497SL202211015316575316570222232018000039198862                                                                                                                                                                                                    X
10FFIF  0003497SL20221101531657531657200398601GALBANINO GALBANI          CFGR0270PZ0010014040  1  00000140000000029300000000000349M 000000003490301070100000CFGR002700000000002930OPR02-07030452022103100000000D011N1$                                         X
20FFIF  0003497SL2022110153165753165720039860180004300708590800043090   80004300730108000430070316                                                                                                                                                             X
10FFIF  0003497SL20221101531657531657507785401PR.COTTO A.Q AFFETT.DESPAR VSGR0120PZ0010010100  1  00000100000000022900000000000359M 000000003590306010200000VSGR001200000000002290OPR02-07030452022103100000000D011NSS                                         X
20FFIF  0003497SL202211015316575316575077854018001300551102                                                                                                                                                                                                    X
10FFIF  0003497SL20221101531657531657506532101YOG.ZYMIL CAFFE'2X125G     VTGR0250PZ0010006100  1  00000060000000006900000000000089MP000000001350302080400000VTGR002500000000000960OPR02-07030452022103100000000D011N1$                                         X
20FFIF  0003497SL202211015316575316575065321018002580000847                                                                                                                                                                                                    X
10FFIF  0003497SL20221101531657531657050932301YOG.TEDDI PERE X2 BIO      VTGR0230PZ0010006100  1  00000060000000012500000000000179M 000000001790302070200000VTGR002300000000001250OPR02-07030452022103100000000D011N1$                                         X
20FFIF  0003497SL20221101531657531657050932301801079500074370107270026178010795006226                                                                                                                                                                          X
10FFIF  0003497SL20221101531657531657506419101CERTOSA LIGHT GALBANI      BSGR0165PZ0010006040  1  00000060000000016800000000000199M 000000001990301060300000BSGR001650000000001680OPR02-07030452022103100000000D011N1$                                         X
20FFIF  0003497SL2022110153165753165750641910180004308033108000430030129                                                                                                                                                                                       X
10FFIF  0003497SL20221101531657531657505478801CERTOSA S/LATTOSIO GALBANI VSGR0165PZ0010006040  1  00000060000000015500000000000179MP000000002150301060300000VSGR001650000000001730OPR02-07030452022103100000000D011N1$                                         X
20FFIF  0003497SL202211015316575316575054788018000430030082                                                                                                                                                                                                    X
10FFIF  0003497SL20221101531657531657504069601CRESCENZA CERTOSA GALBANI  VSGR0165PZ0010006040  1  00000060000000018600000000000219M 000000002190301060100000VSGR001650000000001860OPR02-07030452022103100000000D011N1$                                         X
20FFIF  0003497SL202211015316575316575040696018000430030181800043003011280004300313178000430030099                                                                                                                                                             X
10FFIF  0003497SL20221101531657531657503620701COPPA CACAO MALU 100X2     MPGR0200PZ0010006100  1  00000060000000012500000000000169M 000000001690303030200000MPGR002000000000001250OPR02-07030452022103100000000D011N1$                                         X
20FFIF  0003497SL202211015316575316575036207018002580255803                                                                                                                                                                                                    X
10FFIF  0003497SL20221101531657531657504506701CAPRINI LAT.VAC.OSELLA NEW CFGR0100PZ0010006040  1  00000060000000012700000000000159M 000000001590301080100000CFGR001000000000001270OPR02-07030452022103100000000D011N1$                                         X
20FFIF  0003497SL2022110153165753165750450670180288459                                                                                                                                                                                                         X
10FFIF  0003497SL20221101531657531657506321901LATTE DI KEFIR SVELTESSE   BRGR0500PZ0010008100  1  00000080000000014200000000000199M 000000001990304030100000BRGR005000000000001420OPR02-07030452022103100000000D011N1$                                         X
20FFIF  0003497SL202211015316575316575063219013023290012079                                                                                                                                                                                                    X
10FFIF  0003497SL20221101531657531657507329101BURRATA VALLELATA          VTGR0125PZ0010008040  1  00000080000000020800000000000265M 000000002650301020100000VTGR001250000000002080OPR02-07030452022103100000000D011N1$                                         X
20FFIF  0003497SL202211015316575316575073291018000430156461                                                                                                                                                                                                    X
10FFIF  0003497SL20221101531657531657507138601RICOTTA S/LAT.FREE FROMX2  VTGR0200PZ0010006040  1  00000060000000010900000000000159M 000000001590301040700000VTGR002000000000001090OPR02-07030452022103100000000D011NSS                                         X
20FFIF  0003497SL202211015316575316575071386018001300652533                                                                                                                                                                                                    X
10FFIF  0003497SL20221101531657531657010932201PHILADELPHIA SALM.         CFGR0150PZ0010010040  1  00000100000000020000000000000259M 000000002590301090200000CFGR001500000000002000OPR02-07030452022103100000000D011N1$                                         X
20FFIF  0003497SL2022110153165753165701093220176223004276108001590947913                                                                                                                                                                                       X
10FFIF  0003497SL20221101531657531657504443301YOG.YOMINO FRAGOLA X4      CFGR0320PZ0010005100  1  00000050000000022200000000000299M 000000002990302030400000CFGR003200000000002220OPR02-07030452022103100000000D011N1$                                         X
20FFIF  0003497SL2022110153165753165750444330180053503204598005350320053                                                                                                                                                                                       X
10FFIF  0003497SL20221101531657531657506401901PHILADELPHIA LIGHT         VSGR0175PZ0010010040  1  00000100000000015600000000000189MP000000002390301110300000VSGR001750000000001930OPR02-07030452022103100000000D011N1$                                         X
20FFIF  0003497SL20221101531657531657506401901762221089140276222107661827622210669223                                                                                                                                                                          X
10FFIF  0003497SL20221101531657531657050931501YOG.TEDDI BANANE X2 BIO    VTGR0230PZ0010006100  1  00000060000000012500000000000179M 000000001790302070200000VTGR002300000000001250OPR02-07030452022103100000000D011N1$                                         X
20FFIF  0003497SL202211015316575316570509315018010795006301360858000525480107950001948010795006219                                                                                                                                                             X
10FFIF  0003497SL20221101531657531657506789701RICCOTTA VALCOLATTE        CIGR0250PZ0010006040  1  00000060000000012800000000000169M 000000001690301040600000CIGR002500000000001280OPR02-07030452022103100000000D011N1$                                         X
20FFIF  0003497SL202211015316575316575067897018026160007705                                                                                                                                                                                                    X
10FFIF  0003497SL20221101531657531657022262001P.COTTA TRANCIO ELENA      CFGR1000PZ0010001100  1  00000010000000058000000000000799M 000000007990303050400000CFGR010000000000005800OPR02-07030452022103100000000D011N1$                                         X
20FFIF  0003497SL202211015316575316570222620018000039198879                                                                                                                                                                                                    X
10FFIF  0003497SL20221101531657531657020420601YOG.PARMALAT 125X8         VTGR1000PZ0010003100  1  00000030000000029500000000000389M 000000003890302070200000MPGR010000000000002950OPR02-07030452022103100000000D011N1$                                         X
20FFIF  0003497SL2022110153165753165702042060116191239     700251425592480025801222288002580257418                                                                                                                                                             X
10FFIF  0003497SL20221101531657531657507065101SCAMORZA AFFUMICATA DESPAR CFGR0250PZ0010010040  1  00000100000000023200000000000319M 000000003190301051200000CFGR002500000000002320OPR02-07030452022103100000000D011NSS                                         X
20FFIF  0003497SL202211015316575316575070651018001300651390                                                                                                                                                                                                    X
10FFIF  0003497SL20221101531657531657213395701STRACCHINO INVERNIZZINA     VSGR200PZ0010006040  1  00000060000000022800000000000269M 000000002690301060100000VSGR002000000000002280OPR02-07030452022103100000000D011N1$                                         X
20FFIF  0003497SL202211015316575316572133957010115259012008800043003016700579000120088000430030105001484701200380250250056278002655910309                                                                                                                      X
10FFIF  0003497SL20221101531657531657502818801PRIMO SALE OSELLA          VSGR0125PZ0010006040  1  00000060000000013800000000000175M 000000001750301080300000VSGR001250000000001380OPR02-07030452022103100000000D011N1$                                         X
20FFIF  0003497SL202211015316575316575028188017622210776495762230036946080016100025098001590002223                                                                                                                                                             X
10FFIF  0003497SL20221101531657531657508195501DESSERT PISTACCHIO PREMIUM VAGR0090PZ0010006100  1  00000060000000013500000000000209M 000000002090303030900000VAGR000900000000001350OPR02-07030452022103100000000D011NSS                                         X
20FFIF  0003497SL202211015316575316575081955018001300661153                                                                                                                                                                                                    X
10FFIF  0003497SL20221101531657531657502209001YOG.YOMO.AGRUMI  125x2     CFGR0250PZ0010006100  1  00000060000000011500000000000155M 000000001550302070200000CFGR002500000000001150OPR02-07030452022103100000000D011N1$                                         X
20FFIF  0003497SL2022110153165753165750220900190014500214178005350021400                                                                                                                                                                                       X
10FFIF  0003497SL20221101531657531657504183501MOZZ.BUFALA CAMPANA DOP    CFGR0100PZ0010010040  1  00000100000000014800000000000189M 000000001890301010100000CFGR001000000000001480OPR02-07030452022103100000000D011N1$                                         X
20FFIF  0003497SL2022110153165753165750418350121194491     200739900980380230740000758023074003076                                                                                                                                                             X
10FFIF  0003497SL20221101531657531657506223701PHILADELPHIA YOG/GRECA     CFGR0175PZ0010010040  1  00000100000000015900000000000189MP000000002350301090200000CFGR001750000000001900OPR02-07030452022103100000000D011N1$                                         X
20FFIF  0003497SL2022110153165753165750622370176222107734637622210773449                                                                                                                                                                                       X
10FFIF  0003497SL20221101531657531657501796701LATTE ACCADI SCREM.GRANAR. BTML0500PZ0010006040  1  00000060000000010300000000000129M 000000001290304010600000BTML005000000000001030OPR02-07030452022103100000000D011N1$                                         X
20FFIF  0003497SL2022110153165753165750179670180061021     80053503127448021367163728800267016373573981011630948002670163100                                                                                                                                   X
10FFIF  0003497SL20221101531657531657502821201SQUEEZE&GO CACAO GRANAROLO CFGR0085PZ0010010100  1  00000100000000006700000000000099M 000000000990312050100000CPGR000850000000000670OPR02-07030452022103100000000D011N1$                                         X
20FFIF  0003497SL202211015316575316575028212018002670017939                                                                                                                                                                                                    X
10FFIF  0003497SL20221101531657531657504612301FETTAPERFETTA FONTINA DOP  VSGR0080PZ0010010040  1  00000100000000023200000000000289M 000000002890301140600000VSGR000800000000002320OPR02-07030452022103100000000D011N1$                                         X
20FFIF  0003497SL2022110153165753165750461230180089950004038008995004029                                                                                                                                                                                       X
10FFIF  0003497SL20221101531657531657500984001LATTE ACCADI PS GRANAROLO  BTML0500PZ0010006040  1  00000060000000010300000000000129M 000000001290304010600000BTML005000000000001030OPR02-07030452022103100000000D011N1$                                         X
20FFIF  0003497SL2022110153165753165750098400180140405     80061045     875916131432890014500210118002670020717800241016373580026701637288002670163094                                                                                                         X
10FFIF  0003497SL20221101531657531657503628001YOG.BIA.MAG.YOMO 2X125     CFGR0250PZ0010006100  1  00000060000000011200000000000149M 000000001490302080100000CFGR002500000000001120OPR02-07030452022103100000000D011N1$                                         X
20FFIF  0003497SL202211015316575316575036280018005350310115                                                                                                                                                                                                    X
10FFIF  0003497SL20221101531657531657007346001PHILADELPHIA GRANDE        VSGR0250PZ0010010040  1  00000100000000023900000000000299M 000000002990301110100000VSGR002500000000002390OPR02-07030452022103100000000D011N1$                                         X
20FFIF  0003497SL2022110153165753165700734600176223003093748001590640258                                                                                                                                                                                       X
10FFIF  0003497SL20221101531657531657507226901PASTA SFOGLIA ROTON.DESPAR FWGR0230PZ0010010100  1  00000100000000008900000000000145M 000000001450308020300000FWGR002300000000000890OPR02-07030452022103100000000D011NSS                                         X
20FFIF  0003497SL2022110153165753165750722690180013006209908001300620976                                                                                                                                                                                       X
10FFIF  0003497SL20221101531657531657050930701YOG.TEDDI ALBICOCCA X2 BIO VTGR0230PZ0010006100  1  00000060000000012500000000000179M 000000001790302070200000VTGR002300000000001250OPR02-07030452022103100000000D011N1$                                         X
20FFIF  0003497SL202211015316575316570509307014010195002556701072700262470107270062028010795006202                                                                                                                                                             X
10FFIF  0003497SL20221101531657531657200498401CRESCENZA CERTOSA 1/2 GALB.KG1,00CAKG0010001040  1  00000009900000102500000000001350M 000000013500352030100000$$$$000000000000010250OPR02-07030452022103100000000D011N1$                                         X
10FFIF  0003497SL20221101531657531657502820401SQUEEZE&GO VANIGLIA GRANAR CFGR0085PZ0010010100  1  00000100000000006700000000000099M 000000000990312050200000CPGR000850000000000670OPR02-07030452022103100000000D011N1$                                         X
20FFIF  0003497SL202211015316575316575028204018002670017984                                                                                                                                                                                                    X
10FFIF  0003497SL20221101531657531657508135101MOZZ.JULIENNE S.LUCIA      BSGR0150PZ0010006040  1  00000060000000018500000000000239M 000000002390301010200000BSGR001500000000001850OPR02-07030452022103100000000D011N1$                                         X
20FFIF  0003497SL202211015316575316575081351018000430139440                                                                                                                                                                                                    X
10FFIF  0003497SL20221101531657531657014039201MOZZ.S.LUCIA PALLA         CFGR0125PZ0010012040  1  00000120000000011700000000000125MP000000001450301010200000CFGR001250000000001200OPR02-07030452022103100000000D011N1$                                         X
20FFIF  0003497SL20221101531657531657014039201800043013868980004301333258000430133035                                                                                                                                                                          X
10FFIF  0003497SL20221101531657531657023281901BASE X FOCACCIA BUITONI    CFGR0375PZ0010005100  1  00000050000000018500000000000245M 000000002450308020400000CFGR003750000000001850OPR02-07030452022103100000000D011N1$                                         X
20FFIF  0003497SL20221101531657531657023281901761303569343276130325208858000300137651                                                                                                                                                                          X
10FFIF  0003497SL20221101531657531657007375901PANNA ELENA BLU'           BRML1000PZ0010003100  1  00000030000000077000000000000979M 000000009790118030200000BRML010000000000007700OPR02-07030452022103100000000D011N1$                                         X
20FFIF  0003497SL2022110153165753165700737590180000390198778000039019211                                                                                                                                                                                       X
10FFIF  0003497SL20221101531657531657010917301ROBIOLA OSELLA 2X100       CFGR0200PZ0010006040  1  00000060000000024000000000000289M 000000002890301080200000CFGR002000000000002400OPR02-07030452022103100000000D011N1$                                         X
20FFIF  0003497SL202211015316575316570109173018001174918612                                                                                                                                                                                                    X
10FFIF  0003497SL20221101531657531657508164101PHILADELPHIA PROTEIN       VSGR0175PZ0010010040  1  00000100000000015900000000000189MP000000002350301110100000VSGR001750000000001890OPR02-07030452022103100000000D011N1$                                         X
20FFIF  0003497SL2022110153165753165750816410176222107809737622210780751                                                                                                                                                                                       X
10FFIF  0003497SL20221101531657531657508117901DESSERT PROTEICO VANIG.MUL.VTGR0200PZ0010006100  1  00000060000000013700000000000199M 000000001990303030100000VTGR002000000000001370OPR02-07030452022103100000000D011N1$                                         X
20FFIF  0003497SL2022110153165753165750811790142430148                                                                                                                                                                                                         X
10FFIF  0003497SL20221101531657531657507988401LINEA OSELLA MINIS X6 BOCC.VTGR0150PZ0010006040  1  00000060000000022900000000000289M 000000002890301080300000VTGR001500000000002290OPR02-07030452022103100000000D011N1$                                         X
20FFIF  0003497SL202211015316575316575079884017622201455682                                                                                                                                                                                                    X
10FFIF  0003497SL20221101531657531657015269401MASCARPONE S.LUCIA         CFGR0250PZ0010008040  1  00000080000000018500000000000199MP000000002790301100100000CFGR002500000000002320OPR02-07030452022103100000000D011N1$                                         X
20FFIF  0003497SL202211015316575316570152694018000430172010                                                                                                                                                                                                    X
10FFIF  0003497SL20221101531657531657507069301FORM.SPALMABILE DESPAR     VSGR0200PZ0010010040  1  00000100000000009900000000000139M 000000001390301110100000VSGR002000000000000990OPR02-07030452022103100000000D011NSS                                         X
20FFIF  0003497SL202211015316575316575070693018001300651468                                                                                                                                                                                                    X
10FFIF  0003497SL20221101531657531657031528301GORGONZOLA DOP GIM GALBANI VSGR0220PZ0010008040  1  00000080000000023000000000000289M 000000002890301050100000CFGR002200000000002300OPR02-07030452022103100000000D011N1$                                         X
20FFIF  0003497SL20221101531657531657031528301800043005915180016107210118001590721032                                                                                                                                                                          X
10FFIF  0003497SL20221101531657531657024195001RICOTTA VALLELATA 2X100G.  VTGR0200PZ0010006040  1  00000060000000013300000000000149M 000000001490301040600000VTGR002000000000001330OPR02-07030452022103100000000D011N1$                                         X
20FFIF  0003497SL202211015316575316570241950018000430197419                                                                                                                                                                                                    X
10FFIF  0003497SL20221101531657531657507227701PASTA SFOGLIA RETT.DESPAR  FWGR0230PZ0010010100  1  00000100000000008900000000000145M 000000001450308020300000FWGR002300000000000890OPR02-07030452022103100000000D011NSS                                         X
20FFIF  0003497SL2022110153165753165750722770180013006210038001300620983                                                                                                                                                                                       X
10FFIF  0003497SL20221101531657531657507061001MOZZARELLA FILONE DESPAR   CFGR0400PZ0010008040  1  00000160000000024700000000000349M 000000003490301010200000CFGR004000000000002470OPR02-07030452022103100000000D011NSS                                         X
20FFIF  0003497SL2022110153165753165750706100165231706513218001300651284                                                                                                                                                                                       X
10FFIF  0003497SL20221101531657531657507817501MOZZ.MONTEFELICE           BSGR0100PZ0010010040  1  00000100000000007200000000000089M 000000000890301010200000BSGR001000000000000720OPR02-07030452022103100000000D011N1$                                         X
20FFIF  0003497SL202211015316575316575078175018020537683509                                                                                                                                                                                                    X
10FFIF  0003497SL20221101531657531657507834001KINDER PINGUI'CACAO T4     CFGR0120PZ0010009100  1  00000090000000014100000000000199M 000000001990303010100000CFGR001200000000001410OPR02-07030452022103100000000D011N1$                                         X
20FFIF  0003497SL2022110153165753165750783400140084002904094008400290423                                                                                                                                                                                       X
10FFIF  0003497SL20221101531657531657501957501KINDER CHOCO FRESH 5x21g   CFGR0105PZ0010010100  1  00000100000000014100000000000199M 000000001990303010100000CFGR001050000000001410OPR02-07030452022103100000000D011N1$                                         X
20FFIF  0003497SL202211015316575316575019575018000500309476800050030946980005000275618000500011485                                                                                                                                                             X
10FFIF  0003497SL20221101531657531657507214501SUGO AI 4 FORMAGGI DESPAR  VTGR0140PZ0010008100  1  00000080000000010500000000000169M 000000001690309110200000VTGR001400000000001050OPR02-07030452022103100000000D011NSS                                         X
20FFIF  0003497SL2022110153165753165750721450180414605     8001300610939                                                                                                                                                                                       X
10FFIF  0003497SL20221101531657531657507319201RICCOTTA'LA GUSTOSA'VALCO. FCGR1500KG0010001040  1  00000015000000062900000000000890M 000000008900352020200000FCGR010000000000006290OPR02-07030452022103100000000D011N1$                                         X
20FFIF  0003497SL202211015316575316575073192018026160009143                                                                                                                                                                                                    X
10FFIF  0003497SL20221101531657531657217128801RICOTTA VALLELATA          VSGR1500KG0010001040  1  00000015000000065200000000000890M 000000008900352020200000VSGR010000000000006520OPR02-07030452022103100000000D011N1$                                         X
20FFIF  0003497SL202211015316575316572171288018000430193213                                                                                                                                                                                                    X
10FFIF  0003497SL20221101531657531657507265701FORM.FRESCO FRUTTA DESP.X6 CFGR0300PZ0010008040  1  00000080000000008800000000000125M 000000001250303040200000CFGR003000000000000880OPR02-07030452022103100000000D011NSS                                         X
20FFIF  0003497SL2022110153165753165750726570180013006610548001300660439                                                                                                                                                                                       X
10FFIF  0003497SL20221101531657531657200406701RICOTTA S.LUCIA            VTGR0250PZ0010008040  1  00000240000000010800000000000119MP000000001490301040600000VTGR002500000000001140OPR02-07030452022103100000000D011N1$                                         X
20FFIF  0003497SL202211015316575316572004067018000430194227800043019410480004301940128000430194005                                                                                                                                                             X
10FFIF  0003497SL20221101531657531657504805301OSELLA ROBIOLA TARTUFO     CFGR0090PZ0010006040  1  00000060000000013000000000000159M 000000001590301080200000CFGR000900000000001300OPR02-07030452022103100000000D011N1$                                         X
20FFIF  0003497SL2022110153165753165750480530180019602                                                                                                                                                                                                         X
10FFIF  0003497SL20221101531657531657504865701MUU MUU MINI VAN.CAMEO6X50 CFGR0300PZ0010003100  1  00000030000000019200000000000265M 000000002650303030100000CFGR003000000000001920OPR02-07030452022103100000000D011N1$                                         X
20FFIF  0003497SL20221101531657531657504865701800300061623580030006259168003000625114                                                                                                                                                                          X
10FFIF  0003497SL20221101531657531657507188101YOG.MULTI GUSTI DESP 125X8 CFGR1000PZ0010003100  1  00000030000000021500000000000319M 000000003190302070200000CFGR010000000000002150OPR02-07030452022103100000000D011NSS                                         X
20FFIF  0003497SL202211015316575316575071881018001300660088                                                                                                                                                                                                    X
10FFIF  0003497SL20221101531657531657505242801MIX IRRESISTIBILE PIS/MAND.CFGR0150PZ0010006100  1  00000060000000008200000000000119M 000000001190302020300000CFGR001500000000000820OPR02-07030452022103100000000D011N1$                                         X
20FFIF  0003497SL2022110153165753165750524280142274339                                                                                                                                                                                                         X
10FFIF  0003497SL20221101531657531657508050201MILK PRO CREMA DESS. CACAO VTGR0200PZ0010006100  1  00000060000000013200000000000189M 000000001890303030100000VTGR002000000000001320OPR02-07030452022103100000000D011N1$                                         X
20FFIF  0003497SL202211015316575316575080502018034066371714                                                                                                                                                                                                    X
10FFIF  0003497SL20221101531657531657508187201YOG.TOTAL 0% LAMP/MELOG.   VTGR0150PZ0010006100  1  00000060000000011600000000000159M 000000001590302080200000VTGR001500000000001160OPR02-07030452022103100000000D011N1$                                         X
20FFIF  0003497SL202211015316575316575081872015201054024645                                                                                                                                                                                                    X
10FFIF  0003497SL20221101531657531657507184001YOG.INT.BANANA DESP.125X2  CFGR0250PZ0010010100  1  00000100000000006500000000000095M 000000000950302070200000CFGR002500000000000650OPR02-07030452022103100000000D011NSS                                         X
20FFIF  0003497SL202211015316575316575071840018001300660026                                                                                                                                                                                                    X
10FFIF  0003497SL20221101531657531657507187301YOG.BIANC.INT.DESPAR 125X2 CFGR0250PZ0010010100  1  00000100000000005900000000000089M 000000000890302070100000CFGR002500000000000590OPR02-07030452022103100000000D011NSS                                         X
20FFIF  0003497SL202211015316575316575071873018001300660002                                                                                                                                                                                                    X
